{
  "contractName": "AccountStorage",
  "abi": [
    {
      "inputs": [
        {
          "internalType": "address",
          "name": "accountAddress",
          "type": "address"
        }
      ],
      "name": "account",
      "outputs": [
        {
          "internalType": "uint256",
          "name": "balance",
          "type": "uint256"
        },
        {
          "internalType": "uint256",
          "name": "profilesSize",
          "type": "uint256"
        }
      ],
      "stateMutability": "view",
      "type": "function"
    },
    {
      "inputs": [
        {
          "internalType": "address",
          "name": "accountAddress",
          "type": "address"
        },
        {
          "internalType": "uint256",
          "name": "profileIdx",
          "type": "uint256"
        }
      ],
      "name": "profile",
      "outputs": [
        {
          "internalType": "bytes32",
          "name": "title",
          "type": "bytes32"
        },
        {
          "internalType": "uint8",
          "name": "consensusPercentage",
          "type": "uint8"
        },
        {
          "internalType": "uint256",
          "name": "requstersSize",
          "type": "uint256"
        },
        {
          "internalType": "uint256",
          "name": "votersSize",
          "type": "uint256"
        }
      ],
      "stateMutability": "view",
      "type": "function"
    },
    {
      "inputs": [
        {
          "internalType": "address",
          "name": "accountAddress",
          "type": "address"
        },
        {
          "internalType": "uint256",
          "name": "profileIdx",
          "type": "uint256"
        },
        {
          "internalType": "uint256",
          "name": "userIdx",
          "type": "uint256"
        },
        {
          "internalType": "enum AccountStorage.Roles",
          "name": "role",
          "type": "uint8"
        }
      ],
      "name": "profileRoleAt",
      "outputs": [
        {
          "internalType": "address",
          "name": "",
          "type": "address"
        }
      ],
      "stateMutability": "view",
      "type": "function"
    },
    {
      "inputs": [
        {
          "internalType": "address",
          "name": "accountAddress",
          "type": "address"
        }
      ],
      "name": "addProfile",
      "outputs": [],
      "stateMutability": "nonpayable",
      "type": "function"
    },
    {
      "inputs": [
        {
          "internalType": "address",
          "name": "accountAddress",
          "type": "address"
        },
        {
          "internalType": "uint256",
          "name": "profileIdx",
          "type": "uint256"
        },
        {
          "internalType": "bytes32",
          "name": "title",
          "type": "bytes32"
        },
        {
          "internalType": "uint8",
          "name": "consensusPercentage",
          "type": "uint8"
        }
      ],
      "name": "editProfile",
      "outputs": [],
      "stateMutability": "nonpayable",
      "type": "function"
    },
    {
      "inputs": [
        {
          "internalType": "address",
          "name": "accountAddress",
          "type": "address"
        },
        {
          "internalType": "uint256",
          "name": "profileIdx",
          "type": "uint256"
        },
        {
          "internalType": "address",
          "name": "user",
          "type": "address"
        },
        {
          "internalType": "enum AccountStorage.Roles",
          "name": "role",
          "type": "uint8"
        }
      ],
      "name": "addProfileRole",
      "outputs": [],
      "stateMutability": "nonpayable",
      "type": "function"
    },
    {
      "inputs": [
        {
          "internalType": "address",
          "name": "accountAddress",
          "type": "address"
        },
        {
          "internalType": "uint256",
          "name": "profileIdx",
          "type": "uint256"
        }
      ],
      "name": "removeProfile",
      "outputs": [],
      "stateMutability": "nonpayable",
      "type": "function"
    },
    {
      "inputs": [
        {
          "internalType": "address",
          "name": "accountAddress",
          "type": "address"
        },
        {
          "internalType": "uint256",
          "name": "profileIdx",
          "type": "uint256"
        },
        {
          "internalType": "address",
          "name": "user",
          "type": "address"
        },
        {
          "internalType": "enum AccountStorage.Roles",
          "name": "role",
          "type": "uint8"
        }
      ],
      "name": "removeProfileRole",
      "outputs": [],
      "stateMutability": "nonpayable",
      "type": "function"
    }
  ],
  "bytecode": "0x608060405234801561001057600080fd5b50611a2d806100206000396000f3fe608060405234801561001057600080fd5b50600436106100885760003560e01c80637094a5af1161005b5780637094a5af1461012857806373b9aa91146101445780639f153d4514610175578063be3300361461019157610088565b8063060e36c81461008d57806310143a64146100a957806322122994146100c55780633515ca47146100f5575b600080fd5b6100a760048036038101906100a29190611591565b6101ad565b005b6100c360048036038101906100be91906114a0565b6103d4565b005b6100df60048036038101906100da91906115f4565b610501565b6040516100ec9190611738565b60405180910390f35b61010f600480360381019061010a91906114f2565b610747565b60405161011f9493929190611753565b60405180910390f35b610142600480360381019061013d919061152e565b6108cf565b005b61015e600480360381019061015991906114a0565b610c26565b60405161016c929190611845565b60405180910390f35b61018f600480360381019061018a919061152e565b610cb6565b005b6101ab60048036038101906101a691906114f2565b61100d565b005b836000808273ffffffffffffffffffffffffffffffffffffffff1673ffffffffffffffffffffffffffffffffffffffff16815260200190815260200160002060000160009054906101000a900473ffffffffffffffffffffffffffffffffffffffff1673ffffffffffffffffffffffffffffffffffffffff163373ffffffffffffffffffffffffffffffffffffffff161461027d576040517f08c379a0000000000000000000000000000000000000000000000000000000008152600401610274906117b8565b60405180910390fd5b84846000808373ffffffffffffffffffffffffffffffffffffffff1673ffffffffffffffffffffffffffffffffffffffff16815260200190815260200160002060020154811115610303576040517f08c379a00000000000000000000000000000000000000000000000000000000081526004016102fa90611798565b60405180910390fd5b846000808973ffffffffffffffffffffffffffffffffffffffff1673ffffffffffffffffffffffffffffffffffffffff168152602001908152602001600020600301600088815260200190815260200160002060000181905550836000808973ffffffffffffffffffffffffffffffffffffffff1673ffffffffffffffffffffffffffffffffffffffff168152602001908152602001600020600301600088815260200190815260200160002060050160006101000a81548160ff021916908360ff16021790555050505050505050565b806000808273ffffffffffffffffffffffffffffffffffffffff1673ffffffffffffffffffffffffffffffffffffffff16815260200190815260200160002060000160009054906101000a900473ffffffffffffffffffffffffffffffffffffffff1673ffffffffffffffffffffffffffffffffffffffff163373ffffffffffffffffffffffffffffffffffffffff16146104a4576040517f08c379a000000000000000000000000000000000000000000000000000000000815260040161049b906117b8565b60405180910390fd5b60016000808473ffffffffffffffffffffffffffffffffffffffff1673ffffffffffffffffffffffffffffffffffffffff16815260200190815260200160002060020160008282546104f6919061187f565b925050819055505050565b600060018081111561053c577f4e487b7100000000000000000000000000000000000000000000000000000000600052602160045260246000fd5b826001811115610575577f4e487b7100000000000000000000000000000000000000000000000000000000600052602160045260246000fd5b141561065f5773__AddressStorageLib_____________________630ba06cb26000808873ffffffffffffffffffffffffffffffffffffffff1673ffffffffffffffffffffffffffffffffffffffff1681526020019081526020016000206003016000878152602001908152602001600020600301856040518363ffffffff1660e01b815260040161060892919061181c565b60206040518083038186803b15801561062057600080fd5b505af4158015610634573d6000803e3d6000fd5b505050506040513d601f19601f8201168201806040525081019061065891906114c9565b905061073f565b73__AddressStorageLib_____________________630ba06cb26000808873ffffffffffffffffffffffffffffffffffffffff1673ffffffffffffffffffffffffffffffffffffffff1681526020019081526020016000206003016000878152602001908152602001600020600101856040518363ffffffff1660e01b81526004016106ec92919061181c565b60206040518083038186803b15801561070457600080fd5b505af4158015610718573d6000803e3d6000fd5b505050506040513d601f19601f8201168201806040525081019061073c91906114c9565b90505b949350505050565b6000806000806000808773ffffffffffffffffffffffffffffffffffffffff1673ffffffffffffffffffffffffffffffffffffffff1681526020019081526020016000206003016000868152602001908152602001600020600001546000808873ffffffffffffffffffffffffffffffffffffffff1673ffffffffffffffffffffffffffffffffffffffff168152602001908152602001600020600301600087815260200190815260200160002060050160009054906101000a900460ff166000808973ffffffffffffffffffffffffffffffffffffffff1673ffffffffffffffffffffffffffffffffffffffff1681526020019081526020016000206003016000888152602001908152602001600020600101600001805490506000808a73ffffffffffffffffffffffffffffffffffffffff1673ffffffffffffffffffffffffffffffffffffffff168152602001908152602001600020600301600089815260200190815260200160002060030160000180549050935093509350935092959194509250565b836000808273ffffffffffffffffffffffffffffffffffffffff1673ffffffffffffffffffffffffffffffffffffffff16815260200190815260200160002060000160009054906101000a900473ffffffffffffffffffffffffffffffffffffffff1673ffffffffffffffffffffffffffffffffffffffff163373ffffffffffffffffffffffffffffffffffffffff161461099f576040517f08c379a0000000000000000000000000000000000000000000000000000000008152600401610996906117b8565b60405180910390fd5b84846000808373ffffffffffffffffffffffffffffffffffffffff1673ffffffffffffffffffffffffffffffffffffffff16815260200190815260200160002060020154811115610a25576040517f08c379a0000000000000000000000000000000000000000000000000000000008152600401610a1c90611798565b60405180910390fd5b600180811115610a5e577f4e487b7100000000000000000000000000000000000000000000000000000000600052602160045260246000fd5b846001811115610a97577f4e487b7100000000000000000000000000000000000000000000000000000000600052602160045260246000fd5b1415610b5f5773__AddressStorageLib_____________________63b817d8566000808a73ffffffffffffffffffffffffffffffffffffffff1673ffffffffffffffffffffffffffffffffffffffff1681526020019081526020016000206003016000898152602001908152602001600020600301876040518363ffffffff1660e01b8152600401610b2a9291906117f3565b60006040518083038186803b158015610b4257600080fd5b505af4158015610b56573d6000803e3d6000fd5b50505050610c1d565b73__AddressStorageLib_____________________63b817d8566000808a73ffffffffffffffffffffffffffffffffffffffff1673ffffffffffffffffffffffffffffffffffffffff1681526020019081526020016000206003016000898152602001908152602001600020600101876040518363ffffffff1660e01b8152600401610bec9291906117f3565b60006040518083038186803b158015610c0457600080fd5b505af4158015610c18573d6000803e3d6000fd5b505050505b50505050505050565b6000806000808473ffffffffffffffffffffffffffffffffffffffff1673ffffffffffffffffffffffffffffffffffffffff168152602001908152602001600020600101546000808573ffffffffffffffffffffffffffffffffffffffff1673ffffffffffffffffffffffffffffffffffffffff1681526020019081526020016000206002015491509150915091565b836000808273ffffffffffffffffffffffffffffffffffffffff1673ffffffffffffffffffffffffffffffffffffffff16815260200190815260200160002060000160009054906101000a900473ffffffffffffffffffffffffffffffffffffffff1673ffffffffffffffffffffffffffffffffffffffff163373ffffffffffffffffffffffffffffffffffffffff1614610d86576040517f08c379a0000000000000000000000000000000000000000000000000000000008152600401610d7d906117b8565b60405180910390fd5b84846000808373ffffffffffffffffffffffffffffffffffffffff1673ffffffffffffffffffffffffffffffffffffffff16815260200190815260200160002060020154811115610e0c576040517f08c379a0000000000000000000000000000000000000000000000000000000008152600401610e0390611798565b60405180910390fd5b600180811115610e45577f4e487b7100000000000000000000000000000000000000000000000000000000600052602160045260246000fd5b846001811115610e7e577f4e487b7100000000000000000000000000000000000000000000000000000000600052602160045260246000fd5b1415610f465773__AddressStorageLib_____________________6371bd1b346000808a73ffffffffffffffffffffffffffffffffffffffff1673ffffffffffffffffffffffffffffffffffffffff1681526020019081526020016000206003016000898152602001908152602001600020600301876040518363ffffffff1660e01b8152600401610f119291906117f3565b60006040518083038186803b158015610f2957600080fd5b505af4158015610f3d573d6000803e3d6000fd5b50505050611004565b73__AddressStorageLib_____________________6371bd1b346000808a73ffffffffffffffffffffffffffffffffffffffff1673ffffffffffffffffffffffffffffffffffffffff1681526020019081526020016000206003016000898152602001908152602001600020600101876040518363ffffffff1660e01b8152600401610fd39291906117f3565b60006040518083038186803b158015610feb57600080fd5b505af4158015610fff573d6000803e3d6000fd5b505050505b50505050505050565b816000808273ffffffffffffffffffffffffffffffffffffffff1673ffffffffffffffffffffffffffffffffffffffff16815260200190815260200160002060000160009054906101000a900473ffffffffffffffffffffffffffffffffffffffff1673ffffffffffffffffffffffffffffffffffffffff163373ffffffffffffffffffffffffffffffffffffffff16146110dd576040517f08c379a00000000000000000000000000000000000000000000000000000000081526004016110d4906117b8565b60405180910390fd5b82826000808373ffffffffffffffffffffffffffffffffffffffff1673ffffffffffffffffffffffffffffffffffffffff16815260200190815260200160002060020154811115611163576040517f08c379a000000000000000000000000000000000000000000000000000000000815260040161115a90611798565b60405180910390fd5b73__AddressStorageLib_____________________6380abfdeb6000808873ffffffffffffffffffffffffffffffffffffffff1673ffffffffffffffffffffffffffffffffffffffff16815260200190815260200160002060030160008781526020019081526020016000206001016040518263ffffffff1660e01b81526004016111ee91906117d8565b60006040518083038186803b15801561120657600080fd5b505af415801561121a573d6000803e3d6000fd5b5050505073__AddressStorageLib_____________________6380abfdeb6000808873ffffffffffffffffffffffffffffffffffffffff1673ffffffffffffffffffffffffffffffffffffffff16815260200190815260200160002060030160008781526020019081526020016000206003016040518263ffffffff1660e01b81526004016112a991906117d8565b60006040518083038186803b1580156112c157600080fd5b505af41580156112d5573d6000803e3d6000fd5b5050505060008060008773ffffffffffffffffffffffffffffffffffffffff1673ffffffffffffffffffffffffffffffffffffffff168152602001908152602001600020600301600086815260200190815260200160002060050160006101000a81548160ff021916908360ff1602179055507f30783030000000000000000000000000000000000000000000000000000000006000808773ffffffffffffffffffffffffffffffffffffffff1673ffffffffffffffffffffffffffffffffffffffff16815260200190815260200160002060030160008681526020019081526020016000206000018190555060016000808773ffffffffffffffffffffffffffffffffffffffff1673ffffffffffffffffffffffffffffffffffffffff168152602001908152602001600020600201600082825461141491906118d5565b925050819055505050505050565b6000813590506114318161198b565b92915050565b6000815190506114468161198b565b92915050565b60008135905061145b816119a2565b92915050565b600081359050611470816119b9565b92915050565b600081359050611485816119c9565b92915050565b60008135905061149a816119e0565b92915050565b6000602082840312156114b257600080fd5b60006114c084828501611422565b91505092915050565b6000602082840312156114db57600080fd5b60006114e984828501611437565b91505092915050565b6000806040838503121561150557600080fd5b600061151385828601611422565b925050602061152485828601611476565b9150509250929050565b6000806000806080858703121561154457600080fd5b600061155287828801611422565b945050602061156387828801611476565b935050604061157487828801611422565b925050606061158587828801611461565b91505092959194509250565b600080600080608085870312156115a757600080fd5b60006115b587828801611422565b94505060206115c687828801611476565b93505060406115d78782880161144c565b92505060606115e88782880161148b565b91505092959194509250565b6000806000806080858703121561160a57600080fd5b600061161887828801611422565b945050602061162987828801611476565b935050604061163a87828801611476565b925050606061164b87828801611461565b91505092959194509250565b61166081611909565b82525050565b61166f81611909565b82525050565b61167e8161191b565b82525050565b600061169160158361186e565b91507f50726f66696c6520646f65736e277420657869737400000000000000000000006000830152602082019050919050565b60006116d160128361186e565b91507f5065726d697373696f6e2064656e6965642e00000000000000000000000000006000830152602082019050919050565b8082525050565b61171481611945565b82525050565b61172381611945565b82525050565b6117328161194f565b82525050565b600060208201905061174d6000830184611657565b92915050565b60006080820190506117686000830187611675565b6117756020830186611729565b611782604083018561170b565b61178f606083018461170b565b95945050505050565b600060208201905081810360008301526117b181611684565b9050919050565b600060208201905081810360008301526117d1816116c4565b9050919050565b60006020820190506117ed6000830184611704565b92915050565b60006040820190506118086000830185611704565b6118156020830184611666565b9392505050565b60006040820190506118316000830185611704565b61183e602083018461171a565b9392505050565b600060408201905061185a600083018561170b565b611867602083018461170b565b9392505050565b600082825260208201905092915050565b600061188a82611945565b915061189583611945565b9250827fffffffffffffffffffffffffffffffffffffffffffffffffffffffffffffffff038211156118ca576118c961195c565b5b828201905092915050565b60006118e082611945565b91506118eb83611945565b9250828210156118fe576118fd61195c565b5b828203905092915050565b600061191482611925565b9050919050565b6000819050919050565b600073ffffffffffffffffffffffffffffffffffffffff82169050919050565b6000819050919050565b600060ff82169050919050565b7f4e487b7100000000000000000000000000000000000000000000000000000000600052601160045260246000fd5b61199481611909565b811461199f57600080fd5b50565b6119ab8161191b565b81146119b657600080fd5b50565b600281106119c657600080fd5b50565b6119d281611945565b81146119dd57600080fd5b50565b6119e98161194f565b81146119f457600080fd5b5056fea2646970667358221220580ecdb4a481af62f06136fdf394cdd6b84883e3f5e211e7f4645f8e78d348e564736f6c63430008000033",
  "immutableReferences": {},
  "source": "// SPDX-License-Identifier: GPL-3.0\npragma solidity >=0.6.0 <0.9.0;\n\n\nimport \"./AddressStorageLib.sol\";\n\n/**\n * @title AccountStorage\n * @notice Provides interface for account balance and its profiles.\n */\ncontract AccountStorage {\n    enum Roles {REQUESTER, VOTER}\n\n    struct Profile {\n        // Keep title short :)\n        bytes32 title;\n\n        // VOTER - can vote for transaction request, cannot send\n        // REQUESTER - can send request, cannot vote.\n        AddressStorageLib.Permissions requsters;\n        AddressStorageLib.Permissions voters;\n        // 1-100;\n        uint8 consensusPercentage;\n    }\n\n    struct Account {\n        address owner;\n        uint balance;\n        uint profilesSize;\n        mapping (uint => Profile) profiles;\n    }\n\n    mapping(address => Account) internal accounts;\n\n    /**\n     * @dev Throws if caller is not account owner.\n     */\n    modifier requireAccountOwner(address accountAddress) {\n        require(\n            msg.sender == accounts[accountAddress].owner,\n            \"Permission denied.\"\n        );\n        _;\n    }\n    /**\n     * @dev Throws if profile by `profileIdx` doesn't exists in\n     *      `accountAddress` address.\n     */\n    modifier requireProfileExists(address accountAddress, uint profileIdx) {\n        require(\n            profileIdx <= accounts[accountAddress].profilesSize,\n            \"Profile doesn't exist\"\n        );\n        _;\n    }\n    /**\n     * @dev Throws if caller doesn't have `requester` permissions for profile\n     *      by `profileIdx` doesn't exists in `accountAddress` address.\n     */\n    modifier requireProfileRequester(address accountAddress, uint profileIdx) {\n        require(\n            AddressStorageLib.has(\n                accounts[accountAddress].profiles[profileIdx].requsters,\n                msg.sender\n            ),\n            \"Permission denied.\"\n        );\n        _;\n    }\n\n    // *** Getter Methods ***\n\n    /**\n     * @notice Get account balance and number of profiles.\n     * @dev To get all account profiles, use `for` loop for `profilesSize`\n     *      with `profile` method.\n     * @param accountAddress Address of account\n     * @return balance\n     * @return profilesSize\n     */\n    function account (address accountAddress) external view\n        returns (uint balance, uint profilesSize)\n    {\n        return (\n            accounts[accountAddress].balance,\n            accounts[accountAddress].profilesSize\n        );\n    }\n\n    /**\n     * @notice Get profile details.\n     * @dev Use `profilesSize` from `account` method response to get maximum\n     *      profile index.\n     *      To get all profile requesters/voters, use `for` loop for\n     *      `requstersSize`/`votersSize` with `profileRoleAt`.\n     * @param accountAddress Address of account\n     * @param profileIdx Profile index\n     * @return title\n     * @return consensusPercentage\n     * @return requstersSize\n     * @return votersSize\n     */\n    function profile(address accountAddress, uint profileIdx) external view\n        returns (\n            bytes32 title,\n            uint8 consensusPercentage,\n            uint requstersSize,\n            uint votersSize\n        )\n    {\n        return (\n            accounts[accountAddress].profiles[profileIdx].title,\n            accounts[accountAddress].profiles[profileIdx].consensusPercentage,\n            accounts[accountAddress].profiles[profileIdx].requsters.keys.length,\n            accounts[accountAddress].profiles[profileIdx].voters.keys.length\n        );\n    }\n\n    /**\n     * @notice Get user address in roles array by index.\n     * @dev Use `requstersSize`/`votersSize` from `profile` response to get\n     *      max possible index.\n     * @param accountAddress Address of account\n     * @param profileIdx Profile index\n     * @return address\n     */\n    function profileRoleAt(\n        address accountAddress,\n        uint profileIdx,\n        uint userIdx,\n        Roles role\n    )\n        external view\n        returns (address)\n    {\n        if (role == Roles.VOTER) {\n            return AddressStorageLib.at(\n                accounts[accountAddress].profiles[profileIdx].voters,\n                userIdx\n            );\n        }\n        else {\n            return AddressStorageLib.at(\n                accounts[accountAddress].profiles[profileIdx].requsters,\n                userIdx\n            );\n        }\n    }\n\n    // *** Setter Methods ***\n\n    /**\n     * @notice Add a new empty profile to account.\n     * @dev Use `editProfile` to set profile details.\n     *       Throws if:\n     *       - Caller isn't account owner;\n     * @param accountAddress Address of account\n     */\n    function addProfile(address accountAddress)\n        external\n        requireAccountOwner(accountAddress)\n    {\n        accounts[accountAddress].profilesSize += 1;\n    }\n\n    /**\n     * @notice Edit profile details.\n     * @dev Throws if:\n     *      - Caller isn't account owner;\n     *      - Profile at index doesn't exist;\n     * @param accountAddress Address of account\n     * @param profileIdx Profile index\n     * @param title Title in bytes32\n     * @param consensusPercentage Consensus percentage 1-100\n     */\n    function editProfile(\n        address accountAddress,\n        uint profileIdx,\n        bytes32 title,\n        uint8 consensusPercentage\n    )\n        external\n        requireAccountOwner(accountAddress)\n        requireProfileExists(accountAddress, profileIdx)\n    {\n        accounts[accountAddress].profiles[profileIdx].title = title;\n        accounts[accountAddress].profiles[profileIdx].consensusPercentage =\n            consensusPercentage;\n    }\n\n    /**\n     * @notice Grant `role` permission for `user` in profile.\n     * @dev Throws if:\n     *      - Caller isn't account owner;\n     *      - Profile at index doesn't exist;\n     * @param accountAddress Address of account\n     * @param profileIdx Profile index\n     * @param user User address\n     * @param role `Roles` enum\n     */\n    function addProfileRole(\n        address accountAddress,\n        uint profileIdx,\n        address user,\n        Roles role\n    )\n        external\n        requireAccountOwner(accountAddress)\n        requireProfileExists(accountAddress, profileIdx)\n    {\n        if (role == Roles.VOTER) {\n            AddressStorageLib.add(\n                accounts[accountAddress].profiles[profileIdx].voters,\n                user\n            );\n        }\n        else {\n            AddressStorageLib.add(\n                accounts[accountAddress].profiles[profileIdx].requsters,\n                user\n            );\n        }\n    }\n\n    // *** Delete Methods ***\n\n    /**\n     * @notice Removes profiles by index.\n     * @dev Throws if:\n     *      - Caller isn't account owner;\n     *      - Profile at index doesn't exist;\n     * @param accountAddress Address of account\n     * @param profileIdx Profile index\n     */\n    function removeProfile(address accountAddress, uint profileIdx)\n        external\n        requireAccountOwner(accountAddress)\n        requireProfileExists(accountAddress, profileIdx)\n    {\n        AddressStorageLib.clear(\n            accounts[accountAddress].profiles[profileIdx].requsters\n        );\n        AddressStorageLib.clear(\n            accounts[accountAddress].profiles[profileIdx].voters\n        );\n        accounts[accountAddress].profiles[profileIdx].consensusPercentage = 0;\n        accounts[accountAddress].profiles[profileIdx].title = '0x00';\n        accounts[accountAddress].profilesSize -= 1;\n    }\n\n    /**\n     * @notice Revoke `role` permission for `user` in profile.\n     * @dev Throws if:\n     *      - Caller isn't account owner;\n     *      - Profile at index doesn't exist;\n     * @param accountAddress Address of account\n     * @param profileIdx Profile index\n     * @param user User address\n     * @param role `Roles` enum\n     */\n    function removeProfileRole(\n        address accountAddress,\n        uint profileIdx,\n        address user,\n        Roles role\n    )\n        external\n        requireAccountOwner(accountAddress)\n        requireProfileExists(accountAddress, profileIdx)\n    {\n        if (role == Roles.VOTER) {\n            AddressStorageLib.remove(\n                accounts[accountAddress].profiles[profileIdx].voters,\n                user\n            );\n        }\n        else {\n            AddressStorageLib.remove(\n                accounts[accountAddress].profiles[profileIdx].requsters,\n                user\n            );\n        }\n    }\n\n}",
  "sourcePath": "/Users/kunla/etest/delay-transaction/contracts/contracts/AccountStorage.sol",
  "compiler": {
    "name": "solc",
    "version": "0.8.0+commit.c7dfd78e.Emscripten.clang"
  },
  "schemaVersion": "3.3.3",
  "updatedAt": "2021-02-06T02:22:47.082Z",
  "devdoc": {
    "kind": "dev",
    "methods": {
      "account(address)": {
        "details": "To get all account profiles, use `for` loop for `profilesSize`      with `profile` method.",
        "params": {
          "accountAddress": "Address of account"
        },
        "returns": {
          "balance": "balance",
          "profilesSize": "profilesSize"
        }
      },
      "addProfile(address)": {
        "details": "Use `editProfile` to set profile details.       Throws if:       - Caller isn't account owner;",
        "params": {
          "accountAddress": "Address of account"
        }
      },
      "addProfileRole(address,uint256,address,uint8)": {
        "details": "Throws if:      - Caller isn't account owner;      - Profile at index doesn't exist;",
        "params": {
          "accountAddress": "Address of account",
          "profileIdx": "Profile index",
          "role": "`Roles` enum",
          "user": "User address"
        }
      },
      "editProfile(address,uint256,bytes32,uint8)": {
        "details": "Throws if:      - Caller isn't account owner;      - Profile at index doesn't exist;",
        "params": {
          "accountAddress": "Address of account",
          "consensusPercentage": "Consensus percentage 1-100",
          "profileIdx": "Profile index",
          "title": "Title in bytes32"
        }
      },
      "profile(address,uint256)": {
        "details": "Use `profilesSize` from `account` method response to get maximum      profile index.      To get all profile requesters/voters, use `for` loop for      `requstersSize`/`votersSize` with `profileRoleAt`.",
        "params": {
          "accountAddress": "Address of account",
          "profileIdx": "Profile index"
        },
        "returns": {
          "consensusPercentage": "consensusPercentage",
          "requstersSize": "requstersSize",
          "title": "title",
          "votersSize": "votersSize"
        }
      },
      "profileRoleAt(address,uint256,uint256,uint8)": {
        "details": "Use `requstersSize`/`votersSize` from `profile` response to get      max possible index.",
        "params": {
          "accountAddress": "Address of account",
          "profileIdx": "Profile index"
        },
        "returns": {
          "_0": "address"
        }
      },
      "removeProfile(address,uint256)": {
        "details": "Throws if:      - Caller isn't account owner;      - Profile at index doesn't exist;",
        "params": {
          "accountAddress": "Address of account",
          "profileIdx": "Profile index"
        }
      },
      "removeProfileRole(address,uint256,address,uint8)": {
        "details": "Throws if:      - Caller isn't account owner;      - Profile at index doesn't exist;",
        "params": {
          "accountAddress": "Address of account",
          "profileIdx": "Profile index",
          "role": "`Roles` enum",
          "user": "User address"
        }
      }
    },
    "title": "AccountStorage",
    "version": 1
  },
  "userdoc": {
    "kind": "user",
    "methods": {
      "account(address)": {
        "notice": "Get account balance and number of profiles."
      },
      "addProfile(address)": {
        "notice": "Add a new empty profile to account."
      },
      "addProfileRole(address,uint256,address,uint8)": {
        "notice": "Grant `role` permission for `user` in profile."
      },
      "editProfile(address,uint256,bytes32,uint8)": {
        "notice": "Edit profile details."
      },
      "profile(address,uint256)": {
        "notice": "Get profile details."
      },
      "profileRoleAt(address,uint256,uint256,uint8)": {
        "notice": "Get user address in roles array by index."
      },
      "removeProfile(address,uint256)": {
        "notice": "Removes profiles by index."
      },
      "removeProfileRole(address,uint256,address,uint8)": {
        "notice": "Revoke `role` permission for `user` in profile."
      }
    },
    "notice": "Provides interface for account balance and its profiles.",
    "version": 1
  }
}