{
  "contractName": "Hub",
  "abi": [
    {
      "inputs": [
        {
          "internalType": "address",
          "name": "accountAddress",
          "type": "address"
        }
      ],
      "name": "account",
      "outputs": [
        {
          "internalType": "uint256",
          "name": "balance",
          "type": "uint256"
        },
        {
          "internalType": "uint256",
          "name": "profilesSize",
          "type": "uint256"
        }
      ],
      "stateMutability": "view",
      "type": "function"
    },
    {
      "inputs": [
        {
          "internalType": "address",
          "name": "accountAddress",
          "type": "address"
        }
      ],
      "name": "addProfile",
      "outputs": [],
      "stateMutability": "nonpayable",
      "type": "function"
    },
    {
      "inputs": [
        {
          "internalType": "address",
          "name": "accountAddress",
          "type": "address"
        },
        {
          "internalType": "uint256",
          "name": "profileIdx",
          "type": "uint256"
        },
        {
          "internalType": "address",
          "name": "user",
          "type": "address"
        },
        {
          "internalType": "enum AccountStorage.Roles",
          "name": "role",
          "type": "uint8"
        }
      ],
      "name": "addProfileRole",
      "outputs": [],
      "stateMutability": "nonpayable",
      "type": "function"
    },
    {
      "inputs": [
        {
          "internalType": "address",
          "name": "accountAddress",
          "type": "address"
        },
        {
          "internalType": "uint256",
          "name": "profileIdx",
          "type": "uint256"
        },
        {
          "internalType": "bytes32",
          "name": "title",
          "type": "bytes32"
        },
        {
          "internalType": "uint8",
          "name": "consensusPercentage",
          "type": "uint8"
        }
      ],
      "name": "editProfile",
      "outputs": [],
      "stateMutability": "nonpayable",
      "type": "function"
    },
    {
      "inputs": [],
      "name": "lastUid",
      "outputs": [
        {
          "internalType": "uint256",
          "name": "",
          "type": "uint256"
        }
      ],
      "stateMutability": "view",
      "type": "function"
    },
    {
      "inputs": [
        {
          "internalType": "address",
          "name": "accountAddress",
          "type": "address"
        },
        {
          "internalType": "uint256",
          "name": "profileIdx",
          "type": "uint256"
        }
      ],
      "name": "profile",
      "outputs": [
        {
          "internalType": "bytes32",
          "name": "title",
          "type": "bytes32"
        },
        {
          "internalType": "uint8",
          "name": "consensusPercentage",
          "type": "uint8"
        },
        {
          "internalType": "uint256",
          "name": "requstersSize",
          "type": "uint256"
        },
        {
          "internalType": "uint256",
          "name": "votersSize",
          "type": "uint256"
        }
      ],
      "stateMutability": "view",
      "type": "function"
    },
    {
      "inputs": [
        {
          "internalType": "address",
          "name": "accountAddress",
          "type": "address"
        },
        {
          "internalType": "uint256",
          "name": "profileIdx",
          "type": "uint256"
        },
        {
          "internalType": "uint256",
          "name": "userIdx",
          "type": "uint256"
        },
        {
          "internalType": "enum AccountStorage.Roles",
          "name": "role",
          "type": "uint8"
        }
      ],
      "name": "profileRoleAt",
      "outputs": [
        {
          "internalType": "address",
          "name": "",
          "type": "address"
        }
      ],
      "stateMutability": "view",
      "type": "function"
    },
    {
      "inputs": [
        {
          "internalType": "address",
          "name": "accountAddress",
          "type": "address"
        },
        {
          "internalType": "uint256",
          "name": "profileIdx",
          "type": "uint256"
        }
      ],
      "name": "removeProfile",
      "outputs": [],
      "stateMutability": "nonpayable",
      "type": "function"
    },
    {
      "inputs": [
        {
          "internalType": "address",
          "name": "accountAddress",
          "type": "address"
        },
        {
          "internalType": "uint256",
          "name": "profileIdx",
          "type": "uint256"
        },
        {
          "internalType": "address",
          "name": "user",
          "type": "address"
        },
        {
          "internalType": "enum AccountStorage.Roles",
          "name": "role",
          "type": "uint8"
        }
      ],
      "name": "removeProfileRole",
      "outputs": [],
      "stateMutability": "nonpayable",
      "type": "function"
    },
    {
      "inputs": [
        {
          "internalType": "uint256",
          "name": "",
          "type": "uint256"
        }
      ],
      "name": "transactions",
      "outputs": [
        {
          "internalType": "address",
          "name": "account",
          "type": "address"
        },
        {
          "internalType": "address payable",
          "name": "to",
          "type": "address"
        },
        {
          "internalType": "uint256",
          "name": "amount",
          "type": "uint256"
        },
        {
          "internalType": "address",
          "name": "by",
          "type": "address"
        },
        {
          "internalType": "enum TransactionLib.TransactionStatuses",
          "name": "status",
          "type": "uint8"
        },
        {
          "internalType": "uint256",
          "name": "consensus",
          "type": "uint256"
        },
        {
          "internalType": "uint256",
          "name": "approvalCount",
          "type": "uint256"
        },
        {
          "internalType": "uint256",
          "name": "rejectCount",
          "type": "uint256"
        }
      ],
      "stateMutability": "view",
      "type": "function"
    },
    {
      "inputs": [
        {
          "internalType": "address",
          "name": "addr",
          "type": "address"
        },
        {
          "internalType": "uint256",
          "name": "idx",
          "type": "uint256"
        }
      ],
      "name": "txAt",
      "outputs": [
        {
          "internalType": "uint256",
          "name": "",
          "type": "uint256"
        }
      ],
      "stateMutability": "view",
      "type": "function"
    },
    {
      "inputs": [
        {
          "internalType": "address",
          "name": "addr",
          "type": "address"
        }
      ],
      "name": "txSize",
      "outputs": [
        {
          "internalType": "uint256",
          "name": "",
          "type": "uint256"
        }
      ],
      "stateMutability": "view",
      "type": "function"
    },
    {
      "inputs": [
        {
          "internalType": "uint256",
          "name": "txId",
          "type": "uint256"
        },
        {
          "internalType": "uint256",
          "name": "idx",
          "type": "uint256"
        }
      ],
      "name": "txVoterAt",
      "outputs": [
        {
          "internalType": "address",
          "name": "addr",
          "type": "address"
        },
        {
          "internalType": "enum TransactionLib.VoteStatuses",
          "name": "status",
          "type": "uint8"
        }
      ],
      "stateMutability": "view",
      "type": "function"
    },
    {
      "inputs": [
        {
          "internalType": "uint256",
          "name": "txId",
          "type": "uint256"
        }
      ],
      "name": "txVotersSize",
      "outputs": [
        {
          "internalType": "uint256",
          "name": "",
          "type": "uint256"
        }
      ],
      "stateMutability": "view",
      "type": "function"
    },
    {
      "stateMutability": "payable",
      "type": "receive"
    },
    {
      "inputs": [
        {
          "internalType": "address",
          "name": "accountAddress",
          "type": "address"
        },
        {
          "internalType": "uint256",
          "name": "profileIdx",
          "type": "uint256"
        },
        {
          "internalType": "uint256",
          "name": "amount",
          "type": "uint256"
        },
        {
          "internalType": "address payable",
          "name": "to",
          "type": "address"
        }
      ],
      "name": "addRequest",
      "outputs": [],
      "stateMutability": "nonpayable",
      "type": "function"
    },
    {
      "inputs": [
        {
          "internalType": "uint256",
          "name": "txId",
          "type": "uint256"
        },
        {
          "internalType": "enum TransactionLib.VoteStatuses",
          "name": "status",
          "type": "uint8"
        }
      ],
      "name": "vote",
      "outputs": [],
      "stateMutability": "nonpayable",
      "type": "function"
    },
    {
      "inputs": [
        {
          "internalType": "address",
          "name": "accountAddress",
          "type": "address"
        }
      ],
      "name": "receiveAmount",
      "outputs": [],
      "stateMutability": "payable",
      "type": "function"
    }
  ],
  "bytecode": "0x608060405234801561001057600080fd5b5061327c806100206000396000f3fe6080604052600436106101025760003560e01c8063573c700611610095578063943e821611610064578063943e8216146103965780639ace38c2146103bf5780639f153d4514610403578063b9b9c21e1461042c578063be3300361461044857610112565b8063573c7006146102b45780637094a5af146102f257806373b9aa911461031b57806390a6a4261461035957610112565b806311c90ddd116100d157806311c90ddd146101bd57806322122994146101fa5780633515ca47146102375780634064d09a1461027757610112565b806305b124e914610117578063060e36c814610140578063088f6d5e1461016957806310143a641461019457610112565b366101125761011033610471565b005b600080fd5b34801561012357600080fd5b5061013e60048036038101906101399190612908565b61054c565b005b34801561014c57600080fd5b50610167600480360381019061016291906128a5565b610d1f565b005b34801561017557600080fd5b5061017e610f46565b60405161018b9190612f33565b60405180910390f35b3480156101a057600080fd5b506101bb60048036038101906101b691906127b4565b610f4c565b005b3480156101c957600080fd5b506101e460048036038101906101df91906127b4565b611079565b6040516101f19190612f33565b60405180910390f35b34801561020657600080fd5b50610221600480360381019061021c919061296b565b6110c5565b60405161022e9190612cb1565b60405180910390f35b34801561024357600080fd5b5061025e60048036038101906102599190612806565b61130b565b60405161026e9493929190612d73565b60405180910390f35b34801561028357600080fd5b5061029e60048036038101906102999190612806565b611493565b6040516102ab9190612f33565b60405180910390f35b3480156102c057600080fd5b506102db60048036038101906102d69190612a5c565b6115fc565b6040516102e9929190612d4a565b60405180910390f35b3480156102fe57600080fd5b5061031960048036038101906103149190612842565b611777565b005b34801561032757600080fd5b50610342600480360381019061033d91906127b4565b611ace565b604051610350929190612f4e565b60405180910390f35b34801561036557600080fd5b50610380600480360381019061037b91906129f7565b611b5e565b60405161038d9190612f33565b60405180910390f35b3480156103a257600080fd5b506103bd60048036038101906103b89190612a20565b611b81565b005b3480156103cb57600080fd5b506103e660048036038101906103e191906129f7565b611e67565b6040516103fa989796959493929190612ccc565b60405180910390f35b34801561040f57600080fd5b5061042a60048036038101906104259190612842565b611f1c565b005b610446600480360381019061044191906127b4565b610471565b005b34801561045457600080fd5b5061046f600480360381019061046a9190612806565b612273565b005b806000808373ffffffffffffffffffffffffffffffffffffffff1673ffffffffffffffffffffffffffffffffffffffff16815260200190815260200160002060000160006101000a81548173ffffffffffffffffffffffffffffffffffffffff021916908373ffffffffffffffffffffffffffffffffffffffff160217905550346000808373ffffffffffffffffffffffffffffffffffffffff1673ffffffffffffffffffffffffffffffffffffffff16815260200190815260200160002060010160008282546105429190612f88565b9250508190555050565b838373__AddressStorageLib_____________________634ea1343f6000808573ffffffffffffffffffffffffffffffffffffffff1673ffffffffffffffffffffffffffffffffffffffff1681526020019081526020016000206003016000848152602001908152602001600020600101336040518363ffffffff1660e01b81526004016105db929190612e73565b60206040518083038186803b1580156105f357600080fd5b505af4158015610607573d6000803e3d6000fd5b505050506040513d601f19601f8201168201806040525081019061062b91906129ce565b61066a576040517f08c379a000000000000000000000000000000000000000000000000000000000815260040161066190612e38565b60405180910390fd5b836000808873ffffffffffffffffffffffffffffffffffffffff1673ffffffffffffffffffffffffffffffffffffffff1681526020019081526020016000206001015410156106ee576040517f08c379a00000000000000000000000000000000000000000000000000000000081526004016106e590612e18565b60405180910390fd5b836000808873ffffffffffffffffffffffffffffffffffffffff1673ffffffffffffffffffffffffffffffffffffffff168152602001908152602001600020600101600082825461073f9190612fde565b9250508190555060008060008873ffffffffffffffffffffffffffffffffffffffff1673ffffffffffffffffffffffffffffffffffffffff168152602001908152602001600020600301600087815260200190815260200160002060030160000190508660026000600354815260200190815260200160002060000160006101000a81548173ffffffffffffffffffffffffffffffffffffffff021916908373ffffffffffffffffffffffffffffffffffffffff16021790555084600260006003548152602001908152602001600020600201819055508360026000600354815260200190815260200160002060010160006101000a81548173ffffffffffffffffffffffffffffffffffffffff021916908373ffffffffffffffffffffffffffffffffffffffff1602179055503360026000600354815260200190815260200160002060030160006101000a81548173ffffffffffffffffffffffffffffffffffffffff021916908373ffffffffffffffffffffffffffffffffffffffff160217905550806002600060035481526020019081526020016000206005019080546108eb929190612688565b5073__TransactionLib________________________635fe874536002600060035481526020019081526020016000206003546000808c73ffffffffffffffffffffffffffffffffffffffff1673ffffffffffffffffffffffffffffffffffffffff16815260200190815260200160002060030160008b815260200190815260200160002060050160009054906101000a900460ff166040518463ffffffff1660e01b815260040161099f93929190612efc565b60006040518083038186803b1580156109b757600080fd5b505af41580156109cb573d6000803e3d6000fd5b5050505060005b8180549050811015610bc35760016002600060035481526020019081526020016000206004016000848481548110610a33577f4e487b7100000000000000000000000000000000000000000000000000000000600052603260045260246000fd5b9060005260206000200160009054906101000a900473ffffffffffffffffffffffffffffffffffffffff1673ffffffffffffffffffffffffffffffffffffffff1673ffffffffffffffffffffffffffffffffffffffff16815260200190815260200160002060006101000a81548160ff02191690836003811115610ae0577f4e487b7100000000000000000000000000000000000000000000000000000000600052602160045260246000fd5b021790555060016000838381548110610b22577f4e487b7100000000000000000000000000000000000000000000000000000000600052603260045260246000fd5b9060005260206000200160009054906101000a900473ffffffffffffffffffffffffffffffffffffffff1673ffffffffffffffffffffffffffffffffffffffff1673ffffffffffffffffffffffffffffffffffffffff16815260200190815260200160002060035490806001815401808255809150506001900390600052602060002001600090919091909150558080610bbb906130cd565b9150506109d2565b50600160003373ffffffffffffffffffffffffffffffffffffffff1673ffffffffffffffffffffffffffffffffffffffff1681526020019081526020016000206003549080600181540180825580915050600190039060005260206000200160009091909190915055600160008573ffffffffffffffffffffffffffffffffffffffff1673ffffffffffffffffffffffffffffffffffffffff1681526020019081526020016000206003549080600181540180825580915050600190039060005260206000200160009091909190915055600160008873ffffffffffffffffffffffffffffffffffffffff1673ffffffffffffffffffffffffffffffffffffffff1681526020019081526020016000206003549080600181540180825580915050600190039060005260206000200160009091909190915055600160036000828254610d0f9190612f88565b9250508190555050505050505050565b836000808273ffffffffffffffffffffffffffffffffffffffff1673ffffffffffffffffffffffffffffffffffffffff16815260200190815260200160002060000160009054906101000a900473ffffffffffffffffffffffffffffffffffffffff1673ffffffffffffffffffffffffffffffffffffffff163373ffffffffffffffffffffffffffffffffffffffff1614610def576040517f08c379a0000000000000000000000000000000000000000000000000000000008152600401610de690612e38565b60405180910390fd5b84846000808373ffffffffffffffffffffffffffffffffffffffff1673ffffffffffffffffffffffffffffffffffffffff16815260200190815260200160002060020154811115610e75576040517f08c379a0000000000000000000000000000000000000000000000000000000008152600401610e6c90612dd8565b60405180910390fd5b846000808973ffffffffffffffffffffffffffffffffffffffff1673ffffffffffffffffffffffffffffffffffffffff168152602001908152602001600020600301600088815260200190815260200160002060000181905550836000808973ffffffffffffffffffffffffffffffffffffffff1673ffffffffffffffffffffffffffffffffffffffff168152602001908152602001600020600301600088815260200190815260200160002060050160006101000a81548160ff021916908360ff16021790555050505050505050565b60035481565b806000808273ffffffffffffffffffffffffffffffffffffffff1673ffffffffffffffffffffffffffffffffffffffff16815260200190815260200160002060000160009054906101000a900473ffffffffffffffffffffffffffffffffffffffff1673ffffffffffffffffffffffffffffffffffffffff163373ffffffffffffffffffffffffffffffffffffffff161461101c576040517f08c379a000000000000000000000000000000000000000000000000000000000815260040161101390612e38565b60405180910390fd5b60016000808473ffffffffffffffffffffffffffffffffffffffff1673ffffffffffffffffffffffffffffffffffffffff168152602001908152602001600020600201600082825461106e9190612f88565b925050819055505050565b6000600160008373ffffffffffffffffffffffffffffffffffffffff1673ffffffffffffffffffffffffffffffffffffffff168152602001908152602001600020805490509050919050565b6000600180811115611100577f4e487b7100000000000000000000000000000000000000000000000000000000600052602160045260246000fd5b826001811115611139577f4e487b7100000000000000000000000000000000000000000000000000000000600052602160045260246000fd5b14156112235773__AddressStorageLib_____________________630ba06cb26000808873ffffffffffffffffffffffffffffffffffffffff1673ffffffffffffffffffffffffffffffffffffffff1681526020019081526020016000206003016000878152602001908152602001600020600301856040518363ffffffff1660e01b81526004016111cc929190612e9c565b60206040518083038186803b1580156111e457600080fd5b505af41580156111f8573d6000803e3d6000fd5b505050506040513d601f19601f8201168201806040525081019061121c91906127dd565b9050611303565b73__AddressStorageLib_____________________630ba06cb26000808873ffffffffffffffffffffffffffffffffffffffff1673ffffffffffffffffffffffffffffffffffffffff1681526020019081526020016000206003016000878152602001908152602001600020600101856040518363ffffffff1660e01b81526004016112b0929190612e9c565b60206040518083038186803b1580156112c857600080fd5b505af41580156112dc573d6000803e3d6000fd5b505050506040513d601f19601f8201168201806040525081019061130091906127dd565b90505b949350505050565b6000806000806000808773ffffffffffffffffffffffffffffffffffffffff1673ffffffffffffffffffffffffffffffffffffffff1681526020019081526020016000206003016000868152602001908152602001600020600001546000808873ffffffffffffffffffffffffffffffffffffffff1673ffffffffffffffffffffffffffffffffffffffff168152602001908152602001600020600301600087815260200190815260200160002060050160009054906101000a900460ff166000808973ffffffffffffffffffffffffffffffffffffffff1673ffffffffffffffffffffffffffffffffffffffff1681526020019081526020016000206003016000888152602001908152602001600020600101600001805490506000808a73ffffffffffffffffffffffffffffffffffffffff1673ffffffffffffffffffffffffffffffffffffffff168152602001908152602001600020600301600089815260200190815260200160002060030160000180549050935093509350935092959194509250565b600080600160008573ffffffffffffffffffffffffffffffffffffffff1673ffffffffffffffffffffffffffffffffffffffff16815260200190815260200160002080549050118015611533575060018060008573ffffffffffffffffffffffffffffffffffffffff1673ffffffffffffffffffffffffffffffffffffffff1681526020019081526020016000208054905061152f9190612fde565b8211155b611572576040517f08c379a000000000000000000000000000000000000000000000000000000000815260040161156990612db8565b60405180910390fd5b600160008473ffffffffffffffffffffffffffffffffffffffff1673ffffffffffffffffffffffffffffffffffffffff16815260200190815260200160002082815481106115e9577f4e487b7100000000000000000000000000000000000000000000000000000000600052603260045260246000fd5b9060005260206000200154905092915050565b6000806000600260008681526020019081526020016000206005018054905011801561164d5750600160026000868152602001908152602001600020600501805490506116499190612fde565b8311155b61168c576040517f08c379a000000000000000000000000000000000000000000000000000000000815260040161168390612df8565b60405180910390fd5b60006002600086815260200190815260200160002060050184815481106116dc577f4e487b7100000000000000000000000000000000000000000000000000000000600052603260045260246000fd5b9060005260206000200160009054906101000a900473ffffffffffffffffffffffffffffffffffffffff169050806002600087815260200190815260200160002060040160008373ffffffffffffffffffffffffffffffffffffffff1673ffffffffffffffffffffffffffffffffffffffff16815260200190815260200160002060009054906101000a900460ff1692509250509250929050565b836000808273ffffffffffffffffffffffffffffffffffffffff1673ffffffffffffffffffffffffffffffffffffffff16815260200190815260200160002060000160009054906101000a900473ffffffffffffffffffffffffffffffffffffffff1673ffffffffffffffffffffffffffffffffffffffff163373ffffffffffffffffffffffffffffffffffffffff1614611847576040517f08c379a000000000000000000000000000000000000000000000000000000000815260040161183e90612e38565b60405180910390fd5b84846000808373ffffffffffffffffffffffffffffffffffffffff1673ffffffffffffffffffffffffffffffffffffffff168152602001908152602001600020600201548111156118cd576040517f08c379a00000000000000000000000000000000000000000000000000000000081526004016118c490612dd8565b60405180910390fd5b600180811115611906577f4e487b7100000000000000000000000000000000000000000000000000000000600052602160045260246000fd5b84600181111561193f577f4e487b7100000000000000000000000000000000000000000000000000000000600052602160045260246000fd5b1415611a075773__AddressStorageLib_____________________63b817d8566000808a73ffffffffffffffffffffffffffffffffffffffff1673ffffffffffffffffffffffffffffffffffffffff1681526020019081526020016000206003016000898152602001908152602001600020600301876040518363ffffffff1660e01b81526004016119d2929190612e73565b60006040518083038186803b1580156119ea57600080fd5b505af41580156119fe573d6000803e3d6000fd5b50505050611ac5565b73__AddressStorageLib_____________________63b817d8566000808a73ffffffffffffffffffffffffffffffffffffffff1673ffffffffffffffffffffffffffffffffffffffff1681526020019081526020016000206003016000898152602001908152602001600020600101876040518363ffffffff1660e01b8152600401611a94929190612e73565b60006040518083038186803b158015611aac57600080fd5b505af4158015611ac0573d6000803e3d6000fd5b505050505b50505050505050565b6000806000808473ffffffffffffffffffffffffffffffffffffffff1673ffffffffffffffffffffffffffffffffffffffff168152602001908152602001600020600101546000808573ffffffffffffffffffffffffffffffffffffffff1673ffffffffffffffffffffffffffffffffffffffff1681526020019081526020016000206002015491509150915091565b600060026000838152602001908152602001600020600501805490509050919050565b73__TransactionLib________________________63c36e3eea6002600085815260200190815260200160002084846040518463ffffffff1660e01b8152600401611bce93929190612ec5565b60006040518083038186803b158015611be657600080fd5b505af4158015611bfa573d6000803e3d6000fd5b5050505060006002600084815260200190815260200160002060020154905060026003811115611c53577f4e487b7100000000000000000000000000000000000000000000000000000000600052602160045260246000fd5b6002600085815260200190815260200160002060030160149054906101000a900460ff166003811115611caf577f4e487b7100000000000000000000000000000000000000000000000000000000600052602160045260246000fd5b1415611d37576002600084815260200190815260200160002060010160009054906101000a900473ffffffffffffffffffffffffffffffffffffffff1673ffffffffffffffffffffffffffffffffffffffff166108fc829081150290604051600060405180830381858888f19350505050158015611d31573d6000803e3d6000fd5b50611e62565b600380811115611d70577f4e487b7100000000000000000000000000000000000000000000000000000000600052602160045260246000fd5b6002600085815260200190815260200160002060030160149054906101000a900460ff166003811115611dcc577f4e487b7100000000000000000000000000000000000000000000000000000000600052602160045260246000fd5b1415611e6157806000806002600087815260200190815260200160002060000160009054906101000a900473ffffffffffffffffffffffffffffffffffffffff1673ffffffffffffffffffffffffffffffffffffffff1673ffffffffffffffffffffffffffffffffffffffff1681526020019081526020016000206001016000828254611e599190612f88565b925050819055505b5b505050565b60026020528060005260406000206000915090508060000160009054906101000a900473ffffffffffffffffffffffffffffffffffffffff16908060010160009054906101000a900473ffffffffffffffffffffffffffffffffffffffff16908060020154908060030160009054906101000a900473ffffffffffffffffffffffffffffffffffffffff16908060030160149054906101000a900460ff16908060060154908060070154908060080154905088565b836000808273ffffffffffffffffffffffffffffffffffffffff1673ffffffffffffffffffffffffffffffffffffffff16815260200190815260200160002060000160009054906101000a900473ffffffffffffffffffffffffffffffffffffffff1673ffffffffffffffffffffffffffffffffffffffff163373ffffffffffffffffffffffffffffffffffffffff1614611fec576040517f08c379a0000000000000000000000000000000000000000000000000000000008152600401611fe390612e38565b60405180910390fd5b84846000808373ffffffffffffffffffffffffffffffffffffffff1673ffffffffffffffffffffffffffffffffffffffff16815260200190815260200160002060020154811115612072576040517f08c379a000000000000000000000000000000000000000000000000000000000815260040161206990612dd8565b60405180910390fd5b6001808111156120ab577f4e487b7100000000000000000000000000000000000000000000000000000000600052602160045260246000fd5b8460018111156120e4577f4e487b7100000000000000000000000000000000000000000000000000000000600052602160045260246000fd5b14156121ac5773__AddressStorageLib_____________________6371bd1b346000808a73ffffffffffffffffffffffffffffffffffffffff1673ffffffffffffffffffffffffffffffffffffffff1681526020019081526020016000206003016000898152602001908152602001600020600301876040518363ffffffff1660e01b8152600401612177929190612e73565b60006040518083038186803b15801561218f57600080fd5b505af41580156121a3573d6000803e3d6000fd5b5050505061226a565b73__AddressStorageLib_____________________6371bd1b346000808a73ffffffffffffffffffffffffffffffffffffffff1673ffffffffffffffffffffffffffffffffffffffff1681526020019081526020016000206003016000898152602001908152602001600020600101876040518363ffffffff1660e01b8152600401612239929190612e73565b60006040518083038186803b15801561225157600080fd5b505af4158015612265573d6000803e3d6000fd5b505050505b50505050505050565b816000808273ffffffffffffffffffffffffffffffffffffffff1673ffffffffffffffffffffffffffffffffffffffff16815260200190815260200160002060000160009054906101000a900473ffffffffffffffffffffffffffffffffffffffff1673ffffffffffffffffffffffffffffffffffffffff163373ffffffffffffffffffffffffffffffffffffffff1614612343576040517f08c379a000000000000000000000000000000000000000000000000000000000815260040161233a90612e38565b60405180910390fd5b82826000808373ffffffffffffffffffffffffffffffffffffffff1673ffffffffffffffffffffffffffffffffffffffff168152602001908152602001600020600201548111156123c9576040517f08c379a00000000000000000000000000000000000000000000000000000000081526004016123c090612dd8565b60405180910390fd5b73__AddressStorageLib_____________________6380abfdeb6000808873ffffffffffffffffffffffffffffffffffffffff1673ffffffffffffffffffffffffffffffffffffffff16815260200190815260200160002060030160008781526020019081526020016000206001016040518263ffffffff1660e01b81526004016124549190612e58565b60006040518083038186803b15801561246c57600080fd5b505af4158015612480573d6000803e3d6000fd5b5050505073__AddressStorageLib_____________________6380abfdeb6000808873ffffffffffffffffffffffffffffffffffffffff1673ffffffffffffffffffffffffffffffffffffffff16815260200190815260200160002060030160008781526020019081526020016000206003016040518263ffffffff1660e01b815260040161250f9190612e58565b60006040518083038186803b15801561252757600080fd5b505af415801561253b573d6000803e3d6000fd5b5050505060008060008773ffffffffffffffffffffffffffffffffffffffff1673ffffffffffffffffffffffffffffffffffffffff168152602001908152602001600020600301600086815260200190815260200160002060050160006101000a81548160ff021916908360ff1602179055507f30783030000000000000000000000000000000000000000000000000000000006000808773ffffffffffffffffffffffffffffffffffffffff1673ffffffffffffffffffffffffffffffffffffffff16815260200190815260200160002060030160008681526020019081526020016000206000018190555060016000808773ffffffffffffffffffffffffffffffffffffffff1673ffffffffffffffffffffffffffffffffffffffff168152602001908152602001600020600201600082825461267a9190612fde565b925050819055505050505050565b8280548282559060005260206000209081019282156126c95760005260206000209182015b828111156126c85782548255916001019190600101906126ad565b5b5090506126d691906126da565b5090565b5b808211156126f35760008160009055506001016126db565b5090565b6000813590506127068161319c565b92915050565b60008151905061271b8161319c565b92915050565b600081359050612730816131b3565b92915050565b600081519050612745816131ca565b92915050565b60008135905061275a816131e1565b92915050565b60008135905061276f816131f8565b92915050565b60008135905061278481613208565b92915050565b60008135905061279981613218565b92915050565b6000813590506127ae8161322f565b92915050565b6000602082840312156127c657600080fd5b60006127d4848285016126f7565b91505092915050565b6000602082840312156127ef57600080fd5b60006127fd8482850161270c565b91505092915050565b6000806040838503121561281957600080fd5b6000612827858286016126f7565b92505060206128388582860161278a565b9150509250929050565b6000806000806080858703121561285857600080fd5b6000612866878288016126f7565b94505060206128778782880161278a565b9350506040612888878288016126f7565b925050606061289987828801612760565b91505092959194509250565b600080600080608085870312156128bb57600080fd5b60006128c9878288016126f7565b94505060206128da8782880161278a565b93505060406128eb8782880161274b565b92505060606128fc8782880161279f565b91505092959194509250565b6000806000806080858703121561291e57600080fd5b600061292c878288016126f7565b945050602061293d8782880161278a565b935050604061294e8782880161278a565b925050606061295f87828801612721565b91505092959194509250565b6000806000806080858703121561298157600080fd5b600061298f878288016126f7565b94505060206129a08782880161278a565b93505060406129b18782880161278a565b92505060606129c287828801612760565b91505092959194509250565b6000602082840312156129e057600080fd5b60006129ee84828501612736565b91505092915050565b600060208284031215612a0957600080fd5b6000612a178482850161278a565b91505092915050565b60008060408385031215612a3357600080fd5b6000612a418582860161278a565b9250506020612a5285828601612775565b9150509250929050565b60008060408385031215612a6f57600080fd5b6000612a7d8582860161278a565b9250506020612a8e8582860161278a565b9150509250929050565b612aa181613024565b82525050565b612ab081613012565b82525050565b612abf81613012565b82525050565b612ace81613042565b82525050565b612add816130a9565b82525050565b612aec816130bb565b82525050565b612afb816130bb565b82525050565b6000612b0e602283612f77565b91507f5472616e73616374696f6e20617420696e64657820646f65736e27742065786960008301527f73740000000000000000000000000000000000000000000000000000000000006020830152604082019050919050565b6000612b74601583612f77565b91507f50726f66696c6520646f65736e277420657869737400000000000000000000006000830152602082019050919050565b6000612bb4601c83612f77565b91507f566f74657220617420696e64657820646f65736e2774206578697374000000006000830152602082019050919050565b6000612bf4601583612f77565b91507f496e73756666696369656e742062616c616e63652e00000000000000000000006000830152602082019050919050565b6000612c34601283612f77565b91507f5065726d697373696f6e2064656e6965642e00000000000000000000000000006000830152602082019050919050565b8082525050565b8082525050565b612c7e81613092565b82525050565b612c8d81613092565b82525050565b612c9c8161309c565b82525050565b612cab8161309c565b82525050565b6000602082019050612cc66000830184612aa7565b92915050565b600061010082019050612ce2600083018b612aa7565b612cef602083018a612a98565b612cfc6040830189612c75565b612d096060830188612aa7565b612d166080830187612ad4565b612d2360a0830186612c75565b612d3060c0830185612c75565b612d3d60e0830184612c75565b9998505050505050505050565b6000604082019050612d5f6000830185612aa7565b612d6c6020830184612ae3565b9392505050565b6000608082019050612d886000830187612ac5565b612d956020830186612c93565b612da26040830185612c75565b612daf6060830184612c75565b95945050505050565b60006020820190508181036000830152612dd181612b01565b9050919050565b60006020820190508181036000830152612df181612b67565b9050919050565b60006020820190508181036000830152612e1181612ba7565b9050919050565b60006020820190508181036000830152612e3181612be7565b9050919050565b60006020820190508181036000830152612e5181612c27565b9050919050565b6000602082019050612e6d6000830184612c67565b92915050565b6000604082019050612e886000830185612c67565b612e956020830184612ab6565b9392505050565b6000604082019050612eb16000830185612c67565b612ebe6020830184612c84565b9392505050565b6000606082019050612eda6000830186612c6e565b612ee76020830185612c84565b612ef46040830184612af2565b949350505050565b6000606082019050612f116000830186612c6e565b612f1e6020830185612c84565b612f2b6040830184612ca2565b949350505050565b6000602082019050612f486000830184612c75565b92915050565b6000604082019050612f636000830185612c75565b612f706020830184612c75565b9392505050565b600082825260208201905092915050565b6000612f9382613092565b9150612f9e83613092565b9250827fffffffffffffffffffffffffffffffffffffffffffffffffffffffffffffffff03821115612fd357612fd2613116565b5b828201905092915050565b6000612fe982613092565b9150612ff483613092565b92508282101561300757613006613116565b5b828203905092915050565b600061301d82613072565b9050919050565b600061302f82613072565b9050919050565b60008115159050919050565b6000819050919050565b600081905061305a82613174565b919050565b600081905061306d82613188565b919050565b600073ffffffffffffffffffffffffffffffffffffffff82169050919050565b6000819050919050565b600060ff82169050919050565b60006130b48261304c565b9050919050565b60006130c68261305f565b9050919050565b60006130d882613092565b91507fffffffffffffffffffffffffffffffffffffffffffffffffffffffffffffffff82141561310b5761310a613116565b5b600182019050919050565b7f4e487b7100000000000000000000000000000000000000000000000000000000600052601160045260246000fd5b7f4e487b7100000000000000000000000000000000000000000000000000000000600052602160045260246000fd5b6004811061318557613184613145565b5b50565b6004811061319957613198613145565b5b50565b6131a581613012565b81146131b057600080fd5b50565b6131bc81613024565b81146131c757600080fd5b50565b6131d381613036565b81146131de57600080fd5b50565b6131ea81613042565b81146131f557600080fd5b50565b6002811061320557600080fd5b50565b6004811061321557600080fd5b50565b61322181613092565b811461322c57600080fd5b50565b6132388161309c565b811461324357600080fd5b5056fea2646970667358221220b096c29c495fd87cc5b748c22477600b20eb9b370c8e4683c44ed46f435bc44864736f6c63430008000033",
  "immutableReferences": {},
  "source": "// SPDX-License-Identifier: GPL-3.0\npragma solidity >=0.6.0 <0.9.0;\n\nimport \"./AccountStorage.sol\";\nimport \"./TransactionStorage.sol\";\nimport \"./TransactionLib.sol\";\n\n/**\n * @title Hub\n * @notice Hub that keeps account money. User can create a request to perform\n *     a transaction from account, but transaction will be performed only\n *     when voters approve it.\n *     Hub, for example, may be used for:\n *     - Simple consolidated account;\n *     - Processing request by oracles, eg:\n *         - Delay transaction: transaction is approved by oracle when gas\n *             price decreases to the desirable.\n *         - Safety processor: transaction is approved by oracle after it\n *             validates request destination safety (eg no suspicios activity\n *             recently, address is not envolved in any hack operations, etc)\n *     Transaction requests are created according to profiles in accont,\n *     describing who can send request, who should vote and percentage of\n *     approvale required to transaction approval.\n * @dev Logic of transaction request:\n *      - Transaction is made accoding to profile with `addRequest` method;\n *      - Only user with `requester` role in profile;\n *      - When transaction request is created:\n *          - account balance is reduced by `amount`;\n *          - voters are copied from profile to transaction;\n *          - voters consensus number is calculated acording to profile\n *            `consensusPercentage` and voters size.\n *            Number is rounded up: `26%` of `4` gives `2`;\n *          - transaction id is added to `transactionsByAddress` for `account`,\n *              `requester`, `to` and all voters, so any participant can get\n *              list of related transactions by `txSize`/`txAt` methods.\n *      - Each voter can vote only once with `vote` method. Voter - address that\n *        is saved in transaction voters list, doesn't matter if it was removed\n *        from profile or added after transaction;\n *      - Voting is possible only while transaction is in\n *        `TransactionLib.TransactionStatuses.PENDING` status.\n *      - As soon as `consensus` number of voters have made their vote,\n *        transaction status is changed to\n *        `TransactionLib.TransactionStatuses.APPROVED` or\n *        `TransactionLib.TransactionStatuses.REJECTED`.\n *      - If all voters made their voting without consensus, transaction status\n *        is changed to `REJECTED`;\n *      - As soon as transaction status has been changed to `APPROVED`,\n *        requested amount is transfered to requested distination address.\n *      - As soon as transaction status has been changed to `REJECTED`,\n *        blocked amount is returned to account balance.\n *\n *  TBD: withdraw money blocked by transaction request back to account balance\n *      when consensus wasn't reached during some timeout time\n *  TBD: Calculate `consensus is impossible` situation as soon as it become\n *      clear (eg consensus requires 3/5 approve and 3 voters already rejected\n *      it), not when all votes have been made.\n */\ncontract Hub is AccountStorage, TransactionStorage {\n\n    /// @notice Refill account. Account address in hub matches user address.\n    receive() external payable {\n        receiveAmount(msg.sender);\n    }\n\n    /**\n     * @notice Send transaction request from `accountAddress` to `to`\n     *      according to `profileIdx` profile\n     * @dev Throws if:\n     *      - User doesn't have `requester` permissions for profile;\n     *      - Account doesn't have sufficient balance;\n     *      - Profile `voters` is empty array;\n     *      - Profile `consensusPersentage` is 0;\n     *      Events:\n     *      - TransactionRequest (from TransactionLib);\n     * @param accountAddress Account address in Hub\n     * @param profileIdx Profile idx according to which transaction request is\n     *        made - who are voters of this transaction and what is consensus %\n     * @param amount Amount to send\n     * @param to Payable address of money reciever\n     */\n    function addRequest(\n        address accountAddress,\n        uint profileIdx,\n        uint amount,\n        address payable to\n    )\n        external\n        requireProfileRequester(accountAddress, profileIdx)\n    {\n        require(\n            accounts[accountAddress].balance >= amount,\n            \"Insufficient balance.\"\n        );\n        accounts[accountAddress].balance -= amount;\n\n        address[] storage voters =\n            accounts[accountAddress].profiles[profileIdx].voters.keys;\n        transactions[lastUid].account = accountAddress;\n        transactions[lastUid].amount = amount;\n        transactions[lastUid].to = to;\n        transactions[lastUid].by = msg.sender;\n        transactions[lastUid].voters = voters;\n\n        TransactionLib.add(\n            transactions[lastUid],\n            lastUid,\n            accounts[accountAddress].profiles[profileIdx].consensusPercentage\n        );\n\n        for (uint i = 0; i < voters.length; i++) {\n            transactions[lastUid].voterStatuses[voters[i]] = TransactionLib.VoteStatuses.PENDING;\n            transactionsByAddress[voters[i]].push(lastUid);\n        }\n\n        transactionsByAddress[msg.sender].push(lastUid);\n        transactionsByAddress[to].push(lastUid);\n        transactionsByAddress[accountAddress].push(lastUid);\n        lastUid += 1;\n    }\n\n    /**\n     * @notice Vote for transaction with status.\n     * @dev Throws if:\n     *      - User doesn't have `voter` permissions for transaction;\n     *      - User has already made a vote for transaction;\n     *      - User tryies to vote with `UNSET` value.\n     *      - Voting for transaction is closed (transaction status is\n     *        APPROVED/REJECTED).\n     *      Events:\n     *      - TransactionVote (from TransactionLib);\n     *      - TransactionResponse (from TransactionLib);\n     * @param txId Transacyion id\n     * @param status `TransactionLib.VoteStatuses` enum\n     */\n    function vote(uint txId, TransactionLib.VoteStatuses status) external {\n        TransactionLib.vote(transactions[txId], txId, status);\n        uint amount = transactions[txId].amount;\n        if (transactions[txId].status == TransactionLib.TransactionStatuses.APPROVED) {\n            transactions[txId].to.transfer(amount);\n        }\n        else if (transactions[txId].status == TransactionLib.TransactionStatuses.REJECTED) {\n            // In case of rejection - return money back to account\n            accounts[transactions[txId].account].balance += amount;\n        }\n    }\n\n    /**\n     * @notice Add money to `accountAddress` account.\n     * @param accountAddress Address of account in Hub\n     */\n    function receiveAmount (address accountAddress) public payable {\n        accounts[accountAddress].owner = accountAddress;\n        accounts[accountAddress].balance += msg.value;\n    }\n\n}",
  "sourcePath": "/Users/kunla/etest/delay-transaction/contracts/contracts/Hub.sol",
  "compiler": {
    "name": "solc",
    "version": "0.8.0+commit.c7dfd78e.Emscripten.clang"
  },
  "schemaVersion": "3.3.3",
  "updatedAt": "2021-02-06T01:04:01.417Z",
  "devdoc": {
    "details": "Logic of transaction request:      - Transaction is made accoding to profile with `addRequest` method;      - Only user with `requester` role in profile;      - When transaction request is created:          - account balance is reduced by `amount`;          - voters are copied from profile to transaction;          - voters consensus number is calculated acording to profile            `consensusPercentage` and voters size.            Number is rounded up: `26%` of `4` gives `2`;          - transaction id is added to `transactionsByAddress` for `account`,              `requester`, `to` and all voters, so any participant can get              list of related transactions by `txSize`/`txAt` methods.      - Each voter can vote only once with `vote` method. Voter - address that        is saved in transaction voters list, doesn't matter if it was removed        from profile or added after transaction;      - Voting is possible only while transaction is in        `TransactionLib.TransactionStatuses.PENDING` status.      - As soon as `consensus` number of voters have made their vote,        transaction status is changed to        `TransactionLib.TransactionStatuses.APPROVED` or        `TransactionLib.TransactionStatuses.REJECTED`.      - If all voters made their voting without consensus, transaction status        is changed to `REJECTED`;      - As soon as transaction status has been changed to `APPROVED`,        requested amount is transfered to requested distination address.      - As soon as transaction status has been changed to `REJECTED`,        blocked amount is returned to account balance.  TBD: withdraw money blocked by transaction request back to account balance      when consensus wasn't reached during some timeout time  TBD: Calculate `consensus is impossible` situation as soon as it become      clear (eg consensus requires 3/5 approve and 3 voters already rejected      it), not when all votes have been made.",
    "kind": "dev",
    "methods": {
      "account(address)": {
        "details": "To get all account profiles, use `for` loop for `profilesSize`      with `profile` method.",
        "params": {
          "accountAddress": "Address of account"
        },
        "returns": {
          "balance": "balance",
          "profilesSize": "profilesSize"
        }
      },
      "addProfile(address)": {
        "details": "Use `editProfile` to set profile details.       Throws if:       - Caller isn't account owner;",
        "params": {
          "accountAddress": "Address of account"
        }
      },
      "addProfileRole(address,uint256,address,uint8)": {
        "details": "Throws if:      - Caller isn't account owner;      - Profile at index doesn't exist;",
        "params": {
          "accountAddress": "Address of account",
          "profileIdx": "Profile index",
          "role": "`Roles` enum",
          "user": "User address"
        }
      },
      "addRequest(address,uint256,uint256,address)": {
        "details": "Throws if:      - User doesn't have `requester` permissions for profile;      - Account doesn't have sufficient balance;      - Profile `voters` is empty array;      - Profile `consensusPersentage` is 0;      Events:      - TransactionRequest (from TransactionLib);",
        "params": {
          "accountAddress": "Account address in Hub",
          "amount": "Amount to send",
          "profileIdx": "Profile idx according to which transaction request is        made - who are voters of this transaction and what is consensus %",
          "to": "Payable address of money reciever"
        }
      },
      "editProfile(address,uint256,bytes32,uint8)": {
        "details": "Throws if:      - Caller isn't account owner;      - Profile at index doesn't exist;",
        "params": {
          "accountAddress": "Address of account",
          "consensusPercentage": "Consensus percentage 1-100",
          "profileIdx": "Profile index",
          "title": "Title in bytes32"
        }
      },
      "profile(address,uint256)": {
        "details": "Use `profilesSize` from `account` method response to get maximum      profile index.      To get all profile requesters/voters, use `for` loop for      `requstersSize`/`votersSize` with `profileRoleAt`.",
        "params": {
          "accountAddress": "Address of account",
          "profileIdx": "Profile index"
        },
        "returns": {
          "consensusPercentage": "consensusPercentage",
          "requstersSize": "requstersSize",
          "title": "title",
          "votersSize": "votersSize"
        }
      },
      "profileRoleAt(address,uint256,uint256,uint8)": {
        "details": "Use `requstersSize`/`votersSize` from `profile` response to get      max possible index.",
        "params": {
          "accountAddress": "Address of account",
          "profileIdx": "Profile index"
        },
        "returns": {
          "_0": "address"
        }
      },
      "receiveAmount(address)": {
        "params": {
          "accountAddress": "Address of account in Hub"
        }
      },
      "removeProfile(address,uint256)": {
        "details": "Throws if:      - Caller isn't account owner;      - Profile at index doesn't exist;",
        "params": {
          "accountAddress": "Address of account",
          "profileIdx": "Profile index"
        }
      },
      "removeProfileRole(address,uint256,address,uint8)": {
        "details": "Throws if:      - Caller isn't account owner;      - Profile at index doesn't exist;",
        "params": {
          "accountAddress": "Address of account",
          "profileIdx": "Profile index",
          "role": "`Roles` enum",
          "user": "User address"
        }
      },
      "txAt(address,uint256)": {
        "details": "Use `transactions` method to get transaction details.",
        "params": {
          "addr": "User address",
          "idx": "Transaction index in user transactions array"
        },
        "returns": {
          "_0": "uint Transaction id."
        }
      },
      "txSize(address)": {
        "details": "Use `for` loop and `txAt` method to get all user related      transaction ids.",
        "params": {
          "addr": "User address"
        },
        "returns": {
          "_0": "uint"
        }
      },
      "txVoterAt(uint256,uint256)": {
        "params": {
          "idx": "Voter index in transaction voters array.",
          "txId": "Transaction id"
        },
        "returns": {
          "addr": "Voter address",
          "status": "`TransactionLib.VoteStatuses` enum"
        }
      },
      "txVotersSize(uint256)": {
        "details": "Use `for` loop and `txVoterAt` method to get all transaction voters.",
        "params": {
          "txId": "Transaction id"
        },
        "returns": {
          "_0": "uint"
        }
      },
      "vote(uint256,uint8)": {
        "details": "Throws if:      - User doesn't have `voter` permissions for transaction;      - User has already made a vote for transaction;      - User tryies to vote with `UNSET` value.      - Voting for transaction is closed (transaction status is        APPROVED/REJECTED).      Events:      - TransactionVote (from TransactionLib);      - TransactionResponse (from TransactionLib);",
        "params": {
          "status": "`TransactionLib.VoteStatuses` enum",
          "txId": "Transacyion id"
        }
      }
    },
    "title": "Hub",
    "version": 1
  },
  "userdoc": {
    "kind": "user",
    "methods": {
      "account(address)": {
        "notice": "Get account balance and number of profiles."
      },
      "addProfile(address)": {
        "notice": "Add a new empty profile to account."
      },
      "addProfileRole(address,uint256,address,uint8)": {
        "notice": "Grant `role` permission for `user` in profile."
      },
      "addRequest(address,uint256,uint256,address)": {
        "notice": "Send transaction request from `accountAddress` to `to`      according to `profileIdx` profile"
      },
      "editProfile(address,uint256,bytes32,uint8)": {
        "notice": "Edit profile details."
      },
      "profile(address,uint256)": {
        "notice": "Get profile details."
      },
      "profileRoleAt(address,uint256,uint256,uint8)": {
        "notice": "Get user address in roles array by index."
      },
      "receiveAmount(address)": {
        "notice": "Add money to `accountAddress` account."
      },
      "removeProfile(address,uint256)": {
        "notice": "Removes profiles by index."
      },
      "removeProfileRole(address,uint256,address,uint8)": {
        "notice": "Revoke `role` permission for `user` in profile."
      },
      "txAt(address,uint256)": {
        "notice": "Get user transaction at index"
      },
      "txSize(address)": {
        "notice": "Get size of user related transactions."
      },
      "txVoterAt(uint256,uint256)": {
        "notice": "Get transaction voter info by voter index."
      },
      "txVotersSize(uint256)": {
        "notice": "Get size of transaction voters."
      },
      "vote(uint256,uint8)": {
        "notice": "Vote for transaction with status."
      }
    },
    "notice": "Hub that keeps account money. User can create a request to perform     a transaction from account, but transaction will be performed only     when voters approve it.     Hub, for example, may be used for:     - Simple consolidated account;     - Processing request by oracles, eg:         - Delay transaction: transaction is approved by oracle when gas             price decreases to the desirable.         - Safety processor: transaction is approved by oracle after it             validates request destination safety (eg no suspicios activity             recently, address is not envolved in any hack operations, etc)     Transaction requests are created according to profiles in accont,     describing who can send request, who should vote and percentage of     approvale required to transaction approval.",
    "version": 1
  }
}