{
  "contractName": "TransactionStorage",
  "abi": [
    {
      "inputs": [],
      "name": "lastUid",
      "outputs": [
        {
          "internalType": "uint256",
          "name": "",
          "type": "uint256"
        }
      ],
      "stateMutability": "view",
      "type": "function"
    },
    {
      "inputs": [
        {
          "internalType": "uint256",
          "name": "",
          "type": "uint256"
        }
      ],
      "name": "transactions",
      "outputs": [
        {
          "internalType": "address",
          "name": "account",
          "type": "address"
        },
        {
          "internalType": "address payable",
          "name": "to",
          "type": "address"
        },
        {
          "internalType": "uint256",
          "name": "amount",
          "type": "uint256"
        },
        {
          "internalType": "address",
          "name": "by",
          "type": "address"
        },
        {
          "internalType": "enum TransactionLib.TransactionStatuses",
          "name": "status",
          "type": "uint8"
        },
        {
          "internalType": "uint256",
          "name": "consensus",
          "type": "uint256"
        },
        {
          "internalType": "uint256",
          "name": "approvalCount",
          "type": "uint256"
        },
        {
          "internalType": "uint256",
          "name": "rejectCount",
          "type": "uint256"
        }
      ],
      "stateMutability": "view",
      "type": "function"
    },
    {
      "inputs": [
        {
          "internalType": "address",
          "name": "addr",
          "type": "address"
        }
      ],
      "name": "txSize",
      "outputs": [
        {
          "internalType": "uint256",
          "name": "",
          "type": "uint256"
        }
      ],
      "stateMutability": "view",
      "type": "function"
    },
    {
      "inputs": [
        {
          "internalType": "address",
          "name": "addr",
          "type": "address"
        },
        {
          "internalType": "uint256",
          "name": "idx",
          "type": "uint256"
        }
      ],
      "name": "txAt",
      "outputs": [
        {
          "internalType": "uint256",
          "name": "",
          "type": "uint256"
        }
      ],
      "stateMutability": "view",
      "type": "function"
    },
    {
      "inputs": [
        {
          "internalType": "uint256",
          "name": "txId",
          "type": "uint256"
        }
      ],
      "name": "txVotersSize",
      "outputs": [
        {
          "internalType": "uint256",
          "name": "",
          "type": "uint256"
        }
      ],
      "stateMutability": "view",
      "type": "function"
    },
    {
      "inputs": [
        {
          "internalType": "uint256",
          "name": "txId",
          "type": "uint256"
        },
        {
          "internalType": "uint256",
          "name": "idx",
          "type": "uint256"
        }
      ],
      "name": "txVoterAt",
      "outputs": [
        {
          "internalType": "address",
          "name": "addr",
          "type": "address"
        },
        {
          "internalType": "enum TransactionLib.VoteStatuses",
          "name": "status",
          "type": "uint8"
        }
      ],
      "stateMutability": "view",
      "type": "function"
    }
  ],
  "bytecode": "0x608060405234801561001057600080fd5b50610a35806100206000396000f3fe608060405234801561001057600080fd5b50600436106100625760003560e01c8063088f6d5e1461006757806311c90ddd146100855780634064d09a146100b5578063573c7006146100e557806390a6a426146101165780639ace38c214610146575b600080fd5b61006f61017d565b60405161007c9190610853565b60405180910390f35b61009f600480360381019061009a91906105b1565b610183565b6040516100ac9190610853565b60405180910390f35b6100cf60048036038101906100ca91906105da565b6101ce565b6040516100dc9190610853565b60405180910390f35b6100ff60048036038101906100fa919061063f565b610335565b60405161010d9291906107ea565b60405180910390f35b610130600480360381019061012b9190610616565b6104af565b60405161013d9190610853565b60405180910390f35b610160600480360381019061015b9190610616565b6104d2565b60405161017498979695949392919061076c565b60405180910390f35b60025481565b60008060008373ffffffffffffffffffffffffffffffffffffffff1673ffffffffffffffffffffffffffffffffffffffff168152602001908152602001600020805490509050919050565b6000806000808573ffffffffffffffffffffffffffffffffffffffff1673ffffffffffffffffffffffffffffffffffffffff1681526020019081526020016000208054905011801561026d575060016000808573ffffffffffffffffffffffffffffffffffffffff1673ffffffffffffffffffffffffffffffffffffffff16815260200190815260200160002080549050610269919061087f565b8211155b6102ac576040517f08c379a00000000000000000000000000000000000000000000000000000000081526004016102a390610813565b60405180910390fd5b6000808473ffffffffffffffffffffffffffffffffffffffff1673ffffffffffffffffffffffffffffffffffffffff1681526020019081526020016000208281548110610322577f4e487b7100000000000000000000000000000000000000000000000000000000600052603260045260246000fd5b9060005260206000200154905092915050565b600080600060016000868152602001908152602001600020600501805490501180156103855750600180600086815260200190815260200160002060050180549050610381919061087f565b8311155b6103c4576040517f08c379a00000000000000000000000000000000000000000000000000000000081526004016103bb90610833565b60405180910390fd5b6000600160008681526020019081526020016000206005018481548110610414577f4e487b7100000000000000000000000000000000000000000000000000000000600052603260045260246000fd5b9060005260206000200160009054906101000a900473ffffffffffffffffffffffffffffffffffffffff169050806001600087815260200190815260200160002060040160008373ffffffffffffffffffffffffffffffffffffffff1673ffffffffffffffffffffffffffffffffffffffff16815260200190815260200160002060009054906101000a900460ff1692509250509250929050565b600060016000838152602001908152602001600020600501805490509050919050565b60016020528060005260406000206000915090508060000160009054906101000a900473ffffffffffffffffffffffffffffffffffffffff16908060010160009054906101000a900473ffffffffffffffffffffffffffffffffffffffff16908060020154908060030160009054906101000a900473ffffffffffffffffffffffffffffffffffffffff16908060030160149054906101000a900460ff16908060060154908060070154908060080154905088565b600081359050610596816109d1565b92915050565b6000813590506105ab816109e8565b92915050565b6000602082840312156105c357600080fd5b60006105d184828501610587565b91505092915050565b600080604083850312156105ed57600080fd5b60006105fb85828601610587565b925050602061060c8582860161059c565b9150509250929050565b60006020828403121561062857600080fd5b60006106368482850161059c565b91505092915050565b6000806040838503121561065257600080fd5b60006106608582860161059c565b92505060206106718582860161059c565b9150509250929050565b610684816108c5565b82525050565b610693816108b3565b82525050565b6106a281610927565b82525050565b6106b181610939565b82525050565b60006106c460228361086e565b91507f5472616e73616374696f6e20617420696e64657820646f65736e27742065786960008301527f73740000000000000000000000000000000000000000000000000000000000006020830152604082019050919050565b600061072a601c8361086e565b91507f566f74657220617420696e64657820646f65736e2774206578697374000000006000830152602082019050919050565b6107668161091d565b82525050565b600061010082019050610782600083018b61068a565b61078f602083018a61067b565b61079c604083018961075d565b6107a9606083018861068a565b6107b66080830187610699565b6107c360a083018661075d565b6107d060c083018561075d565b6107dd60e083018461075d565b9998505050505050505050565b60006040820190506107ff600083018561068a565b61080c60208301846106a8565b9392505050565b6000602082019050818103600083015261082c816106b7565b9050919050565b6000602082019050818103600083015261084c8161071d565b9050919050565b6000602082019050610868600083018461075d565b92915050565b600082825260208201905092915050565b600061088a8261091d565b91506108958361091d565b9250828210156108a8576108a761094b565b5b828203905092915050565b60006108be826108fd565b9050919050565b60006108d0826108fd565b9050919050565b60008190506108e5826109a9565b919050565b60008190506108f8826109bd565b919050565b600073ffffffffffffffffffffffffffffffffffffffff82169050919050565b6000819050919050565b6000610932826108d7565b9050919050565b6000610944826108ea565b9050919050565b7f4e487b7100000000000000000000000000000000000000000000000000000000600052601160045260246000fd5b7f4e487b7100000000000000000000000000000000000000000000000000000000600052602160045260246000fd5b600481106109ba576109b961097a565b5b50565b600481106109ce576109cd61097a565b5b50565b6109da816108b3565b81146109e557600080fd5b50565b6109f18161091d565b81146109fc57600080fd5b5056fea264697066735822122003cfaa35c4c396be16eb87ab9ce4c88e597ec3bcbe40e2e5df692355adfdaf2964736f6c63430008000033",
  "immutableReferences": {},
  "source": "// SPDX-License-Identifier: GPL-3.0\npragma solidity >=0.6.0 <0.9.0;\n\nimport \"./TransactionLib.sol\";\n\n/**\n * @title TransactionLib\n * @dev Keeps methods to access to stored transactions.\n */\ncontract TransactionStorage {\n    /// @dev it is not unique list, for example, if profile user sends request\n    ///  with themselves as `to`, the same address will have txId twice.\n    mapping(address => uint[]) internal transactionsByAddress;\n    mapping(uint => TransactionLib.Transaction) public transactions;\n    /// @dev To get all transactions, use `for` loop and `transaction` method\n    ///         with `lastUid - 1` as the last index.\n    uint public lastUid;\n\n    /**\n     * @notice Get size of user related transactions.\n     * @dev Use `for` loop and `txAt` method to get all user related\n     *      transaction ids.\n     * @param addr User address\n     * @return uint\n     */\n    function txSize(address addr)\n        external view\n        returns (uint)\n    {\n        return transactionsByAddress[addr].length;\n    }\n\n    /**\n     * @notice Get user transaction at index\n     * @dev Use `transactions` method to get transaction details.\n     * @param addr User address\n     * @param idx Transaction index in user transactions array\n     * @return uint Transaction id.\n     */\n    function txAt(address addr, uint idx)\n        external view\n        returns (uint)\n    {\n        require(\n            transactionsByAddress[addr].length > 0 &&\n            idx <= transactionsByAddress[addr].length - 1,\n            \"Transaction at index doesn't exist\"\n        );\n        return transactionsByAddress[addr][idx];\n    }\n\n    /**\n     * @notice Get size of transaction voters.\n     * @dev Use `for` loop and `txVoterAt` method to get all transaction voters.\n     * @param txId Transaction id\n     * @return uint\n     */\n    function txVotersSize(uint txId)\n        external view\n        returns (uint)\n    {\n        return transactions[txId].voters.length;\n    }\n\n    /**\n     * @notice Get transaction voter info by voter index.\n     * @param txId Transaction id\n     * @param idx Voter index in transaction voters array.\n     * @return addr Voter address\n     * @return status `TransactionLib.VoteStatuses` enum\n     */\n    function txVoterAt(uint txId, uint idx)\n        external view\n        returns (address addr, TransactionLib.VoteStatuses status)\n    {\n        require(\n            transactions[txId].voters.length > 0 &&\n            idx <= transactions[txId].voters.length - 1,\n            \"Voter at index doesn't exist\"\n        );\n        address voter = transactions[txId].voters[idx];\n        return (\n            voter,\n            transactions[txId].voterStatuses[voter]\n        );\n    }\n\n}\n",
  "sourcePath": "/Users/kunla/etest/delay-transaction/contracts/contracts/TransactionStorage.sol",
  "compiler": {
    "name": "solc",
    "version": "0.8.0+commit.c7dfd78e.Emscripten.clang"
  },
  "schemaVersion": "3.3.3",
  "updatedAt": "2021-02-06T02:22:47.176Z",
  "devdoc": {
    "details": "Keeps methods to access to stored transactions.",
    "kind": "dev",
    "methods": {
      "txAt(address,uint256)": {
        "details": "Use `transactions` method to get transaction details.",
        "params": {
          "addr": "User address",
          "idx": "Transaction index in user transactions array"
        },
        "returns": {
          "_0": "uint Transaction id."
        }
      },
      "txSize(address)": {
        "details": "Use `for` loop and `txAt` method to get all user related      transaction ids.",
        "params": {
          "addr": "User address"
        },
        "returns": {
          "_0": "uint"
        }
      },
      "txVoterAt(uint256,uint256)": {
        "params": {
          "idx": "Voter index in transaction voters array.",
          "txId": "Transaction id"
        },
        "returns": {
          "addr": "Voter address",
          "status": "`TransactionLib.VoteStatuses` enum"
        }
      },
      "txVotersSize(uint256)": {
        "details": "Use `for` loop and `txVoterAt` method to get all transaction voters.",
        "params": {
          "txId": "Transaction id"
        },
        "returns": {
          "_0": "uint"
        }
      }
    },
    "stateVariables": {
      "lastUid": {
        "details": "To get all transactions, use `for` loop and `transaction` method         with `lastUid - 1` as the last index."
      },
      "transactionsByAddress": {
        "details": "it is not unique list, for example, if profile user sends request  with themselves as `to`, the same address will have txId twice."
      }
    },
    "title": "TransactionLib",
    "version": 1
  },
  "userdoc": {
    "kind": "user",
    "methods": {
      "txAt(address,uint256)": {
        "notice": "Get user transaction at index"
      },
      "txSize(address)": {
        "notice": "Get size of user related transactions."
      },
      "txVoterAt(uint256,uint256)": {
        "notice": "Get transaction voter info by voter index."
      },
      "txVotersSize(uint256)": {
        "notice": "Get size of transaction voters."
      }
    },
    "version": 1
  }
}