{
  "contractName": "AccountStorage",
  "abi": [
    {
      "inputs": [
        {
          "internalType": "address",
          "name": "accountAddress",
          "type": "address"
        }
      ],
      "name": "account",
      "outputs": [
        {
          "internalType": "uint256",
          "name": "balance",
          "type": "uint256"
        },
        {
          "internalType": "uint256",
          "name": "profilesSize",
          "type": "uint256"
        }
      ],
      "stateMutability": "view",
      "type": "function"
    },
    {
      "inputs": [
        {
          "internalType": "address",
          "name": "accountAddress",
          "type": "address"
        },
        {
          "internalType": "uint256",
          "name": "profileIdx",
          "type": "uint256"
        }
      ],
      "name": "profile",
      "outputs": [
        {
          "internalType": "bytes32",
          "name": "title",
          "type": "bytes32"
        },
        {
          "internalType": "uint8",
          "name": "consensusPercentage",
          "type": "uint8"
        },
        {
          "internalType": "uint256",
          "name": "requstersSize",
          "type": "uint256"
        },
        {
          "internalType": "uint256",
          "name": "votersSize",
          "type": "uint256"
        }
      ],
      "stateMutability": "view",
      "type": "function"
    },
    {
      "inputs": [
        {
          "internalType": "address",
          "name": "accountAddress",
          "type": "address"
        },
        {
          "internalType": "uint256",
          "name": "profileIdx",
          "type": "uint256"
        },
        {
          "internalType": "uint256",
          "name": "userIdx",
          "type": "uint256"
        },
        {
          "internalType": "enum AccountStorage.Roles",
          "name": "role",
          "type": "uint8"
        }
      ],
      "name": "profileRoleAt",
      "outputs": [
        {
          "internalType": "address",
          "name": "",
          "type": "address"
        }
      ],
      "stateMutability": "view",
      "type": "function"
    },
    {
      "inputs": [
        {
          "internalType": "address",
          "name": "accountAddress",
          "type": "address"
        }
      ],
      "name": "addProfile",
      "outputs": [],
      "stateMutability": "nonpayable",
      "type": "function"
    },
    {
      "inputs": [
        {
          "internalType": "address",
          "name": "accountAddress",
          "type": "address"
        },
        {
          "internalType": "uint256",
          "name": "profileIdx",
          "type": "uint256"
        },
        {
          "internalType": "bytes32",
          "name": "title",
          "type": "bytes32"
        },
        {
          "internalType": "uint8",
          "name": "consensusPercentage",
          "type": "uint8"
        }
      ],
      "name": "editProfile",
      "outputs": [],
      "stateMutability": "nonpayable",
      "type": "function"
    },
    {
      "inputs": [
        {
          "internalType": "address",
          "name": "accountAddress",
          "type": "address"
        },
        {
          "internalType": "uint256",
          "name": "profileIdx",
          "type": "uint256"
        },
        {
          "internalType": "address",
          "name": "user",
          "type": "address"
        },
        {
          "internalType": "enum AccountStorage.Roles",
          "name": "role",
          "type": "uint8"
        }
      ],
      "name": "addProfileRole",
      "outputs": [],
      "stateMutability": "nonpayable",
      "type": "function"
    },
    {
      "inputs": [
        {
          "internalType": "address",
          "name": "accountAddress",
          "type": "address"
        },
        {
          "internalType": "uint256",
          "name": "profileIdx",
          "type": "uint256"
        }
      ],
      "name": "removeProfile",
      "outputs": [],
      "stateMutability": "nonpayable",
      "type": "function"
    },
    {
      "inputs": [
        {
          "internalType": "address",
          "name": "accountAddress",
          "type": "address"
        },
        {
          "internalType": "uint256",
          "name": "profileIdx",
          "type": "uint256"
        },
        {
          "internalType": "address",
          "name": "user",
          "type": "address"
        },
        {
          "internalType": "enum AccountStorage.Roles",
          "name": "role",
          "type": "uint8"
        }
      ],
      "name": "removeProfileRole",
      "outputs": [],
      "stateMutability": "nonpayable",
      "type": "function"
    }
  ],
  "bytecode": "0x608060405234801561001057600080fd5b5061156d806100206000396000f3fe608060405234801561001057600080fd5b50600436106100885760003560e01c80637094a5af1161005b5780637094a5af1461012857806373b9aa91146101445780639f153d4514610175578063be3300361461019157610088565b8063060e36c81461008d57806310143a64146100a957806322122994146100c55780633515ca47146100f5575b600080fd5b6100a760048036038101906100a291906110d1565b6101ad565b005b6100c360048036038101906100be9190610fe0565b610285565b005b6100df60048036038101906100da9190611134565b6102ea565b6040516100ec9190611278565b60405180910390f35b61010f600480360381019061010a9190611032565b610530565b60405161011f9493929190611293565b60405180910390f35b610142600480360381019061013d919061106e565b6106b8565b005b61015e60048036038101906101599190610fe0565b6108c0565b60405161016c929190611385565b60405180910390f35b61018f600480360381019061018a919061106e565b610950565b005b6101ab60048036038101906101a69190611032565b610b58565b005b6101b78484610dff565b816000808673ffffffffffffffffffffffffffffffffffffffff1673ffffffffffffffffffffffffffffffffffffffff168152602001908152602001600020600301600085815260200190815260200160002060000181905550806000808673ffffffffffffffffffffffffffffffffffffffff1673ffffffffffffffffffffffffffffffffffffffff168152602001908152602001600020600301600085815260200190815260200160002060050160006101000a81548160ff021916908360ff16021790555050505050565b61028e81610e90565b60016000808373ffffffffffffffffffffffffffffffffffffffff1673ffffffffffffffffffffffffffffffffffffffff16815260200190815260200160002060020160008282546102e091906113bf565b9250508190555050565b6000600180811115610325577f4e487b7100000000000000000000000000000000000000000000000000000000600052602160045260246000fd5b82600181111561035e577f4e487b7100000000000000000000000000000000000000000000000000000000600052602160045260246000fd5b14156104485773__AddressStorageLib_____________________630ba06cb26000808873ffffffffffffffffffffffffffffffffffffffff1673ffffffffffffffffffffffffffffffffffffffff1681526020019081526020016000206003016000878152602001908152602001600020600301856040518363ffffffff1660e01b81526004016103f192919061135c565b60206040518083038186803b15801561040957600080fd5b505af415801561041d573d6000803e3d6000fd5b505050506040513d601f19601f820116820180604052508101906104419190611009565b9050610528565b73__AddressStorageLib_____________________630ba06cb26000808873ffffffffffffffffffffffffffffffffffffffff1673ffffffffffffffffffffffffffffffffffffffff1681526020019081526020016000206003016000878152602001908152602001600020600101856040518363ffffffff1660e01b81526004016104d592919061135c565b60206040518083038186803b1580156104ed57600080fd5b505af4158015610501573d6000803e3d6000fd5b505050506040513d601f19601f820116820180604052508101906105259190611009565b90505b949350505050565b6000806000806000808773ffffffffffffffffffffffffffffffffffffffff1673ffffffffffffffffffffffffffffffffffffffff1681526020019081526020016000206003016000868152602001908152602001600020600001546000808873ffffffffffffffffffffffffffffffffffffffff1673ffffffffffffffffffffffffffffffffffffffff168152602001908152602001600020600301600087815260200190815260200160002060050160009054906101000a900460ff166000808973ffffffffffffffffffffffffffffffffffffffff1673ffffffffffffffffffffffffffffffffffffffff1681526020019081526020016000206003016000888152602001908152602001600020600101600001805490506000808a73ffffffffffffffffffffffffffffffffffffffff1673ffffffffffffffffffffffffffffffffffffffff168152602001908152602001600020600301600089815260200190815260200160002060030160000180549050935093509350935092959194509250565b6106c28484610dff565b6001808111156106fb577f4e487b7100000000000000000000000000000000000000000000000000000000600052602160045260246000fd5b816001811115610734577f4e487b7100000000000000000000000000000000000000000000000000000000600052602160045260246000fd5b14156107fc5773__AddressStorageLib_____________________63b817d8566000808773ffffffffffffffffffffffffffffffffffffffff1673ffffffffffffffffffffffffffffffffffffffff1681526020019081526020016000206003016000868152602001908152602001600020600301846040518363ffffffff1660e01b81526004016107c7929190611333565b60006040518083038186803b1580156107df57600080fd5b505af41580156107f3573d6000803e3d6000fd5b505050506108ba565b73__AddressStorageLib_____________________63b817d8566000808773ffffffffffffffffffffffffffffffffffffffff1673ffffffffffffffffffffffffffffffffffffffff1681526020019081526020016000206003016000868152602001908152602001600020600101846040518363ffffffff1660e01b8152600401610889929190611333565b60006040518083038186803b1580156108a157600080fd5b505af41580156108b5573d6000803e3d6000fd5b505050505b50505050565b6000806000808473ffffffffffffffffffffffffffffffffffffffff1673ffffffffffffffffffffffffffffffffffffffff168152602001908152602001600020600101546000808573ffffffffffffffffffffffffffffffffffffffff1673ffffffffffffffffffffffffffffffffffffffff1681526020019081526020016000206002015491509150915091565b61095a8484610dff565b600180811115610993577f4e487b7100000000000000000000000000000000000000000000000000000000600052602160045260246000fd5b8160018111156109cc577f4e487b7100000000000000000000000000000000000000000000000000000000600052602160045260246000fd5b1415610a945773__AddressStorageLib_____________________6371bd1b346000808773ffffffffffffffffffffffffffffffffffffffff1673ffffffffffffffffffffffffffffffffffffffff1681526020019081526020016000206003016000868152602001908152602001600020600301846040518363ffffffff1660e01b8152600401610a5f929190611333565b60006040518083038186803b158015610a7757600080fd5b505af4158015610a8b573d6000803e3d6000fd5b50505050610b52565b73__AddressStorageLib_____________________6371bd1b346000808773ffffffffffffffffffffffffffffffffffffffff1673ffffffffffffffffffffffffffffffffffffffff1681526020019081526020016000206003016000868152602001908152602001600020600101846040518363ffffffff1660e01b8152600401610b21929190611333565b60006040518083038186803b158015610b3957600080fd5b505af4158015610b4d573d6000803e3d6000fd5b505050505b50505050565b610b628282610dff565b73__AddressStorageLib_____________________6380abfdeb6000808573ffffffffffffffffffffffffffffffffffffffff1673ffffffffffffffffffffffffffffffffffffffff16815260200190815260200160002060030160008481526020019081526020016000206001016040518263ffffffff1660e01b8152600401610bed9190611318565b60006040518083038186803b158015610c0557600080fd5b505af4158015610c19573d6000803e3d6000fd5b5050505073__AddressStorageLib_____________________6380abfdeb6000808573ffffffffffffffffffffffffffffffffffffffff1673ffffffffffffffffffffffffffffffffffffffff16815260200190815260200160002060030160008481526020019081526020016000206003016040518263ffffffff1660e01b8152600401610ca89190611318565b60006040518083038186803b158015610cc057600080fd5b505af4158015610cd4573d6000803e3d6000fd5b5050505060008060008473ffffffffffffffffffffffffffffffffffffffff1673ffffffffffffffffffffffffffffffffffffffff168152602001908152602001600020600301600083815260200190815260200160002060050160006101000a81548160ff021916908360ff16021790555060008060008473ffffffffffffffffffffffffffffffffffffffff1673ffffffffffffffffffffffffffffffffffffffff16815260200190815260200160002060030160008381526020019081526020016000206000018190555060016000808473ffffffffffffffffffffffffffffffffffffffff1673ffffffffffffffffffffffffffffffffffffffff1681526020019081526020016000206002016000828254610df49190611415565b925050819055505050565b610e0882610e90565b6000808373ffffffffffffffffffffffffffffffffffffffff1673ffffffffffffffffffffffffffffffffffffffff16815260200190815260200160002060020154811115610e8c576040517f08c379a0000000000000000000000000000000000000000000000000000000008152600401610e83906112d8565b60405180910390fd5b5050565b6000808273ffffffffffffffffffffffffffffffffffffffff1673ffffffffffffffffffffffffffffffffffffffff16815260200190815260200160002060000160009054906101000a900473ffffffffffffffffffffffffffffffffffffffff1673ffffffffffffffffffffffffffffffffffffffff163373ffffffffffffffffffffffffffffffffffffffff1614610f5f576040517f08c379a0000000000000000000000000000000000000000000000000000000008152600401610f56906112f8565b60405180910390fd5b50565b600081359050610f71816114cb565b92915050565b600081519050610f86816114cb565b92915050565b600081359050610f9b816114e2565b92915050565b600081359050610fb0816114f9565b92915050565b600081359050610fc581611509565b92915050565b600081359050610fda81611520565b92915050565b600060208284031215610ff257600080fd5b600061100084828501610f62565b91505092915050565b60006020828403121561101b57600080fd5b600061102984828501610f77565b91505092915050565b6000806040838503121561104557600080fd5b600061105385828601610f62565b925050602061106485828601610fb6565b9150509250929050565b6000806000806080858703121561108457600080fd5b600061109287828801610f62565b94505060206110a387828801610fb6565b93505060406110b487828801610f62565b92505060606110c587828801610fa1565b91505092959194509250565b600080600080608085870312156110e757600080fd5b60006110f587828801610f62565b945050602061110687828801610fb6565b935050604061111787828801610f8c565b925050606061112887828801610fcb565b91505092959194509250565b6000806000806080858703121561114a57600080fd5b600061115887828801610f62565b945050602061116987828801610fb6565b935050604061117a87828801610fb6565b925050606061118b87828801610fa1565b91505092959194509250565b6111a081611449565b82525050565b6111af81611449565b82525050565b6111be8161145b565b82525050565b60006111d16015836113ae565b91507f50726f66696c6520646f65736e277420657869737400000000000000000000006000830152602082019050919050565b60006112116012836113ae565b91507f5065726d697373696f6e2064656e6965642e00000000000000000000000000006000830152602082019050919050565b8082525050565b61125481611485565b82525050565b61126381611485565b82525050565b6112728161148f565b82525050565b600060208201905061128d6000830184611197565b92915050565b60006080820190506112a860008301876111b5565b6112b56020830186611269565b6112c2604083018561124b565b6112cf606083018461124b565b95945050505050565b600060208201905081810360008301526112f1816111c4565b9050919050565b6000602082019050818103600083015261131181611204565b9050919050565b600060208201905061132d6000830184611244565b92915050565b60006040820190506113486000830185611244565b61135560208301846111a6565b9392505050565b60006040820190506113716000830185611244565b61137e602083018461125a565b9392505050565b600060408201905061139a600083018561124b565b6113a7602083018461124b565b9392505050565b600082825260208201905092915050565b60006113ca82611485565b91506113d583611485565b9250827fffffffffffffffffffffffffffffffffffffffffffffffffffffffffffffffff0382111561140a5761140961149c565b5b828201905092915050565b600061142082611485565b915061142b83611485565b92508282101561143e5761143d61149c565b5b828203905092915050565b600061145482611465565b9050919050565b6000819050919050565b600073ffffffffffffffffffffffffffffffffffffffff82169050919050565b6000819050919050565b600060ff82169050919050565b7f4e487b7100000000000000000000000000000000000000000000000000000000600052601160045260246000fd5b6114d481611449565b81146114df57600080fd5b50565b6114eb8161145b565b81146114f657600080fd5b50565b6002811061150657600080fd5b50565b61151281611485565b811461151d57600080fd5b50565b6115298161148f565b811461153457600080fd5b5056fea2646970667358221220a42cdf3b5c032ae6e25dda385dd92742795e4a2bf87432f5e4e43e52921454fa64736f6c63430008000033",
  "immutableReferences": {},
  "source": "// SPDX-License-Identifier: GPL-3.0\npragma solidity >=0.6.0 <0.9.0;\n\n\nimport \"./AddressStorageLib.sol\";\n\n\n/**\n * @title AccountStorage\n * @notice Provides interface for account balance and its profiles.\n */\ncontract AccountStorage {\n    enum Roles {REQUESTER, VOTER}\n\n    struct Profile {\n        // Keep title short :)\n        bytes32 title;\n\n        // VOTER - can vote for transaction request, cannot send\n        // REQUESTER - can send request, cannot vote.\n        AddressStorageLib.Permissions requsters;\n        AddressStorageLib.Permissions voters;\n        // 1-100;\n        uint8 consensusPercentage;\n    }\n\n    struct Account {\n        address owner;\n        uint balance;\n        uint profilesSize;\n        mapping (uint => Profile) profiles;\n    }\n\n    mapping(address => Account) internal accounts;\n\n    /**\n     * @dev Throws if caller doesn't have `requester` permissions for profile\n     *      by `profileIdx` doesn't exists in `accountAddress` address.\n     */\n    modifier requireProfileRequester(address accountAddress, uint profileIdx) {\n        require(\n            AddressStorageLib.has(\n                accounts[accountAddress].profiles[profileIdx].requsters,\n                msg.sender\n            ),\n            \"Permission denied.\"\n        );\n        _;\n    }\n\n    // *** Getter Methods ***\n\n    /**\n     * @notice Get account balance and number of profiles.\n     * @dev To get all account profiles, use `for` loop for `profilesSize`\n     *      with `profile` method.\n     * @param accountAddress Address of account\n     * @return balance\n     * @return profilesSize\n     */\n    function account (address accountAddress) external view\n        returns (uint balance, uint profilesSize)\n    {\n        return (\n            accounts[accountAddress].balance,\n            accounts[accountAddress].profilesSize\n        );\n    }\n\n    /**\n     * @notice Get profile details.\n     * @dev Use `profilesSize` from `account` method response to get maximum\n     *      profile index.\n     *      To get all profile requesters/voters, use `for` loop for\n     *      `requstersSize`/`votersSize` with `profileRoleAt`.\n     * @param accountAddress Address of account\n     * @param profileIdx Profile index\n     * @return title\n     * @return consensusPercentage\n     * @return requstersSize\n     * @return votersSize\n     */\n    function profile(address accountAddress, uint profileIdx) external view\n        returns (\n            bytes32 title,\n            uint8 consensusPercentage,\n            uint requstersSize,\n            uint votersSize\n        )\n    {\n        return (\n            accounts[accountAddress].profiles[profileIdx].title,\n            accounts[accountAddress].profiles[profileIdx].consensusPercentage,\n            accounts[accountAddress].profiles[profileIdx].requsters.keys.length,\n            accounts[accountAddress].profiles[profileIdx].voters.keys.length\n        );\n    }\n\n    /**\n     * @notice Get user address in roles array by index.\n     * @dev Use `requstersSize`/`votersSize` from `profile` response to get\n     *      max possible index.\n     * @param accountAddress Address of account\n     * @param profileIdx Profile index\n     * @return address\n     */\n    function profileRoleAt(\n        address accountAddress,\n        uint profileIdx,\n        uint userIdx,\n        Roles role\n    )\n        external view\n        returns (address)\n    {\n        if (role == Roles.VOTER) {\n            return AddressStorageLib.at(\n                accounts[accountAddress].profiles[profileIdx].voters,\n                userIdx\n            );\n        }\n        else {\n            return AddressStorageLib.at(\n                accounts[accountAddress].profiles[profileIdx].requsters,\n                userIdx\n            );\n        }\n    }\n\n    // *** Setter Methods ***\n\n    /**\n     * @notice Add a new empty profile to account.\n     * @dev Use `editProfile` to set profile details.\n     *       Throws if:\n     *       - Caller isn't account owner;\n     * @param accountAddress Address of account\n     */\n    function addProfile(address accountAddress)\n        external\n    {\n        requireAccountOwner(accountAddress);\n        accounts[accountAddress].profilesSize += 1;\n    }\n\n    /**\n     * @notice Edit profile details.\n     * @dev Throws if:\n     *      - Caller isn't account owner;\n     *      - Profile at index doesn't exist;\n     * @param accountAddress Address of account\n     * @param profileIdx Profile index\n     * @param title Title in bytes32\n     * @param consensusPercentage Consensus percentage 1-100\n     */\n    function editProfile(\n        address accountAddress,\n        uint profileIdx,\n        bytes32 title,\n        uint8 consensusPercentage\n    )\n        external\n    {\n        requireProfileOwner(accountAddress, profileIdx);\n        accounts[accountAddress].profiles[profileIdx].title = title;\n        accounts[accountAddress].profiles[profileIdx].consensusPercentage =\n            consensusPercentage;\n    }\n\n    /**\n     * @notice Grant `role` permission for `user` in profile.\n     * @dev Throws if:\n     *      - Caller isn't account owner;\n     *      - Profile at index doesn't exist;\n     * @param accountAddress Address of account\n     * @param profileIdx Profile index\n     * @param user User address\n     * @param role `Roles` enum\n     */\n    function addProfileRole(\n        address accountAddress,\n        uint profileIdx,\n        address user,\n        Roles role\n    )\n        external\n    {\n        requireProfileOwner(accountAddress, profileIdx);\n        if (role == Roles.VOTER) {\n            AddressStorageLib.add(\n                accounts[accountAddress].profiles[profileIdx].voters,\n                user\n            );\n        }\n        else {\n            AddressStorageLib.add(\n                accounts[accountAddress].profiles[profileIdx].requsters,\n                user\n            );\n        }\n    }\n\n    // *** Delete Methods ***\n\n    /**\n     * @notice Removes profiles by index.\n     * @dev Throws if:\n     *      - Caller isn't account owner;\n     *      - Profile at index doesn't exist;\n     * @param accountAddress Address of account\n     * @param profileIdx Profile index\n     */\n    function removeProfile(address accountAddress, uint profileIdx)\n        external\n    {\n        requireProfileOwner(accountAddress, profileIdx);\n        AddressStorageLib.clear(\n            accounts[accountAddress].profiles[profileIdx].requsters\n        );\n        AddressStorageLib.clear(\n            accounts[accountAddress].profiles[profileIdx].voters\n        );\n        accounts[accountAddress].profiles[profileIdx].consensusPercentage = 0;\n        accounts[accountAddress].profiles[profileIdx].title = '';\n        accounts[accountAddress].profilesSize -= 1;\n    }\n\n    /**\n     * @notice Revoke `role` permission for `user` in profile.\n     * @dev Throws if:\n     *      - Caller isn't account owner;\n     *      - Profile at index doesn't exist;\n     * @param accountAddress Address of account\n     * @param profileIdx Profile index\n     * @param user User address\n     * @param role `Roles` enum\n     */\n    function removeProfileRole(\n        address accountAddress,\n        uint profileIdx,\n        address user,\n        Roles role\n    )\n        external\n    {\n        requireProfileOwner(accountAddress, profileIdx);\n        if (role == Roles.VOTER) {\n            AddressStorageLib.remove(\n                accounts[accountAddress].profiles[profileIdx].voters,\n                user\n            );\n        }\n        else {\n            AddressStorageLib.remove(\n                accounts[accountAddress].profiles[profileIdx].requsters,\n                user\n            );\n        }\n    }\n\n    // *** Throw functions ***\n\n    /**\n     * @dev Throws if caller is not account owner.\n     */\n    function requireAccountOwner(address accountAddress) internal view {\n        require(\n            msg.sender == accounts[accountAddress].owner,\n            \"Permission denied.\"\n        );\n    }\n\n\n    /**\n     * @dev Throws if profile by `profileIdx` doesn't exists in\n     *      `accountAddress` address.\n     */\n    function requireProfileOwner(address accountAddress, uint profileIdx) internal view {\n        requireAccountOwner(accountAddress);\n        require(\n            profileIdx <= accounts[accountAddress].profilesSize,\n            \"Profile doesn't exist\"\n        );\n    }\n\n\n}\n",
  "sourcePath": "/Users/kunla/etest/delay-transaction/contracts/AccountStorage.sol",
  "compiler": {
    "name": "solc",
    "version": "0.8.0+commit.c7dfd78e.Emscripten.clang"
  },
  "schemaVersion": "3.3.3",
  "updatedAt": "2021-02-09T21:49:42.843Z",
  "devdoc": {
    "kind": "dev",
    "methods": {
      "account(address)": {
        "details": "To get all account profiles, use `for` loop for `profilesSize`      with `profile` method.",
        "params": {
          "accountAddress": "Address of account"
        },
        "returns": {
          "balance": "balance",
          "profilesSize": "profilesSize"
        }
      },
      "addProfile(address)": {
        "details": "Use `editProfile` to set profile details.       Throws if:       - Caller isn't account owner;",
        "params": {
          "accountAddress": "Address of account"
        }
      },
      "addProfileRole(address,uint256,address,uint8)": {
        "details": "Throws if:      - Caller isn't account owner;      - Profile at index doesn't exist;",
        "params": {
          "accountAddress": "Address of account",
          "profileIdx": "Profile index",
          "role": "`Roles` enum",
          "user": "User address"
        }
      },
      "editProfile(address,uint256,bytes32,uint8)": {
        "details": "Throws if:      - Caller isn't account owner;      - Profile at index doesn't exist;",
        "params": {
          "accountAddress": "Address of account",
          "consensusPercentage": "Consensus percentage 1-100",
          "profileIdx": "Profile index",
          "title": "Title in bytes32"
        }
      },
      "profile(address,uint256)": {
        "details": "Use `profilesSize` from `account` method response to get maximum      profile index.      To get all profile requesters/voters, use `for` loop for      `requstersSize`/`votersSize` with `profileRoleAt`.",
        "params": {
          "accountAddress": "Address of account",
          "profileIdx": "Profile index"
        },
        "returns": {
          "consensusPercentage": "consensusPercentage",
          "requstersSize": "requstersSize",
          "title": "title",
          "votersSize": "votersSize"
        }
      },
      "profileRoleAt(address,uint256,uint256,uint8)": {
        "details": "Use `requstersSize`/`votersSize` from `profile` response to get      max possible index.",
        "params": {
          "accountAddress": "Address of account",
          "profileIdx": "Profile index"
        },
        "returns": {
          "_0": "address"
        }
      },
      "removeProfile(address,uint256)": {
        "details": "Throws if:      - Caller isn't account owner;      - Profile at index doesn't exist;",
        "params": {
          "accountAddress": "Address of account",
          "profileIdx": "Profile index"
        }
      },
      "removeProfileRole(address,uint256,address,uint8)": {
        "details": "Throws if:      - Caller isn't account owner;      - Profile at index doesn't exist;",
        "params": {
          "accountAddress": "Address of account",
          "profileIdx": "Profile index",
          "role": "`Roles` enum",
          "user": "User address"
        }
      }
    },
    "title": "AccountStorage",
    "version": 1
  },
  "userdoc": {
    "kind": "user",
    "methods": {
      "account(address)": {
        "notice": "Get account balance and number of profiles."
      },
      "addProfile(address)": {
        "notice": "Add a new empty profile to account."
      },
      "addProfileRole(address,uint256,address,uint8)": {
        "notice": "Grant `role` permission for `user` in profile."
      },
      "editProfile(address,uint256,bytes32,uint8)": {
        "notice": "Edit profile details."
      },
      "profile(address,uint256)": {
        "notice": "Get profile details."
      },
      "profileRoleAt(address,uint256,uint256,uint8)": {
        "notice": "Get user address in roles array by index."
      },
      "removeProfile(address,uint256)": {
        "notice": "Removes profiles by index."
      },
      "removeProfileRole(address,uint256,address,uint8)": {
        "notice": "Revoke `role` permission for `user` in profile."
      }
    },
    "notice": "Provides interface for account balance and its profiles.",
    "version": 1
  }
}