{
  "contractName": "AccountStorage",
  "abi": [
    {
      "inputs": [
        {
          "internalType": "address",
          "name": "accountAddress",
          "type": "address"
        }
      ],
      "name": "account",
      "outputs": [
        {
          "internalType": "uint256",
          "name": "balance",
          "type": "uint256"
        },
        {
          "internalType": "uint256",
          "name": "profilesSize",
          "type": "uint256"
        }
      ],
      "stateMutability": "view",
      "type": "function"
    },
    {
      "inputs": [
        {
          "internalType": "bytes32",
          "name": "profileId",
          "type": "bytes32"
        }
      ],
      "name": "profile",
      "outputs": [
        {
          "internalType": "address",
          "name": "accountAddress",
          "type": "address"
        },
        {
          "internalType": "bytes32",
          "name": "title",
          "type": "bytes32"
        },
        {
          "internalType": "uint8",
          "name": "consensusPercentage",
          "type": "uint8"
        },
        {
          "internalType": "uint256",
          "name": "requstersSize",
          "type": "uint256"
        },
        {
          "internalType": "uint256",
          "name": "votersSize",
          "type": "uint256"
        }
      ],
      "stateMutability": "view",
      "type": "function"
    },
    {
      "inputs": [
        {
          "internalType": "address",
          "name": "accountAddress",
          "type": "address"
        },
        {
          "internalType": "uint256",
          "name": "profileIdx",
          "type": "uint256"
        }
      ],
      "name": "profileIdAt",
      "outputs": [
        {
          "internalType": "bytes32",
          "name": "",
          "type": "bytes32"
        }
      ],
      "stateMutability": "view",
      "type": "function"
    },
    {
      "inputs": [
        {
          "internalType": "bytes32",
          "name": "profileId",
          "type": "bytes32"
        },
        {
          "internalType": "uint256",
          "name": "userIdx",
          "type": "uint256"
        },
        {
          "internalType": "enum AccountStorage.Roles",
          "name": "role",
          "type": "uint8"
        }
      ],
      "name": "profileRoleAt",
      "outputs": [
        {
          "internalType": "address",
          "name": "",
          "type": "address"
        }
      ],
      "stateMutability": "view",
      "type": "function"
    },
    {
      "inputs": [],
      "name": "addProfile",
      "outputs": [],
      "stateMutability": "nonpayable",
      "type": "function"
    },
    {
      "inputs": [
        {
          "internalType": "bytes32",
          "name": "profileId",
          "type": "bytes32"
        },
        {
          "internalType": "bytes32",
          "name": "title",
          "type": "bytes32"
        },
        {
          "internalType": "uint8",
          "name": "consensusPercentage",
          "type": "uint8"
        }
      ],
      "name": "editProfile",
      "outputs": [],
      "stateMutability": "nonpayable",
      "type": "function"
    },
    {
      "inputs": [
        {
          "internalType": "bytes32",
          "name": "profileId",
          "type": "bytes32"
        },
        {
          "internalType": "address",
          "name": "user",
          "type": "address"
        },
        {
          "internalType": "enum AccountStorage.Roles",
          "name": "role",
          "type": "uint8"
        }
      ],
      "name": "addProfileRole",
      "outputs": [],
      "stateMutability": "nonpayable",
      "type": "function"
    },
    {
      "inputs": [
        {
          "internalType": "bytes32",
          "name": "profileId",
          "type": "bytes32"
        }
      ],
      "name": "removeProfile",
      "outputs": [],
      "stateMutability": "nonpayable",
      "type": "function"
    },
    {
      "inputs": [
        {
          "internalType": "bytes32",
          "name": "profileId",
          "type": "bytes32"
        },
        {
          "internalType": "address",
          "name": "user",
          "type": "address"
        },
        {
          "internalType": "enum AccountStorage.Roles",
          "name": "role",
          "type": "uint8"
        }
      ],
      "name": "removeProfileRole",
      "outputs": [],
      "stateMutability": "nonpayable",
      "type": "function"
    }
  ],
  "bytecode": "0x608060405234801561001057600080fd5b5061147a806100206000396000f3fe608060405234801561001057600080fd5b50600436106100935760003560e01c80637340c30a116100665780637340c30a1461012257806373b9aa911461013e5780637c52d8ec1461016f57806392ba262f1461018b5780639bf5ddac146101bb57610093565b80631c62094c146100985780633b093ddc146100a2578063454bc9e6146100d6578063697ae478146100f2575b600080fd5b6100a06101d7565b005b6100bc60048036038101906100b79190610f08565b610302565b6040516100cd959493929190611159565b60405180910390f35b6100f060048036038101906100eb9190610f5a565b6103c9565b005b61010c60048036038101906101079190610ff8565b610551565b604051610119919061113e565b60405180910390f35b61013c60048036038101906101379190610f08565b610718565b005b61015860048036038101906101539190610e7a565b6109a3565b6040516101669291906112c6565b60405180910390f35b61018960048036038101906101849190610fa9565b610a39565b005b6101a560048036038101906101a09190610ecc565b610a91565b6040516101b291906111ac565b60405180910390f35b6101d560048036038101906101d09190610f5a565b610bb8565b005b6000329050600073__ProfileStorageLib_____________________63d1368aa56000808573ffffffffffffffffffffffffffffffffffffffff1673ffffffffffffffffffffffffffffffffffffffff168152602001908152602001600020600201846040518363ffffffff1660e01b8152600401610257929190611274565b60206040518083038186803b15801561026f57600080fd5b505af4158015610283573d6000803e3d6000fd5b505050506040513d601f19601f820116820180604052508101906102a79190610f31565b9050816001600083815260200190815260200160002060010160006101000a81548173ffffffffffffffffffffffffffffffffffffffff021916908373ffffffffffffffffffffffffffffffffffffffff1602179055505050565b60008060008060006001600087815260200190815260200160002060010160009054906101000a900473ffffffffffffffffffffffffffffffffffffffff1660016000888152602001908152602001600020600001546001600089815260200190815260200160002060060160009054906101000a900460ff16600160008a815260200190815260200160002060020160000180549050600160008b8152602001908152602001600020600401600001805490509450945094509450945091939590929450565b6103d283610d40565b60018081111561040b577f4e487b7100000000000000000000000000000000000000000000000000000000600052602160045260246000fd5b816001811115610444577f4e487b7100000000000000000000000000000000000000000000000000000000600052602160045260246000fd5b14156104cd5773__AddressStorageLib_____________________6371bd1b3460016000868152602001908152602001600020600401846040518363ffffffff1660e01b8152600401610498929190611222565b60006040518083038186803b1580156104b057600080fd5b505af41580156104c4573d6000803e3d6000fd5b5050505061054c565b73__AddressStorageLib_____________________6371bd1b3460016000868152602001908152602001600020600201846040518363ffffffff1660e01b815260040161051b929190611222565b60006040518083038186803b15801561053357600080fd5b505af4158015610547573d6000803e3d6000fd5b505050505b505050565b600060018081111561058c577f4e487b7100000000000000000000000000000000000000000000000000000000600052602160045260246000fd5b8260018111156105c5577f4e487b7100000000000000000000000000000000000000000000000000000000600052602160045260246000fd5b14156106705773__AddressStorageLib_____________________630ba06cb260016000878152602001908152602001600020600401856040518363ffffffff1660e01b815260040161061992919061124b565b60206040518083038186803b15801561063157600080fd5b505af4158015610645573d6000803e3d6000fd5b505050506040513d601f19601f820116820180604052508101906106699190610ea3565b9050610711565b73__AddressStorageLib_____________________630ba06cb260016000878152602001908152602001600020600201856040518363ffffffff1660e01b81526004016106be92919061124b565b60206040518083038186803b1580156106d657600080fd5b505af41580156106ea573d6000803e3d6000fd5b505050506040513d601f19601f8201168201806040525081019061070e9190610ea3565b90505b9392505050565b61072181610d40565b60006001600083815260200190815260200160002060010160009054906101000a900473ffffffffffffffffffffffffffffffffffffffff16905073__AddressStorageLib_____________________6380abfdeb600160008581526020019081526020016000206002016040518263ffffffff1660e01b81526004016107a89190611207565b60006040518083038186803b1580156107c057600080fd5b505af41580156107d4573d6000803e3d6000fd5b5050505073__AddressStorageLib_____________________6380abfdeb600160008581526020019081526020016000206004016040518263ffffffff1660e01b81526004016108249190611207565b60006040518083038186803b15801561083c57600080fd5b505af4158015610850573d6000803e3d6000fd5b5050505060006001600084815260200190815260200160002060060160006101000a81548160ff021916908360ff1602179055506000600160008481526020019081526020016000206000018190555060006001600084815260200190815260200160002060010160006101000a81548173ffffffffffffffffffffffffffffffffffffffff021916908373ffffffffffffffffffffffffffffffffffffffff16021790555073__ProfileStorageLib_____________________63d11cd7e26000808473ffffffffffffffffffffffffffffffffffffffff1673ffffffffffffffffffffffffffffffffffffffff168152602001908152602001600020600201846040518363ffffffff1660e01b815260040161096f92919061129d565b60006040518083038186803b15801561098757600080fd5b505af415801561099b573d6000803e3d6000fd5b505050505050565b6000806000808473ffffffffffffffffffffffffffffffffffffffff1673ffffffffffffffffffffffffffffffffffffffff168152602001908152602001600020600101546000808573ffffffffffffffffffffffffffffffffffffffff1673ffffffffffffffffffffffffffffffffffffffff1681526020019081526020016000206002016001018054905091509150915091565b610a4283610d40565b816001600085815260200190815260200160002060000181905550806001600085815260200190815260200160002060060160006101000a81548160ff021916908360ff160217905550505050565b60008060008473ffffffffffffffffffffffffffffffffffffffff1673ffffffffffffffffffffffffffffffffffffffff16815260200190815260200160002060020160010180549050600183610ae89190611300565b1115610b29576040517f08c379a0000000000000000000000000000000000000000000000000000000008152600401610b20906111e7565b60405180910390fd5b6000808473ffffffffffffffffffffffffffffffffffffffff1673ffffffffffffffffffffffffffffffffffffffff1681526020019081526020016000206002016001018281548110610ba5577f4e487b7100000000000000000000000000000000000000000000000000000000600052603260045260246000fd5b9060005260206000200154905092915050565b610bc183610d40565b600180811115610bfa577f4e487b7100000000000000000000000000000000000000000000000000000000600052602160045260246000fd5b816001811115610c33577f4e487b7100000000000000000000000000000000000000000000000000000000600052602160045260246000fd5b1415610cbc5773__AddressStorageLib_____________________63b817d85660016000868152602001908152602001600020600401846040518363ffffffff1660e01b8152600401610c87929190611222565b60006040518083038186803b158015610c9f57600080fd5b505af4158015610cb3573d6000803e3d6000fd5b50505050610d3b565b73__AddressStorageLib_____________________63b817d85660016000868152602001908152602001600020600201846040518363ffffffff1660e01b8152600401610d0a929190611222565b60006040518083038186803b158015610d2257600080fd5b505af4158015610d36573d6000803e3d6000fd5b505050505b505050565b6001600082815260200190815260200160002060010160009054906101000a900473ffffffffffffffffffffffffffffffffffffffff1673ffffffffffffffffffffffffffffffffffffffff163273ffffffffffffffffffffffffffffffffffffffff1614610de4576040517f08c379a0000000000000000000000000000000000000000000000000000000008152600401610ddb906111c7565b60405180910390fd5b50565b600081359050610df6816113d8565b92915050565b600081519050610e0b816113d8565b92915050565b600081359050610e20816113ef565b92915050565b600081519050610e35816113ef565b92915050565b600081359050610e4a81611406565b92915050565b600081359050610e5f81611416565b92915050565b600081359050610e748161142d565b92915050565b600060208284031215610e8c57600080fd5b6000610e9a84828501610de7565b91505092915050565b600060208284031215610eb557600080fd5b6000610ec384828501610dfc565b91505092915050565b60008060408385031215610edf57600080fd5b6000610eed85828601610de7565b9250506020610efe85828601610e50565b9150509250929050565b600060208284031215610f1a57600080fd5b6000610f2884828501610e11565b91505092915050565b600060208284031215610f4357600080fd5b6000610f5184828501610e26565b91505092915050565b600080600060608486031215610f6f57600080fd5b6000610f7d86828701610e11565b9350506020610f8e86828701610de7565b9250506040610f9f86828701610e3b565b9150509250925092565b600080600060608486031215610fbe57600080fd5b6000610fcc86828701610e11565b9350506020610fdd86828701610e11565b9250506040610fee86828701610e65565b9150509250925092565b60008060006060848603121561100d57600080fd5b600061101b86828701610e11565b935050602061102c86828701610e50565b925050604061103d86828701610e3b565b9150509250925092565b61105081611356565b82525050565b61105f81611356565b82525050565b61106e81611368565b82525050565b61107d81611368565b82525050565b60006110906012836112ef565b91507f5065726d697373696f6e2064656e6965642e00000000000000000000000000006000830152602082019050919050565b60006110d06016836112ef565b91507f50726f66696c6520646f65736e27742065786973742e000000000000000000006000830152602082019050919050565b8082525050565b8082525050565b61111a81611392565b82525050565b61112981611392565b82525050565b6111388161139c565b82525050565b60006020820190506111536000830184611047565b92915050565b600060a08201905061116e6000830188611047565b61117b6020830187611065565b611188604083018661112f565b6111956060830185611111565b6111a26080830184611111565b9695505050505050565b60006020820190506111c16000830184611065565b92915050565b600060208201905081810360008301526111e081611083565b9050919050565b60006020820190508181036000830152611200816110c3565b9050919050565b600060208201905061121c6000830184611103565b92915050565b60006040820190506112376000830185611103565b6112446020830184611056565b9392505050565b60006040820190506112606000830185611103565b61126d6020830184611120565b9392505050565b6000604082019050611289600083018561110a565b6112966020830184611056565b9392505050565b60006040820190506112b2600083018561110a565b6112bf6020830184611074565b9392505050565b60006040820190506112db6000830185611111565b6112e86020830184611111565b9392505050565b600082825260208201905092915050565b600061130b82611392565b915061131683611392565b9250827fffffffffffffffffffffffffffffffffffffffffffffffffffffffffffffffff0382111561134b5761134a6113a9565b5b828201905092915050565b600061136182611372565b9050919050565b6000819050919050565b600073ffffffffffffffffffffffffffffffffffffffff82169050919050565b6000819050919050565b600060ff82169050919050565b7f4e487b7100000000000000000000000000000000000000000000000000000000600052601160045260246000fd5b6113e181611356565b81146113ec57600080fd5b50565b6113f881611368565b811461140357600080fd5b50565b6002811061141357600080fd5b50565b61141f81611392565b811461142a57600080fd5b50565b6114368161139c565b811461144157600080fd5b5056fea2646970667358221220c5dc3e2174e466bd2e6b16f869db083d704ede309f6dfe7787f558928278e14264736f6c63430008000033",
  "immutableReferences": {},
  "source": "// SPDX-License-Identifier: GPL-3.0\npragma solidity >=0.6.0 <0.9.0;\n\n\nimport \"./AddressStorageLib.sol\";\nimport \"./ProfileStorageLib.sol\";\n\n\n/**\n * @title AccountStorage\n * @notice Provides interface for account balance and its profiles.\n */\ncontract AccountStorage {\n    enum Roles {REQUESTER, VOTER}\n\n    struct Profile {\n        // Keep title short :)\n        bytes32 title;\n        address account;\n\n        // VOTER - can vote for transaction request, cannot send\n        // REQUESTER - can send request, cannot vote.\n        AddressStorageLib.Permissions requsters;\n        AddressStorageLib.Permissions voters;\n        // 1-100;\n        uint8 consensusPercentage;\n    }\n\n    struct Account {\n        address owner;\n        uint balance;\n        ProfileStorageLib.Profiles profiles;\n    }\n\n    mapping(address => Account) internal accounts;\n    mapping(bytes32 => Profile) internal profiles;\n\n    /**\n     * @dev Throws if caller doesn't have `requester` permissions for profile\n     *      by `profileId` doesn't exists in `accountAddress` address.\n     */\n    modifier requireProfileRequester(bytes32 profileId) {\n        require(\n            AddressStorageLib.has(\n                profiles[profileId].requsters,\n                tx.origin\n            ),\n            \"Permission denied.\"\n        );\n        _;\n    }\n\n    // *** Getter Methods ***\n\n    /**\n     * @notice Get account balance and number of profiles.\n     * @dev To get all account profiles, use `for` loop for `profilesSize`\n     *      with `profile` method.\n     * @param accountAddress Address of account\n     * @return balance\n     * @return profilesSize\n     */\n    function account(address accountAddress) external view\n        returns (uint balance, uint profilesSize)\n    {\n        return (\n            accounts[accountAddress].balance,\n            accounts[accountAddress].profiles.keys.length\n        );\n    }\n\n    /**\n     * @notice Get profile details.\n     * @dev Use `profilesSize` from `account` method response to get maximum\n     *      profile index.\n     *      To get all profile requesters/voters, use `for` loop for\n     *      `requstersSize`/`votersSize` with `profileRoleAt`.\n     * @param profileId Profile id\n     * @return accountAddress\n     * @return title\n     * @return consensusPercentage\n     * @return requstersSize\n     * @return votersSize\n     */\n    function profile(bytes32 profileId) external view\n        returns (\n            address accountAddress,\n            bytes32 title,\n            uint8 consensusPercentage,\n            uint requstersSize,\n            uint votersSize\n        )\n    {\n        return (\n            profiles[profileId].account,\n            profiles[profileId].title,\n            profiles[profileId].consensusPercentage,\n            profiles[profileId].requsters.keys.length,\n            profiles[profileId].voters.keys.length\n        );\n    }\n\n    function profileIdAt(address accountAddress, uint profileIdx)\n        external view\n        returns (bytes32)\n    {\n        require(\n            profileIdx + 1 <= accounts[accountAddress].profiles.keys.length,\n            \"Profile doesn't exist.\"\n        );\n        return accounts[accountAddress].profiles.keys[profileIdx];\n    }\n\n    /**\n     * @notice Get user address in roles array by index.\n     * @dev Use `requstersSize`/`votersSize` from `profile` response to get\n     *      max possible index.\n     * @param profileId Profile id\n     * @return address\n     */\n    function profileRoleAt(\n        bytes32 profileId,\n        uint userIdx,\n        Roles role\n    )\n        external view\n        returns (address)\n    {\n        if (role == Roles.VOTER) {\n            return AddressStorageLib.at(\n                profiles[profileId].voters,\n                userIdx\n            );\n        }\n        else {\n            return AddressStorageLib.at(\n                profiles[profileId].requsters,\n                userIdx\n            );\n        }\n    }\n\n    // *** Setter Methods ***\n\n    /**\n     * @notice Add a new empty profile to account.\n     * @dev Use `editProfile` to set profile details.\n     */\n    function addProfile() external\n    {\n        address accountAddress = tx.origin;\n        bytes32 profileId = ProfileStorageLib.add(\n            accounts[accountAddress].profiles,\n            accountAddress\n        );\n        profiles[profileId].account = accountAddress;\n    }\n\n    /**\n     * @notice Edit profile details.\n     * @dev Throws if:\n     *      - Caller isn't account owner;\n     *      - Profile at index doesn't exist;\n     * @param profileId Profile id\n     * @param title Title in bytes32\n     * @param consensusPercentage Consensus percentage 1-100\n     */\n    function editProfile(\n        bytes32 profileId,\n        bytes32 title,\n        uint8 consensusPercentage\n    )\n        external\n    {\n        requireProfileOwner(profileId);\n        profiles[profileId].title = title;\n        profiles[profileId].consensusPercentage = consensusPercentage;\n    }\n\n    /**\n     * @notice Grant `role` permission for `user` in profile.\n     * @dev Throws if:\n     *      - Caller isn't account owner;\n     *      - Profile at index doesn't exist;\n     * @param profileId Profile id\n     * @param user User address\n     * @param role `Roles` enum\n     */\n    function addProfileRole(\n        bytes32 profileId,\n        address user,\n        Roles role\n    )\n        external\n    {\n        requireProfileOwner(profileId);\n        if (role == Roles.VOTER) {\n            AddressStorageLib.add(profiles[profileId].voters, user);\n        }\n        else {\n            AddressStorageLib.add(profiles[profileId].requsters, user);\n        }\n    }\n\n    // *** Delete Methods ***\n\n    /**\n     * @notice Removes profiles by index.\n     * @dev Throws if:\n     *      - Caller isn't account owner;\n     *      - Profile at index doesn't exist;\n     * @param profileId Profile id\n     */\n    function removeProfile(bytes32 profileId)\n        external\n    {\n        requireProfileOwner(profileId);\n        address accountAddress = profiles[profileId].account;\n        AddressStorageLib.clear(profiles[profileId].requsters);\n        AddressStorageLib.clear(profiles[profileId].voters);\n        profiles[profileId].consensusPercentage = 0;\n        profiles[profileId].title = '';\n        profiles[profileId].account = address(0);\n        ProfileStorageLib.remove(accounts[accountAddress].profiles, profileId);\n    }\n\n    /**\n     * @notice Revoke `role` permission for `user` in profile.\n     * @dev Throws if:\n     *      - Caller isn't account owner;\n     *      - Profile at index doesn't exist;\n     * @param profileId Profile id\n     * @param user User address\n     * @param role `Roles` enum\n     */\n    function removeProfileRole(\n        bytes32 profileId,\n        address user,\n        Roles role\n    )\n        external\n    {\n        requireProfileOwner(profileId);\n        if (role == Roles.VOTER) {\n            AddressStorageLib.remove(profiles[profileId].voters, user);\n        }\n        else {\n            AddressStorageLib.remove(profiles[profileId].requsters, user);\n        }\n    }\n\n    // *** Throw functions ***\n\n    /**\n     * @dev Throws if profile by `profileId` doesn't exists in\n     *      `accountAddress` address.\n     */\n    function requireProfileOwner(bytes32 profileId) internal view {\n        require(\n            tx.origin == profiles[profileId].account,\n            \"Permission denied.\"\n        );\n    }\n\n\n}\n",
  "sourcePath": "/Users/kunla/etest/delay-transaction/contracts/AccountStorage.sol",
  "compiler": {
    "name": "solc",
    "version": "0.8.0+commit.c7dfd78e.Emscripten.clang"
  },
  "schemaVersion": "3.3.3",
  "updatedAt": "2021-02-10T18:06:09.957Z",
  "devdoc": {
    "kind": "dev",
    "methods": {
      "account(address)": {
        "details": "To get all account profiles, use `for` loop for `profilesSize`      with `profile` method.",
        "params": {
          "accountAddress": "Address of account"
        },
        "returns": {
          "balance": "balance",
          "profilesSize": "profilesSize"
        }
      },
      "addProfile()": {
        "details": "Use `editProfile` to set profile details."
      },
      "addProfileRole(bytes32,address,uint8)": {
        "details": "Throws if:      - Caller isn't account owner;      - Profile at index doesn't exist;",
        "params": {
          "profileId": "Profile id",
          "role": "`Roles` enum",
          "user": "User address"
        }
      },
      "editProfile(bytes32,bytes32,uint8)": {
        "details": "Throws if:      - Caller isn't account owner;      - Profile at index doesn't exist;",
        "params": {
          "consensusPercentage": "Consensus percentage 1-100",
          "profileId": "Profile id",
          "title": "Title in bytes32"
        }
      },
      "profile(bytes32)": {
        "details": "Use `profilesSize` from `account` method response to get maximum      profile index.      To get all profile requesters/voters, use `for` loop for      `requstersSize`/`votersSize` with `profileRoleAt`.",
        "params": {
          "profileId": "Profile id"
        },
        "returns": {
          "accountAddress": "accountAddress",
          "consensusPercentage": "consensusPercentage",
          "requstersSize": "requstersSize",
          "title": "title",
          "votersSize": "votersSize"
        }
      },
      "profileRoleAt(bytes32,uint256,uint8)": {
        "details": "Use `requstersSize`/`votersSize` from `profile` response to get      max possible index.",
        "params": {
          "profileId": "Profile id"
        },
        "returns": {
          "_0": "address"
        }
      },
      "removeProfile(bytes32)": {
        "details": "Throws if:      - Caller isn't account owner;      - Profile at index doesn't exist;",
        "params": {
          "profileId": "Profile id"
        }
      },
      "removeProfileRole(bytes32,address,uint8)": {
        "details": "Throws if:      - Caller isn't account owner;      - Profile at index doesn't exist;",
        "params": {
          "profileId": "Profile id",
          "role": "`Roles` enum",
          "user": "User address"
        }
      }
    },
    "title": "AccountStorage",
    "version": 1
  },
  "userdoc": {
    "kind": "user",
    "methods": {
      "account(address)": {
        "notice": "Get account balance and number of profiles."
      },
      "addProfile()": {
        "notice": "Add a new empty profile to account."
      },
      "addProfileRole(bytes32,address,uint8)": {
        "notice": "Grant `role` permission for `user` in profile."
      },
      "editProfile(bytes32,bytes32,uint8)": {
        "notice": "Edit profile details."
      },
      "profile(bytes32)": {
        "notice": "Get profile details."
      },
      "profileRoleAt(bytes32,uint256,uint8)": {
        "notice": "Get user address in roles array by index."
      },
      "removeProfile(bytes32)": {
        "notice": "Removes profiles by index."
      },
      "removeProfileRole(bytes32,address,uint8)": {
        "notice": "Revoke `role` permission for `user` in profile."
      }
    },
    "notice": "Provides interface for account balance and its profiles.",
    "version": 1
  }
}