{
  "contractName": "Hub",
  "abi": [
    {
      "anonymous": false,
      "inputs": [
        {
          "indexed": false,
          "internalType": "uint256",
          "name": "uid",
          "type": "uint256"
        },
        {
          "indexed": false,
          "internalType": "bytes32",
          "name": "profileId",
          "type": "bytes32"
        },
        {
          "indexed": false,
          "internalType": "address",
          "name": "account",
          "type": "address"
        },
        {
          "indexed": false,
          "internalType": "address",
          "name": "to",
          "type": "address"
        },
        {
          "indexed": false,
          "internalType": "address",
          "name": "by",
          "type": "address"
        },
        {
          "indexed": false,
          "internalType": "uint256",
          "name": "amount",
          "type": "uint256"
        },
        {
          "indexed": false,
          "internalType": "address[]",
          "name": "voters",
          "type": "address[]"
        }
      ],
      "name": "TransactionRequest",
      "type": "event"
    },
    {
      "anonymous": false,
      "inputs": [
        {
          "indexed": false,
          "internalType": "uint256",
          "name": "uid",
          "type": "uint256"
        },
        {
          "indexed": false,
          "internalType": "bytes32",
          "name": "profileId",
          "type": "bytes32"
        },
        {
          "indexed": false,
          "internalType": "address",
          "name": "account",
          "type": "address"
        },
        {
          "indexed": false,
          "internalType": "address",
          "name": "to",
          "type": "address"
        },
        {
          "indexed": false,
          "internalType": "address",
          "name": "by",
          "type": "address"
        },
        {
          "indexed": false,
          "internalType": "enum TransactionLib.TransactionStatuses",
          "name": "status",
          "type": "uint8"
        }
      ],
      "name": "TransactionResponse",
      "type": "event"
    },
    {
      "anonymous": false,
      "inputs": [
        {
          "indexed": false,
          "internalType": "uint256",
          "name": "uid",
          "type": "uint256"
        },
        {
          "indexed": false,
          "internalType": "address",
          "name": "account",
          "type": "address"
        },
        {
          "indexed": false,
          "internalType": "address",
          "name": "voter",
          "type": "address"
        },
        {
          "indexed": false,
          "internalType": "enum TransactionLib.VoteStatuses",
          "name": "status",
          "type": "uint8"
        }
      ],
      "name": "TransactionVote",
      "type": "event"
    },
    {
      "inputs": [
        {
          "internalType": "address",
          "name": "accountAddress",
          "type": "address"
        }
      ],
      "name": "account",
      "outputs": [
        {
          "internalType": "uint256",
          "name": "balance",
          "type": "uint256"
        },
        {
          "internalType": "uint256",
          "name": "profilesSize",
          "type": "uint256"
        }
      ],
      "stateMutability": "view",
      "type": "function",
      "constant": true
    },
    {
      "inputs": [],
      "name": "addProfile",
      "outputs": [],
      "stateMutability": "nonpayable",
      "type": "function"
    },
    {
      "inputs": [
        {
          "internalType": "bytes32",
          "name": "profileId",
          "type": "bytes32"
        },
        {
          "internalType": "address",
          "name": "user",
          "type": "address"
        },
        {
          "internalType": "enum AccountStorage.Roles",
          "name": "role",
          "type": "uint8"
        }
      ],
      "name": "addProfileRole",
      "outputs": [],
      "stateMutability": "nonpayable",
      "type": "function"
    },
    {
      "inputs": [
        {
          "internalType": "bytes32",
          "name": "profileId",
          "type": "bytes32"
        },
        {
          "internalType": "bytes32",
          "name": "title",
          "type": "bytes32"
        },
        {
          "internalType": "uint8",
          "name": "consensusPercentage",
          "type": "uint8"
        }
      ],
      "name": "editProfile",
      "outputs": [],
      "stateMutability": "nonpayable",
      "type": "function"
    },
    {
      "inputs": [],
      "name": "lastUid",
      "outputs": [
        {
          "internalType": "uint256",
          "name": "",
          "type": "uint256"
        }
      ],
      "stateMutability": "view",
      "type": "function",
      "constant": true
    },
    {
      "inputs": [
        {
          "internalType": "bytes32",
          "name": "profileId",
          "type": "bytes32"
        }
      ],
      "name": "profile",
      "outputs": [
        {
          "internalType": "address",
          "name": "accountAddress",
          "type": "address"
        },
        {
          "internalType": "bytes32",
          "name": "title",
          "type": "bytes32"
        },
        {
          "internalType": "uint8",
          "name": "consensusPercentage",
          "type": "uint8"
        },
        {
          "internalType": "uint256",
          "name": "requstersSize",
          "type": "uint256"
        },
        {
          "internalType": "uint256",
          "name": "votersSize",
          "type": "uint256"
        }
      ],
      "stateMutability": "view",
      "type": "function",
      "constant": true
    },
    {
      "inputs": [
        {
          "internalType": "address",
          "name": "accountAddress",
          "type": "address"
        },
        {
          "internalType": "uint256",
          "name": "profileIdx",
          "type": "uint256"
        }
      ],
      "name": "profileIdAt",
      "outputs": [
        {
          "internalType": "bytes32",
          "name": "",
          "type": "bytes32"
        }
      ],
      "stateMutability": "view",
      "type": "function",
      "constant": true
    },
    {
      "inputs": [
        {
          "internalType": "bytes32",
          "name": "profileId",
          "type": "bytes32"
        },
        {
          "internalType": "uint256",
          "name": "userIdx",
          "type": "uint256"
        },
        {
          "internalType": "enum AccountStorage.Roles",
          "name": "role",
          "type": "uint8"
        }
      ],
      "name": "profileRoleAt",
      "outputs": [
        {
          "internalType": "address",
          "name": "",
          "type": "address"
        }
      ],
      "stateMutability": "view",
      "type": "function",
      "constant": true
    },
    {
      "inputs": [
        {
          "internalType": "bytes32",
          "name": "profileId",
          "type": "bytes32"
        }
      ],
      "name": "removeProfile",
      "outputs": [],
      "stateMutability": "nonpayable",
      "type": "function"
    },
    {
      "inputs": [
        {
          "internalType": "bytes32",
          "name": "profileId",
          "type": "bytes32"
        },
        {
          "internalType": "address",
          "name": "user",
          "type": "address"
        },
        {
          "internalType": "enum AccountStorage.Roles",
          "name": "role",
          "type": "uint8"
        }
      ],
      "name": "removeProfileRole",
      "outputs": [],
      "stateMutability": "nonpayable",
      "type": "function"
    },
    {
      "inputs": [
        {
          "internalType": "uint256",
          "name": "",
          "type": "uint256"
        }
      ],
      "name": "transactions",
      "outputs": [
        {
          "internalType": "bytes32",
          "name": "profileId",
          "type": "bytes32"
        },
        {
          "internalType": "address",
          "name": "account",
          "type": "address"
        },
        {
          "internalType": "address payable",
          "name": "to",
          "type": "address"
        },
        {
          "internalType": "uint256",
          "name": "amount",
          "type": "uint256"
        },
        {
          "internalType": "address",
          "name": "by",
          "type": "address"
        },
        {
          "internalType": "enum TransactionLib.TransactionStatuses",
          "name": "status",
          "type": "uint8"
        },
        {
          "internalType": "uint256",
          "name": "votersSize",
          "type": "uint256"
        },
        {
          "internalType": "uint256",
          "name": "consensus",
          "type": "uint256"
        },
        {
          "internalType": "uint256",
          "name": "approvalCount",
          "type": "uint256"
        },
        {
          "internalType": "uint256",
          "name": "rejectCount",
          "type": "uint256"
        }
      ],
      "stateMutability": "view",
      "type": "function",
      "constant": true
    },
    {
      "inputs": [
        {
          "internalType": "address",
          "name": "addr",
          "type": "address"
        },
        {
          "internalType": "uint256",
          "name": "idx",
          "type": "uint256"
        }
      ],
      "name": "txAt",
      "outputs": [
        {
          "internalType": "uint256",
          "name": "",
          "type": "uint256"
        }
      ],
      "stateMutability": "view",
      "type": "function",
      "constant": true
    },
    {
      "inputs": [
        {
          "internalType": "address",
          "name": "addr",
          "type": "address"
        }
      ],
      "name": "txSize",
      "outputs": [
        {
          "internalType": "uint256",
          "name": "",
          "type": "uint256"
        }
      ],
      "stateMutability": "view",
      "type": "function",
      "constant": true
    },
    {
      "inputs": [
        {
          "internalType": "uint256",
          "name": "txId",
          "type": "uint256"
        },
        {
          "internalType": "uint256",
          "name": "idx",
          "type": "uint256"
        }
      ],
      "name": "txVoterAt",
      "outputs": [
        {
          "internalType": "address",
          "name": "addr",
          "type": "address"
        },
        {
          "internalType": "enum TransactionLib.VoteStatuses",
          "name": "status",
          "type": "uint8"
        }
      ],
      "stateMutability": "view",
      "type": "function",
      "constant": true
    },
    {
      "stateMutability": "payable",
      "type": "receive",
      "payable": true
    },
    {
      "inputs": [
        {
          "internalType": "bytes32",
          "name": "profileId",
          "type": "bytes32"
        },
        {
          "internalType": "uint256",
          "name": "amount",
          "type": "uint256"
        },
        {
          "internalType": "address payable",
          "name": "to",
          "type": "address"
        }
      ],
      "name": "addRequest",
      "outputs": [],
      "stateMutability": "nonpayable",
      "type": "function"
    },
    {
      "inputs": [
        {
          "internalType": "uint256",
          "name": "txId",
          "type": "uint256"
        },
        {
          "internalType": "enum TransactionLib.VoteStatuses",
          "name": "status",
          "type": "uint8"
        }
      ],
      "name": "vote",
      "outputs": [],
      "stateMutability": "nonpayable",
      "type": "function"
    },
    {
      "inputs": [
        {
          "internalType": "address",
          "name": "accountAddress",
          "type": "address"
        }
      ],
      "name": "receiveAmount",
      "outputs": [],
      "stateMutability": "payable",
      "type": "function",
      "payable": true
    }
  ],
  "bytecode": "0x608060405234801561001057600080fd5b50612c58806100206000396000f3fe6080604052600436106101025760003560e01c80637340c30a11610095578063943e821611610064578063943e8216146103855780639ace38c2146103ae5780639bf5ddac146103f4578063b9b9c21e1461041d578063efa6affe1461043957610112565b80637340c30a146102b857806373b9aa91146102e15780637c52d8ec1461031f57806392ba262f1461034857610112565b80634064d09a116100d15780634064d09a146101d7578063454bc9e614610214578063573c70061461023d578063697ae4781461027b57610112565b8063088f6d5e1461011757806311c90ddd146101425780631c62094c1461017f5780633b093ddc1461019657610112565b366101125761011032610462565b005b600080fd5b34801561012357600080fd5b5061012c61053d565b604051610139919061290f565b60405180910390f35b34801561014e57600080fd5b50610169600480360381019061016491906120df565b610543565b604051610176919061290f565b60405180910390f35b34801561018b57600080fd5b5061019461058f565b005b3480156101a257600080fd5b506101bd60048036038101906101b89190612196565b6106ba565b6040516101ce95949392919061260f565b60405180910390f35b3480156101e357600080fd5b506101fe60048036038101906101f99190612131565b610781565b60405161020b919061290f565b60405180910390f35b34801561022057600080fd5b5061023b600480360381019061023691906121e8565b61089e565b005b34801561024957600080fd5b50610264600480360381019061025f9190612389565b610a26565b604051610272929190612662565b60405180910390f35b34801561028757600080fd5b506102a2600480360381019061029d91906122d5565b610b7c565b6040516102af91906125f4565b60405180910390f35b3480156102c457600080fd5b506102df60048036038101906102da9190612196565b610d43565b005b3480156102ed57600080fd5b50610308600480360381019061030391906120df565b610fce565b60405161031692919061292a565b60405180910390f35b34801561032b57600080fd5b5061034660048036038101906103419190612237565b611064565b005b34801561035457600080fd5b5061036f600480360381019061036a9190612131565b6110bc565b60405161037c919061268b565b60405180910390f35b34801561039157600080fd5b506103ac60048036038101906103a7919061234d565b6111e3565b005b3480156103ba57600080fd5b506103d560048036038101906103d09190612324565b6114c9565b6040516103eb9a999897969594939291906126a6565b60405180910390f35b34801561040057600080fd5b5061041b600480360381019061041691906121e8565b61158a565b005b610437600480360381019061043291906120df565b610462565b005b34801561044557600080fd5b50610460600480360381019061045b9190612286565b611712565b005b806000808373ffffffffffffffffffffffffffffffffffffffff1673ffffffffffffffffffffffffffffffffffffffff16815260200190815260200160002060000160006101000a81548173ffffffffffffffffffffffffffffffffffffffff021916908373ffffffffffffffffffffffffffffffffffffffff160217905550346000808373ffffffffffffffffffffffffffffffffffffffff1673ffffffffffffffffffffffffffffffffffffffff16815260200190815260200160002060010160008282546105339190612964565b9250508190555050565b60045481565b6000600260008373ffffffffffffffffffffffffffffffffffffffff1673ffffffffffffffffffffffffffffffffffffffff168152602001908152602001600020805490509050919050565b6000329050600073__ProfileStorageLib_____________________63d1368aa56000808573ffffffffffffffffffffffffffffffffffffffff1673ffffffffffffffffffffffffffffffffffffffff168152602001908152602001600020600201846040518363ffffffff1660e01b815260040161060f92919061284f565b60206040518083038186803b15801561062757600080fd5b505af415801561063b573d6000803e3d6000fd5b505050506040513d601f19601f8201168201806040525081019061065f91906121bf565b9050816001600083815260200190815260200160002060010160006101000a81548173ffffffffffffffffffffffffffffffffffffffff021916908373ffffffffffffffffffffffffffffffffffffffff1602179055505050565b60008060008060006001600087815260200190815260200160002060010160009054906101000a900473ffffffffffffffffffffffffffffffffffffffff1660016000888152602001908152602001600020600001546001600089815260200190815260200160002060060160009054906101000a900460ff16600160008a815260200190815260200160002060020160000180549050600160008b8152602001908152602001600020600401600001805490509450945094509450945091939590929450565b6000600260008473ffffffffffffffffffffffffffffffffffffffff1673ffffffffffffffffffffffffffffffffffffffff168152602001908152602001600020805490506001836107d39190612964565b1115610814576040517f08c379a000000000000000000000000000000000000000000000000000000000815260040161080b90612742565b60405180910390fd5b600260008473ffffffffffffffffffffffffffffffffffffffff1673ffffffffffffffffffffffffffffffffffffffff168152602001908152602001600020828154811061088b577f4e487b7100000000000000000000000000000000000000000000000000000000600052603260045260246000fd5b9060005260206000200154905092915050565b6108a783611ebf565b6001808111156108e0577f4e487b7100000000000000000000000000000000000000000000000000000000600052602160045260246000fd5b816001811115610919577f4e487b7100000000000000000000000000000000000000000000000000000000600052602160045260246000fd5b14156109a25773__AddressStorageLib_____________________6371bd1b3460016000868152602001908152602001600020600401846040518363ffffffff1660e01b815260040161096d9291906127fd565b60006040518083038186803b15801561098557600080fd5b505af4158015610999573d6000803e3d6000fd5b50505050610a21565b73__AddressStorageLib_____________________6371bd1b3460016000868152602001908152602001600020600201846040518363ffffffff1660e01b81526004016109f09291906127fd565b60006040518083038186803b158015610a0857600080fd5b505af4158015610a1c573d6000803e3d6000fd5b505050505b505050565b6000806003600085815260200190815260200160002060060180549050600184610a509190612964565b1115610a91576040517f08c379a0000000000000000000000000000000000000000000000000000000008152600401610a8890612762565b60405180910390fd5b6000600360008681526020019081526020016000206006018481548110610ae1577f4e487b7100000000000000000000000000000000000000000000000000000000600052603260045260246000fd5b9060005260206000200160009054906101000a900473ffffffffffffffffffffffffffffffffffffffff169050806003600087815260200190815260200160002060050160008373ffffffffffffffffffffffffffffffffffffffff1673ffffffffffffffffffffffffffffffffffffffff16815260200190815260200160002060009054906101000a900460ff1692509250509250929050565b6000600180811115610bb7577f4e487b7100000000000000000000000000000000000000000000000000000000600052602160045260246000fd5b826001811115610bf0577f4e487b7100000000000000000000000000000000000000000000000000000000600052602160045260246000fd5b1415610c9b5773__AddressStorageLib_____________________630ba06cb260016000878152602001908152602001600020600401856040518363ffffffff1660e01b8152600401610c44929190612826565b60206040518083038186803b158015610c5c57600080fd5b505af4158015610c70573d6000803e3d6000fd5b505050506040513d601f19601f82011682018060405250810190610c949190612108565b9050610d3c565b73__AddressStorageLib_____________________630ba06cb260016000878152602001908152602001600020600201856040518363ffffffff1660e01b8152600401610ce9929190612826565b60206040518083038186803b158015610d0157600080fd5b505af4158015610d15573d6000803e3d6000fd5b505050506040513d601f19601f82011682018060405250810190610d399190612108565b90505b9392505050565b610d4c81611ebf565b60006001600083815260200190815260200160002060010160009054906101000a900473ffffffffffffffffffffffffffffffffffffffff16905073__AddressStorageLib_____________________6380abfdeb600160008581526020019081526020016000206002016040518263ffffffff1660e01b8152600401610dd391906127e2565b60006040518083038186803b158015610deb57600080fd5b505af4158015610dff573d6000803e3d6000fd5b5050505073__AddressStorageLib_____________________6380abfdeb600160008581526020019081526020016000206004016040518263ffffffff1660e01b8152600401610e4f91906127e2565b60006040518083038186803b158015610e6757600080fd5b505af4158015610e7b573d6000803e3d6000fd5b5050505060006001600084815260200190815260200160002060060160006101000a81548160ff021916908360ff1602179055506000600160008481526020019081526020016000206000018190555060006001600084815260200190815260200160002060010160006101000a81548173ffffffffffffffffffffffffffffffffffffffff021916908373ffffffffffffffffffffffffffffffffffffffff16021790555073__ProfileStorageLib_____________________63d11cd7e26000808473ffffffffffffffffffffffffffffffffffffffff1673ffffffffffffffffffffffffffffffffffffffff168152602001908152602001600020600201846040518363ffffffff1660e01b8152600401610f9a929190612878565b60006040518083038186803b158015610fb257600080fd5b505af4158015610fc6573d6000803e3d6000fd5b505050505050565b6000806000808473ffffffffffffffffffffffffffffffffffffffff1673ffffffffffffffffffffffffffffffffffffffff168152602001908152602001600020600101546000808573ffffffffffffffffffffffffffffffffffffffff1673ffffffffffffffffffffffffffffffffffffffff1681526020019081526020016000206002016001018054905091509150915091565b61106d83611ebf565b816001600085815260200190815260200160002060000181905550806001600085815260200190815260200160002060060160006101000a81548160ff021916908360ff160217905550505050565b60008060008473ffffffffffffffffffffffffffffffffffffffff1673ffffffffffffffffffffffffffffffffffffffff168152602001908152602001600020600201600101805490506001836111139190612964565b1115611154576040517f08c379a000000000000000000000000000000000000000000000000000000000815260040161114b906127c2565b60405180910390fd5b6000808473ffffffffffffffffffffffffffffffffffffffff1673ffffffffffffffffffffffffffffffffffffffff16815260200190815260200160002060020160010182815481106111d0577f4e487b7100000000000000000000000000000000000000000000000000000000600052603260045260246000fd5b9060005260206000200154905092915050565b73__TransactionLib________________________63c36e3eea6003600085815260200190815260200160002084846040518463ffffffff1660e01b8152600401611230939291906128a1565b60006040518083038186803b15801561124857600080fd5b505af415801561125c573d6000803e3d6000fd5b50505050600060036000848152602001908152602001600020600301549050600260038111156112b5577f4e487b7100000000000000000000000000000000000000000000000000000000600052602160045260246000fd5b6003600085815260200190815260200160002060040160149054906101000a900460ff166003811115611311577f4e487b7100000000000000000000000000000000000000000000000000000000600052602160045260246000fd5b1415611399576003600084815260200190815260200160002060020160009054906101000a900473ffffffffffffffffffffffffffffffffffffffff1673ffffffffffffffffffffffffffffffffffffffff166108fc829081150290604051600060405180830381858888f19350505050158015611393573d6000803e3d6000fd5b506114c4565b6003808111156113d2577f4e487b7100000000000000000000000000000000000000000000000000000000600052602160045260246000fd5b6003600085815260200190815260200160002060040160149054906101000a900460ff16600381111561142e577f4e487b7100000000000000000000000000000000000000000000000000000000600052602160045260246000fd5b14156114c357806000806003600087815260200190815260200160002060010160009054906101000a900473ffffffffffffffffffffffffffffffffffffffff1673ffffffffffffffffffffffffffffffffffffffff1673ffffffffffffffffffffffffffffffffffffffff16815260200190815260200160002060010160008282546114bb9190612964565b925050819055505b5b505050565b60036020528060005260406000206000915090508060000154908060010160009054906101000a900473ffffffffffffffffffffffffffffffffffffffff16908060020160009054906101000a900473ffffffffffffffffffffffffffffffffffffffff16908060030154908060040160009054906101000a900473ffffffffffffffffffffffffffffffffffffffff16908060040160149054906101000a900460ff169080600701549080600801549080600901549080600a015490508a565b61159383611ebf565b6001808111156115cc577f4e487b7100000000000000000000000000000000000000000000000000000000600052602160045260246000fd5b816001811115611605577f4e487b7100000000000000000000000000000000000000000000000000000000600052602160045260246000fd5b141561168e5773__AddressStorageLib_____________________63b817d85660016000868152602001908152602001600020600401846040518363ffffffff1660e01b81526004016116599291906127fd565b60006040518083038186803b15801561167157600080fd5b505af4158015611685573d6000803e3d6000fd5b5050505061170d565b73__AddressStorageLib_____________________63b817d85660016000868152602001908152602001600020600201846040518363ffffffff1660e01b81526004016116dc9291906127fd565b60006040518083038186803b1580156116f457600080fd5b505af4158015611708573d6000803e3d6000fd5b505050505b505050565b8273__AddressStorageLib_____________________634ea1343f60016000848152602001908152602001600020600201326040518363ffffffff1660e01b81526004016117619291906127fd565b60206040518083038186803b15801561177957600080fd5b505af415801561178d573d6000803e3d6000fd5b505050506040513d601f19601f820116820180604052508101906117b1919061216d565b6117f0576040517f08c379a00000000000000000000000000000000000000000000000000000000081526004016117e7906127a2565b60405180910390fd5b60006001600086815260200190815260200160002060010160009054906101000a900473ffffffffffffffffffffffffffffffffffffffff169050836000808373ffffffffffffffffffffffffffffffffffffffff1673ffffffffffffffffffffffffffffffffffffffff1681526020019081526020016000206001015410156118af576040517f08c379a00000000000000000000000000000000000000000000000000000000081526004016118a690612782565b60405180910390fd5b836000808373ffffffffffffffffffffffffffffffffffffffff1673ffffffffffffffffffffffffffffffffffffffff168152602001908152602001600020600101600082825461190091906129ba565b925050819055506000600160008781526020019081526020016000206004016000018054806020026020016040519081016040528092919081815260200182805480156119a257602002820191906000526020600020905b8160009054906101000a900473ffffffffffffffffffffffffffffffffffffffff1673ffffffffffffffffffffffffffffffffffffffff1681526020019060010190808311611958575b5050505050905085600360006004548152602001908152602001600020600001819055508160036000600454815260200190815260200160002060010160006101000a81548173ffffffffffffffffffffffffffffffffffffffff021916908373ffffffffffffffffffffffffffffffffffffffff16021790555084600360006004548152602001908152602001600020600301819055508360036000600454815260200190815260200160002060020160006101000a81548173ffffffffffffffffffffffffffffffffffffffff021916908373ffffffffffffffffffffffffffffffffffffffff1602179055503360036000600454815260200190815260200160002060040160006101000a81548173ffffffffffffffffffffffffffffffffffffffff021916908373ffffffffffffffffffffffffffffffffffffffff160217905550806003600060045481526020019081526020016000206006019080519060200190611b14929190611f66565b5073__TransactionLib________________________635fe87453600360006004548152602001908152602001600020600454600160008b815260200190815260200160002060060160009054906101000a900460ff166040518463ffffffff1660e01b8152600401611b89939291906128d8565b60006040518083038186803b158015611ba157600080fd5b505af4158015611bb5573d6000803e3d6000fd5b5050505060005b8151811015611d645760016003600060045481526020019081526020016000206005016000848481518110611c1a577f4e487b7100000000000000000000000000000000000000000000000000000000600052603260045260246000fd5b602002602001015173ffffffffffffffffffffffffffffffffffffffff1673ffffffffffffffffffffffffffffffffffffffff16815260200190815260200160002060006101000a81548160ff02191690836003811115611ca4577f4e487b7100000000000000000000000000000000000000000000000000000000600052602160045260246000fd5b021790555060026000838381518110611ce6577f4e487b7100000000000000000000000000000000000000000000000000000000600052603260045260246000fd5b602002602001015173ffffffffffffffffffffffffffffffffffffffff1673ffffffffffffffffffffffffffffffffffffffff16815260200190815260200160002060045490806001815401808255809150506001900390600052602060002001600090919091909150558080611d5c90612aa9565b915050611bbc565b50600260003373ffffffffffffffffffffffffffffffffffffffff1673ffffffffffffffffffffffffffffffffffffffff1681526020019081526020016000206004549080600181540180825580915050600190039060005260206000200160009091909190915055600260008573ffffffffffffffffffffffffffffffffffffffff1673ffffffffffffffffffffffffffffffffffffffff1681526020019081526020016000206004549080600181540180825580915050600190039060005260206000200160009091909190915055600260008373ffffffffffffffffffffffffffffffffffffffff1673ffffffffffffffffffffffffffffffffffffffff1681526020019081526020016000206004549080600181540180825580915050600190039060005260206000200160009091909190915055600160046000828254611eb09190612964565b92505081905550505050505050565b6001600082815260200190815260200160002060010160009054906101000a900473ffffffffffffffffffffffffffffffffffffffff1673ffffffffffffffffffffffffffffffffffffffff163273ffffffffffffffffffffffffffffffffffffffff1614611f63576040517f08c379a0000000000000000000000000000000000000000000000000000000008152600401611f5a906127a2565b60405180910390fd5b50565b828054828255906000526020600020908101928215611fdf579160200282015b82811115611fde5782518260006101000a81548173ffffffffffffffffffffffffffffffffffffffff021916908373ffffffffffffffffffffffffffffffffffffffff16021790555091602001919060010190611f86565b5b509050611fec9190611ff0565b5090565b5b80821115612009576000816000905550600101611ff1565b5090565b60008135905061201c81612b78565b92915050565b60008151905061203181612b78565b92915050565b60008135905061204681612b8f565b92915050565b60008151905061205b81612ba6565b92915050565b60008135905061207081612bbd565b92915050565b60008151905061208581612bbd565b92915050565b60008135905061209a81612bd4565b92915050565b6000813590506120af81612be4565b92915050565b6000813590506120c481612bf4565b92915050565b6000813590506120d981612c0b565b92915050565b6000602082840312156120f157600080fd5b60006120ff8482850161200d565b91505092915050565b60006020828403121561211a57600080fd5b600061212884828501612022565b91505092915050565b6000806040838503121561214457600080fd5b60006121528582860161200d565b9250506020612163858286016120b5565b9150509250929050565b60006020828403121561217f57600080fd5b600061218d8482850161204c565b91505092915050565b6000602082840312156121a857600080fd5b60006121b684828501612061565b91505092915050565b6000602082840312156121d157600080fd5b60006121df84828501612076565b91505092915050565b6000806000606084860312156121fd57600080fd5b600061220b86828701612061565b935050602061221c8682870161200d565b925050604061222d8682870161208b565b9150509250925092565b60008060006060848603121561224c57600080fd5b600061225a86828701612061565b935050602061226b86828701612061565b925050604061227c868287016120ca565b9150509250925092565b60008060006060848603121561229b57600080fd5b60006122a986828701612061565b93505060206122ba868287016120b5565b92505060406122cb86828701612037565b9150509250925092565b6000806000606084860312156122ea57600080fd5b60006122f886828701612061565b9350506020612309868287016120b5565b925050604061231a8682870161208b565b9150509250925092565b60006020828403121561233657600080fd5b6000612344848285016120b5565b91505092915050565b6000806040838503121561236057600080fd5b600061236e858286016120b5565b925050602061237f858286016120a0565b9150509250929050565b6000806040838503121561239c57600080fd5b60006123aa858286016120b5565b92505060206123bb858286016120b5565b9150509250929050565b6123ce81612a00565b82525050565b6123dd816129ee565b82525050565b6123ec816129ee565b82525050565b6123fb81612a1e565b82525050565b61240a81612a1e565b82525050565b61241981612a85565b82525050565b61242881612a97565b82525050565b61243781612a97565b82525050565b600061244a602283612953565b91507f5472616e73616374696f6e20617420696e64657820646f65736e27742065786960008301527f73740000000000000000000000000000000000000000000000000000000000006020830152604082019050919050565b60006124b0601c83612953565b91507f566f74657220617420696e64657820646f65736e2774206578697374000000006000830152602082019050919050565b60006124f0601583612953565b91507f496e73756666696369656e742062616c616e63652e00000000000000000000006000830152602082019050919050565b6000612530601283612953565b91507f5065726d697373696f6e2064656e6965642e00000000000000000000000000006000830152602082019050919050565b6000612570601683612953565b91507f50726f66696c6520646f65736e27742065786973742e000000000000000000006000830152602082019050919050565b8082525050565b8082525050565b8082525050565b6125c181612a6e565b82525050565b6125d081612a6e565b82525050565b6125df81612a78565b82525050565b6125ee81612a78565b82525050565b600060208201905061260960008301846123d4565b92915050565b600060a08201905061262460008301886123d4565b61263160208301876123f2565b61263e60408301866125d6565b61264b60608301856125b8565b61265860808301846125b8565b9695505050505050565b600060408201905061267760008301856123d4565b612684602083018461241f565b9392505050565b60006020820190506126a060008301846123f2565b92915050565b6000610140820190506126bc600083018d6123f2565b6126c9602083018c6123d4565b6126d6604083018b6123c5565b6126e3606083018a6125b8565b6126f060808301896123d4565b6126fd60a0830188612410565b61270a60c08301876125b8565b61271760e08301866125b8565b6127256101008301856125b8565b6127336101208301846125b8565b9b9a5050505050505050505050565b6000602082019050818103600083015261275b8161243d565b9050919050565b6000602082019050818103600083015261277b816124a3565b9050919050565b6000602082019050818103600083015261279b816124e3565b9050919050565b600060208201905081810360008301526127bb81612523565b9050919050565b600060208201905081810360008301526127db81612563565b9050919050565b60006020820190506127f760008301846125a3565b92915050565b600060408201905061281260008301856125a3565b61281f60208301846123e3565b9392505050565b600060408201905061283b60008301856125a3565b61284860208301846125c7565b9392505050565b600060408201905061286460008301856125aa565b61287160208301846123e3565b9392505050565b600060408201905061288d60008301856125aa565b61289a6020830184612401565b9392505050565b60006060820190506128b660008301866125b1565b6128c360208301856125c7565b6128d0604083018461242e565b949350505050565b60006060820190506128ed60008301866125b1565b6128fa60208301856125c7565b61290760408301846125e5565b949350505050565b600060208201905061292460008301846125b8565b92915050565b600060408201905061293f60008301856125b8565b61294c60208301846125b8565b9392505050565b600082825260208201905092915050565b600061296f82612a6e565b915061297a83612a6e565b9250827fffffffffffffffffffffffffffffffffffffffffffffffffffffffffffffffff038211156129af576129ae612af2565b5b828201905092915050565b60006129c582612a6e565b91506129d083612a6e565b9250828210156129e3576129e2612af2565b5b828203905092915050565b60006129f982612a4e565b9050919050565b6000612a0b82612a4e565b9050919050565b60008115159050919050565b6000819050919050565b6000819050612a3682612b50565b919050565b6000819050612a4982612b64565b919050565b600073ffffffffffffffffffffffffffffffffffffffff82169050919050565b6000819050919050565b600060ff82169050919050565b6000612a9082612a28565b9050919050565b6000612aa282612a3b565b9050919050565b6000612ab482612a6e565b91507fffffffffffffffffffffffffffffffffffffffffffffffffffffffffffffffff821415612ae757612ae6612af2565b5b600182019050919050565b7f4e487b7100000000000000000000000000000000000000000000000000000000600052601160045260246000fd5b7f4e487b7100000000000000000000000000000000000000000000000000000000600052602160045260246000fd5b60048110612b6157612b60612b21565b5b50565b60048110612b7557612b74612b21565b5b50565b612b81816129ee565b8114612b8c57600080fd5b50565b612b9881612a00565b8114612ba357600080fd5b50565b612baf81612a12565b8114612bba57600080fd5b50565b612bc681612a1e565b8114612bd157600080fd5b50565b60028110612be157600080fd5b50565b60048110612bf157600080fd5b50565b612bfd81612a6e565b8114612c0857600080fd5b50565b612c1481612a78565b8114612c1f57600080fd5b5056fea264697066735822122066e26dd413ba54569d58f6e75822e3720c7f811af32c94480b8320c7f5e825a764736f6c63430008000033",
  "immutableReferences": {},
  "source": "// SPDX-License-Identifier: GPL-3.0\npragma solidity >=0.6.0 <0.9.0;\n\nimport \"./AccountStorage.sol\";\nimport \"./TransactionStorage.sol\";\nimport \"./TransactionLib.sol\";\n\n/**\n * @title Hub\n * @notice Hub that keeps account money. User can create a request to perform\n *     a transaction from account, but transaction will be performed only\n *     when voters approve it.\n *     Hub, for example, may be used for:\n *     - Simple consolidated account;\n *     - Processing request by oracles, eg:\n *         - Delay transaction: transaction is approved by oracle when gas\n *             price decreases to the desired level.\n *         - Safety processor: transaction is approved by oracle after it\n *             validates request destination safety (eg no suspicios activity\n *             recently, address is not envolved in any hack operations, etc)\n *     Transaction requests are created according to profiles in account,\n *     describing who can send request, who should vote and percentage of\n *     approvale required to transaction approval.\n * @dev Logic of transaction request:\n *      - Transaction is made accoding to profile with `addRequest` method;\n *      - Only user with `requester` role in profile;\n *      - When transaction request is created:\n *          - account balance is reduced by `amount`;\n *          - voters are copied from profile to transaction;\n *          - voters consensus number is calculated acording to profile\n *            `consensusPercentage` and voters size.\n *            Number is rounded up: `26%` of `4` gives `2`;\n *          - transaction id is added to `transactionsByAddress` for `account`,\n *              `requester`, `to` and all voters, so any participant can get\n *              list of related transactions by `txSize`/`txAt` methods.\n *      - Each voter can vote only once with `vote` method. Voter - address that\n *        is saved in transaction voters list, doesn't matter if it was removed\n *        from profile or added after transaction;\n *      - Voting is possible only while transaction is in\n *        `TransactionLib.TransactionStatuses.PENDING` status.\n *      - As soon as `consensus` number of voters have made their vote,\n *        transaction status is changed to\n *        `TransactionLib.TransactionStatuses.APPROVED` or\n *        `TransactionLib.TransactionStatuses.REJECTED`.\n *      - If all voters made their voting without consensus, transaction status\n *        is changed to `REJECTED`;\n *      - As soon as transaction status has been changed to `APPROVED`,\n *        requested amount is transfered to requested distination address.\n *      - As soon as transaction status has been changed to `REJECTED`,\n *        blocked amount is returned to account balance.\n *\n *  TBD: withdraw money blocked by transaction request back to account balance\n *      when consensus wasn't reached during some timeout time\n *  TBD: Calculate `consensus is impossible` situation as soon as it become\n *      clear (eg consensus requires 3/5 approve and 3 voters already rejected\n *      it), not when all votes have been made.\n *  TBD: Use `fallback` instead of `addRequest` so it would be possible to\n *      send custom payload with request.\n */\ncontract Hub is AccountStorage, TransactionStorage {\n\n    receive() external payable {\n        receiveAmount(tx.origin);\n    }\n\n    /**\n     * @notice Send transaction request from `accountAddress` to `to`\n     *      according to `profileId` profile\n     * @dev Throws if:\n     *      - User doesn't have `requester` permissions for profile;\n     *      - Account doesn't have sufficient balance;\n     *      - Profile `voters` is empty array;\n     *      - Profile `consensusPersentage` is 0;\n     *      Events:\n     *      - TransactionRequest (from TransactionLib);\n     * @param profileId Profile id according to which transaction request is\n     *        made - who are voters of this transaction and what is consensus %\n     * @param amount Amount to send\n     * @param to Payable address of money reciever\n     */\n    function addRequest(\n        bytes32 profileId,\n        uint amount,\n        address payable to\n    )\n        external\n        requireProfileRequester(profileId)\n    {\n        address accountAddress = profiles[profileId].account;\n        require(\n            accounts[accountAddress].balance >= amount,\n            \"Insufficient balance.\"\n        );\n        accounts[accountAddress].balance -= amount;\n\n        address[] memory voters = profiles[profileId].voters.keys;\n        transactions[lastUid].profileId = profileId;\n        transactions[lastUid].account = accountAddress;\n        transactions[lastUid].amount = amount;\n        transactions[lastUid].to = to;\n        transactions[lastUid].by = msg.sender;\n        transactions[lastUid].voters = voters;\n\n        TransactionLib.add(\n            transactions[lastUid],\n            lastUid,\n            profiles[profileId].consensusPercentage\n        );\n\n        for (uint i = 0; i < voters.length; i++) {\n            transactions[lastUid].voterStatuses[voters[i]] = TransactionLib.VoteStatuses.PENDING;\n            transactionsByAddress[voters[i]].push(lastUid);\n        }\n\n        transactionsByAddress[msg.sender].push(lastUid);\n        transactionsByAddress[to].push(lastUid);\n        transactionsByAddress[accountAddress].push(lastUid);\n        lastUid += 1;\n    }\n\n    /**\n     * @notice Vote for transaction with status.\n     * @dev Throws and events: see `TransactionLib.add`;\n     * @param txId Transacyion id\n     * @param status `TransactionLib.VoteStatuses` enum\n     */\n    function vote(uint txId, TransactionLib.VoteStatuses status) external {\n        TransactionLib.vote(transactions[txId], txId, status);\n        uint amount = transactions[txId].amount;\n        if (transactions[txId].status == TransactionLib.TransactionStatuses.APPROVED) {\n            transactions[txId].to.transfer(amount);\n        }\n        else if (transactions[txId].status == TransactionLib.TransactionStatuses.REJECTED) {\n            // In case of rejection - return money back to account\n            accounts[transactions[txId].account].balance += amount;\n        }\n    }\n\n    /**\n     * @notice Add money to `accountAddress` account.\n     * @param accountAddress Address of account in Hub\n     */\n    function receiveAmount (address accountAddress) public payable {\n        accounts[accountAddress].owner = accountAddress;\n        accounts[accountAddress].balance += msg.value;\n    }\n\n}\n",
  "sourcePath": "/Users/kunla/etest/delay-transaction/contracts/Hub.sol",
  "compiler": {
    "name": "solc",
    "version": "0.8.0+commit.c7dfd78e.Emscripten.clang"
  },
  "schemaVersion": "3.3.3",
  "updatedAt": "2021-02-10T22:24:17.770Z",
  "networkType": "ethereum",
  "devdoc": {
    "details": "Logic of transaction request:      - Transaction is made accoding to profile with `addRequest` method;      - Only user with `requester` role in profile;      - When transaction request is created:          - account balance is reduced by `amount`;          - voters are copied from profile to transaction;          - voters consensus number is calculated acording to profile            `consensusPercentage` and voters size.            Number is rounded up: `26%` of `4` gives `2`;          - transaction id is added to `transactionsByAddress` for `account`,              `requester`, `to` and all voters, so any participant can get              list of related transactions by `txSize`/`txAt` methods.      - Each voter can vote only once with `vote` method. Voter - address that        is saved in transaction voters list, doesn't matter if it was removed        from profile or added after transaction;      - Voting is possible only while transaction is in        `TransactionLib.TransactionStatuses.PENDING` status.      - As soon as `consensus` number of voters have made their vote,        transaction status is changed to        `TransactionLib.TransactionStatuses.APPROVED` or        `TransactionLib.TransactionStatuses.REJECTED`.      - If all voters made their voting without consensus, transaction status        is changed to `REJECTED`;      - As soon as transaction status has been changed to `APPROVED`,        requested amount is transfered to requested distination address.      - As soon as transaction status has been changed to `REJECTED`,        blocked amount is returned to account balance.  TBD: withdraw money blocked by transaction request back to account balance      when consensus wasn't reached during some timeout time  TBD: Calculate `consensus is impossible` situation as soon as it become      clear (eg consensus requires 3/5 approve and 3 voters already rejected      it), not when all votes have been made.  TBD: Use `fallback` instead of `addRequest` so it would be possible to      send custom payload with request.",
    "kind": "dev",
    "methods": {
      "account(address)": {
        "details": "To get all account profiles, use `for` loop for `profilesSize`      with `profile` method.",
        "params": {
          "accountAddress": "Address of account"
        },
        "returns": {
          "balance": "balance",
          "profilesSize": "profilesSize"
        }
      },
      "addProfile()": {
        "details": "Use `editProfile` to set profile details."
      },
      "addProfileRole(bytes32,address,uint8)": {
        "details": "Throws if:      - Caller isn't account owner;      - Profile at index doesn't exist;",
        "params": {
          "profileId": "Profile id",
          "role": "`Roles` enum",
          "user": "User address"
        }
      },
      "addRequest(bytes32,uint256,address)": {
        "details": "Throws if:      - User doesn't have `requester` permissions for profile;      - Account doesn't have sufficient balance;      - Profile `voters` is empty array;      - Profile `consensusPersentage` is 0;      Events:      - TransactionRequest (from TransactionLib);",
        "params": {
          "amount": "Amount to send",
          "profileId": "Profile id according to which transaction request is        made - who are voters of this transaction and what is consensus %",
          "to": "Payable address of money reciever"
        }
      },
      "editProfile(bytes32,bytes32,uint8)": {
        "details": "Throws if:      - Caller isn't account owner;      - Profile at index doesn't exist;",
        "params": {
          "consensusPercentage": "Consensus percentage 1-100",
          "profileId": "Profile id",
          "title": "Title in bytes32"
        }
      },
      "profile(bytes32)": {
        "details": "Use `profilesSize` from `account` method response to get maximum      profile index.      To get all profile requesters/voters, use `for` loop for      `requstersSize`/`votersSize` with `profileRoleAt`.",
        "params": {
          "profileId": "Profile id"
        },
        "returns": {
          "accountAddress": "accountAddress",
          "consensusPercentage": "consensusPercentage",
          "requstersSize": "requstersSize",
          "title": "title",
          "votersSize": "votersSize"
        }
      },
      "profileRoleAt(bytes32,uint256,uint8)": {
        "details": "Use `requstersSize`/`votersSize` from `profile` response to get      max possible index.",
        "params": {
          "profileId": "Profile id"
        },
        "returns": {
          "_0": "address"
        }
      },
      "receiveAmount(address)": {
        "params": {
          "accountAddress": "Address of account in Hub"
        }
      },
      "removeProfile(bytes32)": {
        "details": "Throws if:      - Caller isn't account owner;      - Profile at index doesn't exist;",
        "params": {
          "profileId": "Profile id"
        }
      },
      "removeProfileRole(bytes32,address,uint8)": {
        "details": "Throws if:      - Caller isn't account owner;      - Profile at index doesn't exist;",
        "params": {
          "profileId": "Profile id",
          "role": "`Roles` enum",
          "user": "User address"
        }
      },
      "txAt(address,uint256)": {
        "details": "Use `transactions` method to get transaction details.",
        "params": {
          "addr": "User address",
          "idx": "Transaction index in user transactions array"
        },
        "returns": {
          "_0": "uint Transaction id."
        }
      },
      "txSize(address)": {
        "details": "Use `for` loop and `txAt` method to get all user related      transaction ids.",
        "params": {
          "addr": "User address"
        },
        "returns": {
          "_0": "uint"
        }
      },
      "txVoterAt(uint256,uint256)": {
        "params": {
          "idx": "Voter index in transaction voters array.",
          "txId": "Transaction id"
        },
        "returns": {
          "addr": "Voter address",
          "status": "`TransactionLib.VoteStatuses` enum"
        }
      },
      "vote(uint256,uint8)": {
        "details": "Throws and events: see `TransactionLib.add`;",
        "params": {
          "status": "`TransactionLib.VoteStatuses` enum",
          "txId": "Transacyion id"
        }
      }
    },
    "title": "Hub",
    "version": 1
  },
  "userdoc": {
    "kind": "user",
    "methods": {
      "account(address)": {
        "notice": "Get account balance and number of profiles."
      },
      "addProfile()": {
        "notice": "Add a new empty profile to account."
      },
      "addProfileRole(bytes32,address,uint8)": {
        "notice": "Grant `role` permission for `user` in profile."
      },
      "addRequest(bytes32,uint256,address)": {
        "notice": "Send transaction request from `accountAddress` to `to`      according to `profileId` profile"
      },
      "editProfile(bytes32,bytes32,uint8)": {
        "notice": "Edit profile details."
      },
      "profile(bytes32)": {
        "notice": "Get profile details."
      },
      "profileRoleAt(bytes32,uint256,uint8)": {
        "notice": "Get user address in roles array by index."
      },
      "receiveAmount(address)": {
        "notice": "Add money to `accountAddress` account."
      },
      "removeProfile(bytes32)": {
        "notice": "Removes profiles by index."
      },
      "removeProfileRole(bytes32,address,uint8)": {
        "notice": "Revoke `role` permission for `user` in profile."
      },
      "txAt(address,uint256)": {
        "notice": "Get user transaction at index"
      },
      "txSize(address)": {
        "notice": "Get size of user related transactions."
      },
      "txVoterAt(uint256,uint256)": {
        "notice": "Get transaction voter info by voter index."
      },
      "vote(uint256,uint8)": {
        "notice": "Vote for transaction with status."
      }
    },
    "notice": "Hub that keeps account money. User can create a request to perform     a transaction from account, but transaction will be performed only     when voters approve it.     Hub, for example, may be used for:     - Simple consolidated account;     - Processing request by oracles, eg:         - Delay transaction: transaction is approved by oracle when gas             price decreases to the desired level.         - Safety processor: transaction is approved by oracle after it             validates request destination safety (eg no suspicios activity             recently, address is not envolved in any hack operations, etc)     Transaction requests are created according to profiles in account,     describing who can send request, who should vote and percentage of     approvale required to transaction approval.",
    "version": 1
  }
}