{
  "contractName": "TransactionStorage",
  "abi": [
    {
      "inputs": [],
      "name": "lastUid",
      "outputs": [
        {
          "internalType": "uint256",
          "name": "",
          "type": "uint256"
        }
      ],
      "stateMutability": "view",
      "type": "function"
    },
    {
      "inputs": [
        {
          "internalType": "uint256",
          "name": "",
          "type": "uint256"
        }
      ],
      "name": "transactions",
      "outputs": [
        {
          "internalType": "address",
          "name": "account",
          "type": "address"
        },
        {
          "internalType": "address payable",
          "name": "to",
          "type": "address"
        },
        {
          "internalType": "uint256",
          "name": "amount",
          "type": "uint256"
        },
        {
          "internalType": "address",
          "name": "by",
          "type": "address"
        },
        {
          "internalType": "enum TransactionLib.TransactionStatuses",
          "name": "status",
          "type": "uint8"
        },
        {
          "internalType": "uint256",
          "name": "consensus",
          "type": "uint256"
        },
        {
          "internalType": "uint256",
          "name": "approvalCount",
          "type": "uint256"
        },
        {
          "internalType": "uint256",
          "name": "rejectCount",
          "type": "uint256"
        }
      ],
      "stateMutability": "view",
      "type": "function"
    },
    {
      "inputs": [
        {
          "internalType": "address",
          "name": "addr",
          "type": "address"
        }
      ],
      "name": "txSize",
      "outputs": [
        {
          "internalType": "uint256",
          "name": "",
          "type": "uint256"
        }
      ],
      "stateMutability": "view",
      "type": "function"
    },
    {
      "inputs": [
        {
          "internalType": "address",
          "name": "addr",
          "type": "address"
        },
        {
          "internalType": "uint256",
          "name": "idx",
          "type": "uint256"
        }
      ],
      "name": "txAt",
      "outputs": [
        {
          "internalType": "uint256",
          "name": "",
          "type": "uint256"
        }
      ],
      "stateMutability": "view",
      "type": "function"
    },
    {
      "inputs": [
        {
          "internalType": "uint256",
          "name": "txId",
          "type": "uint256"
        }
      ],
      "name": "txVotersSize",
      "outputs": [
        {
          "internalType": "uint256",
          "name": "",
          "type": "uint256"
        }
      ],
      "stateMutability": "view",
      "type": "function"
    },
    {
      "inputs": [
        {
          "internalType": "uint256",
          "name": "txId",
          "type": "uint256"
        },
        {
          "internalType": "uint256",
          "name": "idx",
          "type": "uint256"
        }
      ],
      "name": "txVoterAt",
      "outputs": [
        {
          "internalType": "address",
          "name": "addr",
          "type": "address"
        },
        {
          "internalType": "enum TransactionLib.VoteStatuses",
          "name": "status",
          "type": "uint8"
        }
      ],
      "stateMutability": "view",
      "type": "function"
    }
  ],
  "bytecode": "0x608060405234801561001057600080fd5b506109e7806100206000396000f3fe608060405234801561001057600080fd5b50600436106100625760003560e01c8063088f6d5e1461006757806311c90ddd146100855780634064d09a146100b5578063573c7006146100e557806390a6a426146101165780639ace38c214610146575b600080fd5b61006f61017d565b60405161007c91906107e3565b60405180910390f35b61009f600480360381019061009a9190610541565b610183565b6040516100ac91906107e3565b60405180910390f35b6100cf60048036038101906100ca919061056a565b6101ce565b6040516100dc91906107e3565b60405180910390f35b6100ff60048036038101906100fa91906105cf565b6102e9565b60405161010d92919061077a565b60405180910390f35b610130600480360381019061012b91906105a6565b61043f565b60405161013d91906107e3565b60405180910390f35b610160600480360381019061015b91906105a6565b610462565b6040516101749897969594939291906106fc565b60405180910390f35b60025481565b60008060008373ffffffffffffffffffffffffffffffffffffffff1673ffffffffffffffffffffffffffffffffffffffff168152602001908152602001600020805490509050919050565b60008060008473ffffffffffffffffffffffffffffffffffffffff1673ffffffffffffffffffffffffffffffffffffffff1681526020019081526020016000208054905060018361021f919061080f565b1115610260576040517f08c379a0000000000000000000000000000000000000000000000000000000008152600401610257906107a3565b60405180910390fd5b6000808473ffffffffffffffffffffffffffffffffffffffff1673ffffffffffffffffffffffffffffffffffffffff16815260200190815260200160002082815481106102d6577f4e487b7100000000000000000000000000000000000000000000000000000000600052603260045260246000fd5b9060005260206000200154905092915050565b6000806001600085815260200190815260200160002060050180549050600184610313919061080f565b1115610354576040517f08c379a000000000000000000000000000000000000000000000000000000000815260040161034b906107c3565b60405180910390fd5b60006001600086815260200190815260200160002060050184815481106103a4577f4e487b7100000000000000000000000000000000000000000000000000000000600052603260045260246000fd5b9060005260206000200160009054906101000a900473ffffffffffffffffffffffffffffffffffffffff169050806001600087815260200190815260200160002060040160008373ffffffffffffffffffffffffffffffffffffffff1673ffffffffffffffffffffffffffffffffffffffff16815260200190815260200160002060009054906101000a900460ff1692509250509250929050565b600060016000838152602001908152602001600020600501805490509050919050565b60016020528060005260406000206000915090508060000160009054906101000a900473ffffffffffffffffffffffffffffffffffffffff16908060010160009054906101000a900473ffffffffffffffffffffffffffffffffffffffff16908060020154908060030160009054906101000a900473ffffffffffffffffffffffffffffffffffffffff16908060030160149054906101000a900460ff16908060060154908060070154908060080154905088565b60008135905061052681610983565b92915050565b60008135905061053b8161099a565b92915050565b60006020828403121561055357600080fd5b600061056184828501610517565b91505092915050565b6000806040838503121561057d57600080fd5b600061058b85828601610517565b925050602061059c8582860161052c565b9150509250929050565b6000602082840312156105b857600080fd5b60006105c68482850161052c565b91505092915050565b600080604083850312156105e257600080fd5b60006105f08582860161052c565b92505060206106018582860161052c565b9150509250929050565b61061481610877565b82525050565b61062381610865565b82525050565b610632816108d9565b82525050565b610641816108eb565b82525050565b60006106546022836107fe565b91507f5472616e73616374696f6e20617420696e64657820646f65736e27742065786960008301527f73740000000000000000000000000000000000000000000000000000000000006020830152604082019050919050565b60006106ba601c836107fe565b91507f566f74657220617420696e64657820646f65736e2774206578697374000000006000830152602082019050919050565b6106f6816108cf565b82525050565b600061010082019050610712600083018b61061a565b61071f602083018a61060b565b61072c60408301896106ed565b610739606083018861061a565b6107466080830187610629565b61075360a08301866106ed565b61076060c08301856106ed565b61076d60e08301846106ed565b9998505050505050505050565b600060408201905061078f600083018561061a565b61079c6020830184610638565b9392505050565b600060208201905081810360008301526107bc81610647565b9050919050565b600060208201905081810360008301526107dc816106ad565b9050919050565b60006020820190506107f860008301846106ed565b92915050565b600082825260208201905092915050565b600061081a826108cf565b9150610825836108cf565b9250827fffffffffffffffffffffffffffffffffffffffffffffffffffffffffffffffff0382111561085a576108596108fd565b5b828201905092915050565b6000610870826108af565b9050919050565b6000610882826108af565b9050919050565b60008190506108978261095b565b919050565b60008190506108aa8261096f565b919050565b600073ffffffffffffffffffffffffffffffffffffffff82169050919050565b6000819050919050565b60006108e482610889565b9050919050565b60006108f68261089c565b9050919050565b7f4e487b7100000000000000000000000000000000000000000000000000000000600052601160045260246000fd5b7f4e487b7100000000000000000000000000000000000000000000000000000000600052602160045260246000fd5b6004811061096c5761096b61092c565b5b50565b600481106109805761097f61092c565b5b50565b61098c81610865565b811461099757600080fd5b50565b6109a3816108cf565b81146109ae57600080fd5b5056fea264697066735822122088145d811b9c2ef7107ceb64170ed894246323b99eaecbd88c8b60a3c198315264736f6c63430008000033",
  "immutableReferences": {},
  "source": "// SPDX-License-Identifier: GPL-3.0\npragma solidity >=0.6.0 <0.9.0;\n\nimport \"./TransactionLib.sol\";\n\n/**\n * @title TransactionLib\n * @dev Keeps methods to access to stored transactions.\n */\ncontract TransactionStorage {\n    /// @dev it is not unique list, for example, if profile user sends request\n    ///  with themselves as `to`, the same address will have txId twice.\n    mapping(address => uint[]) internal transactionsByAddress;\n    mapping(uint => TransactionLib.Transaction) public transactions;\n    /// @dev To get all transactions, use `for` loop and `transaction` method\n    ///         with `lastUid - 1` as the last index.\n    uint public lastUid;\n\n    // *\n    //  * @notice Get detailed info of transaction. Additionally to `Transaction`\n    //  *          struct, contains `myVoterStatus` and `voterSize`\n    //  * @param transactionId Transaction id\n    //  * @return account Account address which transaction belongs to.\n    //  * @return to Address to whom this transaction is meant to.\n    //  * @return amount Amount.\n    //  * @return by Address by whom transaction is made.\n    //  * @return status `TransactionLib.TransactionStatuses` transaction status.\n    //  * @return voterSize Number of all transaction voters.\n    //  * @return myVoterStatus `TransactionLib.VoteStatuses` voter status of\n    //  *                  tx origin\n    //  * @return consensus Number of transaction boters required to change\n    //  *                  transaction status to APPROVED/REJECTED\n    //  * @return approvalCount Number of \"approve\" votings made.\n    //  * @return rejectCount Number of \"reject\" votings made.\n    // function transaction(uint transactionId)\n    //     external view\n    //     returns (\n    //         address account,\n    //         address to,\n    //         uint amount,\n    //         address by,\n    //         TransactionLib.TransactionStatuses status,\n    //         uint voterSize,\n    //         TransactionLib.VoteStatuses myVoterStatus,\n    //         uint consensus,\n    //         uint approvalCount,\n    //         uint rejectCount\n    //     )\n    // {\n    //     TransactionLib.Transaction storage tx_ = transactions[transactionId];\n    //     return (\n    //         tx_.account,\n    //         tx_.to,\n    //         tx_.amount,\n    //         tx_.by,\n    //         tx_.status,\n    //         tx_.voters.length,\n    //         tx_.voterStatuses[tx.origin],\n    //         tx_.consensus,\n    //         tx_.approvalCount,\n    //         tx_.rejectCount\n    //     );\n    // }\n\n\n    /**\n     * @notice Get size of user related transactions.\n     * @dev Use `for` loop and `txAt` method to get all user related\n     *      transaction ids.\n     * @param addr User address\n     * @return uint\n     */\n    function txSize(address addr)\n        external view\n        returns (uint)\n    {\n        return transactionsByAddress[addr].length;\n    }\n\n    /**\n     * @notice Get user transaction at index\n     * @dev Use `transactions` method to get transaction details.\n     * @param addr User address\n     * @param idx Transaction index in user transactions array\n     * @return uint Transaction id.\n     */\n    function txAt(address addr, uint idx)\n        external view\n        returns (uint)\n    {\n        require(\n            idx + 1 <= transactionsByAddress[addr].length,\n            \"Transaction at index doesn't exist\"\n        );\n        return transactionsByAddress[addr][idx];\n    }\n\n    // TODO `transaction` view which is the same as `transactions` but adds\n    // vote_status for msg.sender\n\n    /**\n     * TODO: Replace with `voterSize` in transaction itself\n     * @notice Get size of transaction voters.\n     * @dev Use `for` loop and `txVoterAt` method to get all transaction voters.\n     * @param txId Transaction id\n     * @return uint\n     */\n    function txVotersSize(uint txId)\n        external view\n        returns (uint)\n    {\n        return transactions[txId].voters.length;\n    }\n\n    /**\n     * @notice Get transaction voter info by voter index.\n     * @param txId Transaction id\n     * @param idx Voter index in transaction voters array.\n     * @return addr Voter address\n     * @return status `TransactionLib.VoteStatuses` enum\n     */\n    function txVoterAt(uint txId, uint idx)\n        external view\n        returns (address addr, TransactionLib.VoteStatuses status)\n    {\n        require(\n            idx + 1 <= transactions[txId].voters.length,\n            \"Voter at index doesn't exist\"\n        );\n        address voter = transactions[txId].voters[idx];\n        return (\n            voter,\n            transactions[txId].voterStatuses[voter]\n        );\n    }\n\n}\n",
  "sourcePath": "/Users/kunla/etest/delay-transaction/contracts/TransactionStorage.sol",
  "compiler": {
    "name": "solc",
    "version": "0.8.0+commit.c7dfd78e.Emscripten.clang"
  },
  "schemaVersion": "3.3.3",
  "updatedAt": "2021-02-09T21:50:32.716Z",
  "devdoc": {
    "details": "Keeps methods to access to stored transactions.",
    "kind": "dev",
    "methods": {
      "txAt(address,uint256)": {
        "details": "Use `transactions` method to get transaction details.",
        "params": {
          "addr": "User address",
          "idx": "Transaction index in user transactions array"
        },
        "returns": {
          "_0": "uint Transaction id."
        }
      },
      "txSize(address)": {
        "details": "Use `for` loop and `txAt` method to get all user related      transaction ids.",
        "params": {
          "addr": "User address"
        },
        "returns": {
          "_0": "uint"
        }
      },
      "txVoterAt(uint256,uint256)": {
        "params": {
          "idx": "Voter index in transaction voters array.",
          "txId": "Transaction id"
        },
        "returns": {
          "addr": "Voter address",
          "status": "`TransactionLib.VoteStatuses` enum"
        }
      },
      "txVotersSize(uint256)": {
        "details": "Use `for` loop and `txVoterAt` method to get all transaction voters.",
        "params": {
          "txId": "Transaction id"
        },
        "returns": {
          "_0": "uint"
        }
      }
    },
    "stateVariables": {
      "lastUid": {
        "details": "To get all transactions, use `for` loop and `transaction` method         with `lastUid - 1` as the last index."
      },
      "transactionsByAddress": {
        "details": "it is not unique list, for example, if profile user sends request  with themselves as `to`, the same address will have txId twice."
      }
    },
    "title": "TransactionLib",
    "version": 1
  },
  "userdoc": {
    "kind": "user",
    "methods": {
      "txAt(address,uint256)": {
        "notice": "Get user transaction at index"
      },
      "txSize(address)": {
        "notice": "Get size of user related transactions."
      },
      "txVoterAt(uint256,uint256)": {
        "notice": "Get transaction voter info by voter index."
      },
      "txVotersSize(uint256)": {
        "notice": "TODO: Replace with `voterSize` in transaction itselfGet size of transaction voters."
      }
    },
    "version": 1
  }
}