{
  "contractName": "TransactionStorage",
  "abi": [
    {
      "anonymous": false,
      "inputs": [
        {
          "indexed": false,
          "internalType": "uint256",
          "name": "uid",
          "type": "uint256"
        },
        {
          "indexed": false,
          "internalType": "bytes32",
          "name": "profileId",
          "type": "bytes32"
        },
        {
          "indexed": false,
          "internalType": "address",
          "name": "account",
          "type": "address"
        },
        {
          "indexed": false,
          "internalType": "address",
          "name": "to",
          "type": "address"
        },
        {
          "indexed": false,
          "internalType": "address",
          "name": "by",
          "type": "address"
        },
        {
          "indexed": false,
          "internalType": "uint256",
          "name": "amount",
          "type": "uint256"
        },
        {
          "indexed": false,
          "internalType": "address[]",
          "name": "voters",
          "type": "address[]"
        }
      ],
      "name": "TransactionRequest",
      "type": "event"
    },
    {
      "anonymous": false,
      "inputs": [
        {
          "indexed": false,
          "internalType": "uint256",
          "name": "uid",
          "type": "uint256"
        },
        {
          "indexed": false,
          "internalType": "bytes32",
          "name": "profileId",
          "type": "bytes32"
        },
        {
          "indexed": false,
          "internalType": "address",
          "name": "account",
          "type": "address"
        },
        {
          "indexed": false,
          "internalType": "address",
          "name": "to",
          "type": "address"
        },
        {
          "indexed": false,
          "internalType": "address",
          "name": "by",
          "type": "address"
        },
        {
          "indexed": false,
          "internalType": "enum TransactionLib.TransactionStatuses",
          "name": "status",
          "type": "uint8"
        }
      ],
      "name": "TransactionResponse",
      "type": "event"
    },
    {
      "anonymous": false,
      "inputs": [
        {
          "indexed": false,
          "internalType": "uint256",
          "name": "uid",
          "type": "uint256"
        },
        {
          "indexed": false,
          "internalType": "address",
          "name": "account",
          "type": "address"
        },
        {
          "indexed": false,
          "internalType": "address",
          "name": "voter",
          "type": "address"
        },
        {
          "indexed": false,
          "internalType": "enum TransactionLib.VoteStatuses",
          "name": "status",
          "type": "uint8"
        }
      ],
      "name": "TransactionVote",
      "type": "event"
    },
    {
      "inputs": [],
      "name": "lastUid",
      "outputs": [
        {
          "internalType": "uint256",
          "name": "",
          "type": "uint256"
        }
      ],
      "stateMutability": "view",
      "type": "function"
    },
    {
      "inputs": [
        {
          "internalType": "uint256",
          "name": "",
          "type": "uint256"
        }
      ],
      "name": "transactions",
      "outputs": [
        {
          "internalType": "bytes32",
          "name": "profileId",
          "type": "bytes32"
        },
        {
          "internalType": "address",
          "name": "account",
          "type": "address"
        },
        {
          "internalType": "address payable",
          "name": "to",
          "type": "address"
        },
        {
          "internalType": "uint256",
          "name": "amount",
          "type": "uint256"
        },
        {
          "internalType": "address",
          "name": "by",
          "type": "address"
        },
        {
          "internalType": "enum TransactionLib.TransactionStatuses",
          "name": "status",
          "type": "uint8"
        },
        {
          "internalType": "uint256",
          "name": "votersSize",
          "type": "uint256"
        },
        {
          "internalType": "uint256",
          "name": "consensus",
          "type": "uint256"
        },
        {
          "internalType": "uint256",
          "name": "approvalCount",
          "type": "uint256"
        },
        {
          "internalType": "uint256",
          "name": "rejectCount",
          "type": "uint256"
        }
      ],
      "stateMutability": "view",
      "type": "function"
    },
    {
      "inputs": [
        {
          "internalType": "address",
          "name": "addr",
          "type": "address"
        }
      ],
      "name": "txSize",
      "outputs": [
        {
          "internalType": "uint256",
          "name": "",
          "type": "uint256"
        }
      ],
      "stateMutability": "view",
      "type": "function"
    },
    {
      "inputs": [
        {
          "internalType": "address",
          "name": "addr",
          "type": "address"
        },
        {
          "internalType": "uint256",
          "name": "idx",
          "type": "uint256"
        }
      ],
      "name": "txAt",
      "outputs": [
        {
          "internalType": "uint256",
          "name": "",
          "type": "uint256"
        }
      ],
      "stateMutability": "view",
      "type": "function"
    },
    {
      "inputs": [
        {
          "internalType": "uint256",
          "name": "txId",
          "type": "uint256"
        },
        {
          "internalType": "uint256",
          "name": "idx",
          "type": "uint256"
        }
      ],
      "name": "txVoterAt",
      "outputs": [
        {
          "internalType": "address",
          "name": "addr",
          "type": "address"
        },
        {
          "internalType": "enum TransactionLib.VoteStatuses",
          "name": "status",
          "type": "uint8"
        }
      ],
      "stateMutability": "view",
      "type": "function"
    }
  ],
  "bytecode": "0x608060405234801561001057600080fd5b506109ce806100206000396000f3fe608060405234801561001057600080fd5b50600436106100575760003560e01c8063088f6d5e1461005c57806311c90ddd1461007a5780634064d09a146100aa578063573c7006146100da5780639ace38c21461010b575b600080fd5b610064610144565b60405161007191906107c0565b60405180910390f35b610094600480360381019061008f91906104f1565b61014a565b6040516100a191906107c0565b60405180910390f35b6100c460048036038101906100bf919061051a565b610195565b6040516100d191906107c0565b60405180910390f35b6100f460048036038101906100ef919061057f565b6102b0565b6040516101029291906106bb565b60405180910390f35b61012560048036038101906101209190610556565b610406565b60405161013b9a999897969594939291906106e4565b60405180910390f35b60025481565b60008060008373ffffffffffffffffffffffffffffffffffffffff1673ffffffffffffffffffffffffffffffffffffffff168152602001908152602001600020805490509050919050565b60008060008473ffffffffffffffffffffffffffffffffffffffff1673ffffffffffffffffffffffffffffffffffffffff168152602001908152602001600020805490506001836101e691906107ec565b1115610227576040517f08c379a000000000000000000000000000000000000000000000000000000000815260040161021e90610780565b60405180910390fd5b6000808473ffffffffffffffffffffffffffffffffffffffff1673ffffffffffffffffffffffffffffffffffffffff168152602001908152602001600020828154811061029d577f4e487b7100000000000000000000000000000000000000000000000000000000600052603260045260246000fd5b9060005260206000200154905092915050565b60008060016000858152602001908152602001600020600601805490506001846102da91906107ec565b111561031b576040517f08c379a0000000000000000000000000000000000000000000000000000000008152600401610312906107a0565b60405180910390fd5b600060016000868152602001908152602001600020600601848154811061036b577f4e487b7100000000000000000000000000000000000000000000000000000000600052603260045260246000fd5b9060005260206000200160009054906101000a900473ffffffffffffffffffffffffffffffffffffffff169050806001600087815260200190815260200160002060050160008373ffffffffffffffffffffffffffffffffffffffff1673ffffffffffffffffffffffffffffffffffffffff16815260200190815260200160002060009054906101000a900460ff1692509250509250929050565b60016020528060005260406000206000915090508060000154908060010160009054906101000a900473ffffffffffffffffffffffffffffffffffffffff16908060020160009054906101000a900473ffffffffffffffffffffffffffffffffffffffff16908060030154908060040160009054906101000a900473ffffffffffffffffffffffffffffffffffffffff16908060040160149054906101000a900460ff169080600701549080600801549080600901549080600a015490508a565b6000813590506104d68161096a565b92915050565b6000813590506104eb81610981565b92915050565b60006020828403121561050357600080fd5b6000610511848285016104c7565b91505092915050565b6000806040838503121561052d57600080fd5b600061053b858286016104c7565b925050602061054c858286016104dc565b9150509250929050565b60006020828403121561056857600080fd5b6000610576848285016104dc565b91505092915050565b6000806040838503121561059257600080fd5b60006105a0858286016104dc565b92505060206105b1858286016104dc565b9150509250929050565b6105c481610854565b82525050565b6105d381610842565b82525050565b6105e281610866565b82525050565b6105f1816108c0565b82525050565b610600816108d2565b82525050565b60006106136022836107db565b91507f5472616e73616374696f6e20617420696e64657820646f65736e27742065786960008301527f73740000000000000000000000000000000000000000000000000000000000006020830152604082019050919050565b6000610679601c836107db565b91507f566f74657220617420696e64657820646f65736e2774206578697374000000006000830152602082019050919050565b6106b5816108b6565b82525050565b60006040820190506106d060008301856105ca565b6106dd60208301846105f7565b9392505050565b6000610140820190506106fa600083018d6105d9565b610707602083018c6105ca565b610714604083018b6105bb565b610721606083018a6106ac565b61072e60808301896105ca565b61073b60a08301886105e8565b61074860c08301876106ac565b61075560e08301866106ac565b6107636101008301856106ac565b6107716101208301846106ac565b9b9a5050505050505050505050565b6000602082019050818103600083015261079981610606565b9050919050565b600060208201905081810360008301526107b98161066c565b9050919050565b60006020820190506107d560008301846106ac565b92915050565b600082825260208201905092915050565b60006107f7826108b6565b9150610802836108b6565b9250827fffffffffffffffffffffffffffffffffffffffffffffffffffffffffffffffff03821115610837576108366108e4565b5b828201905092915050565b600061084d82610896565b9050919050565b600061085f82610896565b9050919050565b6000819050919050565b600081905061087e82610942565b919050565b600081905061089182610956565b919050565b600073ffffffffffffffffffffffffffffffffffffffff82169050919050565b6000819050919050565b60006108cb82610870565b9050919050565b60006108dd82610883565b9050919050565b7f4e487b7100000000000000000000000000000000000000000000000000000000600052601160045260246000fd5b7f4e487b7100000000000000000000000000000000000000000000000000000000600052602160045260246000fd5b6004811061095357610952610913565b5b50565b6004811061096757610966610913565b5b50565b61097381610842565b811461097e57600080fd5b50565b61098a816108b6565b811461099557600080fd5b5056fea26469706673582212206c6fa9c6b2dd1feff9236806f2908d440e262a6e4f4174385d302304668209d264736f6c63430008000033",
  "immutableReferences": {},
  "source": "// SPDX-License-Identifier: GPL-3.0\npragma solidity >=0.6.0 <0.9.0;\n\nimport \"./TransactionLib.sol\";\n\n/**\n * @title TransactionLib\n * @dev Keeps methods to access to stored transactions.\n */\ncontract TransactionStorage {\n    // Duplicate events from TransactionLib to resemble them in ABI\n    event TransactionRequest(\n        uint uid,\n        bytes32 profileId,\n        address account,\n        address to,\n        address by,\n        uint amount,\n        address[] voters\n    );\n    event TransactionResponse(\n        uint uid,\n        bytes32 profileId,\n        address account,\n        address to,\n        address by,\n        TransactionLib.TransactionStatuses status\n    );\n    event TransactionVote(\n        uint uid,\n        address account,\n        address voter,\n        TransactionLib.VoteStatuses status\n    );\n\n    /// @dev it is not unique list, for example, if profile user sends request\n    ///  with themselves as `to`, the same address will have txId twice.\n    mapping(address => uint[]) internal transactionsByAddress;\n    mapping(uint => TransactionLib.Transaction) public transactions;\n    /// @dev To get all transactions, use `for` loop and `transaction` method\n    ///         with `lastUid - 1` as the last index.\n    uint public lastUid;\n\n    /**\n     * @notice Get size of user related transactions.\n     * @dev Use `for` loop and `txAt` method to get all user related\n     *      transaction ids.\n     * @param addr User address\n     * @return uint\n     */\n    function txSize(address addr)\n        external view\n        returns (uint)\n    {\n        return transactionsByAddress[addr].length;\n    }\n\n    /**\n     * @notice Get user transaction at index\n     * @dev Use `transactions` method to get transaction details.\n     * @param addr User address\n     * @param idx Transaction index in user transactions array\n     * @return uint Transaction id.\n     */\n    function txAt(address addr, uint idx)\n        external view\n        returns (uint)\n    {\n        require(\n            idx + 1 <= transactionsByAddress[addr].length,\n            \"Transaction at index doesn't exist\"\n        );\n        return transactionsByAddress[addr][idx];\n    }\n\n\n    /**\n     * @notice Get transaction voter info by voter index.\n     * @param txId Transaction id\n     * @param idx Voter index in transaction voters array.\n     * @return addr Voter address\n     * @return status `TransactionLib.VoteStatuses` enum\n     */\n    function txVoterAt(uint txId, uint idx)\n        external view\n        returns (address addr, TransactionLib.VoteStatuses status)\n    {\n        require(\n            idx + 1 <= transactions[txId].voters.length,\n            \"Voter at index doesn't exist\"\n        );\n        address voter = transactions[txId].voters[idx];\n        return (\n            voter,\n            transactions[txId].voterStatuses[voter]\n        );\n    }\n\n}\n",
  "sourcePath": "/Users/kunla/etest/delay-transaction/contracts/TransactionStorage.sol",
  "compiler": {
    "name": "solc",
    "version": "0.8.0+commit.c7dfd78e.Emscripten.clang"
  },
  "schemaVersion": "3.3.3",
  "updatedAt": "2021-02-10T22:23:50.623Z",
  "devdoc": {
    "details": "Keeps methods to access to stored transactions.",
    "kind": "dev",
    "methods": {
      "txAt(address,uint256)": {
        "details": "Use `transactions` method to get transaction details.",
        "params": {
          "addr": "User address",
          "idx": "Transaction index in user transactions array"
        },
        "returns": {
          "_0": "uint Transaction id."
        }
      },
      "txSize(address)": {
        "details": "Use `for` loop and `txAt` method to get all user related      transaction ids.",
        "params": {
          "addr": "User address"
        },
        "returns": {
          "_0": "uint"
        }
      },
      "txVoterAt(uint256,uint256)": {
        "params": {
          "idx": "Voter index in transaction voters array.",
          "txId": "Transaction id"
        },
        "returns": {
          "addr": "Voter address",
          "status": "`TransactionLib.VoteStatuses` enum"
        }
      }
    },
    "stateVariables": {
      "lastUid": {
        "details": "To get all transactions, use `for` loop and `transaction` method         with `lastUid - 1` as the last index."
      },
      "transactionsByAddress": {
        "details": "it is not unique list, for example, if profile user sends request  with themselves as `to`, the same address will have txId twice."
      }
    },
    "title": "TransactionLib",
    "version": 1
  },
  "userdoc": {
    "kind": "user",
    "methods": {
      "txAt(address,uint256)": {
        "notice": "Get user transaction at index"
      },
      "txSize(address)": {
        "notice": "Get size of user related transactions."
      },
      "txVoterAt(uint256,uint256)": {
        "notice": "Get transaction voter info by voter index."
      }
    },
    "version": 1
  }
}